{
  "transactions": [
    {
      "hash": "0xdb65a9d17a86e9df5fdb8c797086f9b23c9b50ac9660d1efc2f342d08318040b",
      "transactionType": "CREATE",
      "contractName": "eUSD",
      "contractAddress": "0x22657bc91a172f29d7ec50ef9df5db9fb9d324c4",
      "function": null,
      "arguments": [
        "0xD5011cddBE45A366B76C946575BD4B6f907F580F"
      ],
      "transaction": {
        "from": "0xd5011cddbe45a366b76c946575bd4b6f907f580f",
        "gas": "0x106cbd",
        "value": "0x0",
        "input": "0x608034620003f657601f1990601f6001600160401b0362000fcd388190038381018616850183811186821017620003fa57859282916040528339602094859181010312620003f657516001600160a01b038082169590929091869003620003f6576200006a6200040e565b600d81526c11585cde551c985919481554d1609a1b868201526200008d6200040e565b9060049586835263195554d160e21b8884015281519284841162000302576003938454936001948581811c91168015620003eb575b8c821014620003d857908b828685941162000382575b50508b9085831160011462000321575f9262000315575b50505f1982871b1c191690841b1784555b8051948511620003025787548381811c91168015620002f7575b8a821014620002e4578281116200029c575b50889185116001146200023757849550908492915f956200022b575b50501b925f19911b1c19161782555b83156200021457600580546001600160a01b0319811686179091558491167f8be0079c531659141344cd1fd0a4f28419497f9722a3daafe3b4186f6b6457e05f80a360025469d3c21bcecceda1000000918282018092116200020157506002555f838152808352604080822080548401905551918252917fddf252ad1be2c89b69c2b068fc378daa952ba7f163c4a11628f55a4df523b3ef91a3604051610b9e90816200042f8239f35b601190634e487b7160e01b5f525260245ffd5b604051631e4fbdf760e01b81525f81840152602490fd5b015193505f8062000148565b929194841692875f5284895f20945f5b8b898383106200028457505050106200026a575b50505050811b01825562000157565b01519060f8845f19921b161c191690555f8080806200025b565b86860151895590970196948501948893500162000247565b885f52895f208380880160051c8201928c8910620002da575b0160051c019084905b828110620002ce5750506200012c565b5f8155018490620002be565b92508192620002b5565b602289634e487b7160e01b5f525260245ffd5b90607f16906200011a565b604188634e487b7160e01b5f525260245ffd5b015190505f80620000ef565b908c918a889516895f52835f20935f905b8282106200036a575050841162000352575b505050811b01845562000100565b01515f1983891b60f8161c191690555f808062000344565b8385015186558a979095019493840193018f62000332565b90919250875f5285825f209181860160051c8301938610620003ce575b918891869594930160051c01915b828110620003bf57508d9150620000d8565b5f8155859450889101620003ad565b925081926200039f565b60228b634e487b7160e01b5f525260245ffd5b90607f1690620000c2565b5f80fd5b634e487b7160e01b5f52604160045260245ffd5b60408051919082016001600160401b03811183821017620003fa5760405256fe60806040818152600480361015610014575f80fd5b5f92833560e01c90816306fdde031461087d57508063095ea7b3146107d457806318160ddd146107b557806323b872dd146106c3578063313ce567146106a757806340c10f19146105f857806370a08231146105c1578063715018a614610561578063766976401461053c5780637bc1f6cc146105045780637d1d5d19146104e65780638da5cb5b146104bd57806395d89b411461039d578063a9059cbb1461036c578063b44bae8e1461033f578063dd62ed3e146102f6578063de5f72fd146101785763f2fde38b146100e6575f80fd5b34610174576020366003190112610174576100ff6109b9565b906101086109e9565b6001600160a01b0391821692831561015e575050600554826bffffffffffffffffffffffff60a01b821617600555167f8be0079c531659141344cd1fd0a4f28419497f9722a3daafe3b4186f6b6457e08380a380f35b51631e4fbdf760e01b8152908101849052602490fd5b8280fd5b509190346102f257816003193601126102f257338252602090600682528083205480610266575b503383526006825242818420553315610250576002549169021e19e0c9bab24000009283810180911161023d57907fa19a7d2b5bf6a987a66e0eac8a6eb2dbd34ae6a43285849af788b224268ec02292916002553385528481528185208481540190558151848152857fddf252ad1be2c89b69c2b068fc378daa952ba7f163c4a11628f55a4df523b3ef833393a3815193845242908401523392a280f35b634e487b7160e01b855260118652602485fd5b5163ec442f0560e01b8152808401839052602490fd5b6201518081018091116102df57421061027f575f61019f565b5162461bcd60e51b81529283015250603660248201527f655553443a2046617563657420636f6f6c646f776e2063687561206b657420746044820152756875632c20767569206c6f6e672063686f207468656d60501b6064820152608490fd5b634e487b7160e01b845260118552602484fd5b5080fd5b5050346102f257806003193601126102f257806020926103146109b9565b61031c6109d3565b6001600160a01b0391821683526001865283832091168252845220549051908152f35b5050346102f25760203660031901126102f2576020906103656103606109b9565b610af0565b9051908152f35b5050346102f257806003193601126102f25760209061039661038c6109b9565b6024359033610a15565b5160018152f35b509190346102f257816003193601126102f257805190828454600181811c908083169283156104b3575b60209384841081146104a057838852908115610484575060011461042f575b505050829003601f01601f191682019267ffffffffffffffff84118385101761041c5750829182610418925282610972565b0390f35b634e487b7160e01b815260418552602490fd5b8787529192508591837f8a35acfbc15ff81a39ae7d344fd709f28e8600b4aa8c65c6b64bfe7fe36bd19b5b83851061047057505050508301015f80806103e6565b80548886018301529301928490820161045a565b60ff1916878501525050151560051b84010190505f80806103e6565b634e487b7160e01b895260228a52602489fd5b91607f16916103c7565b5050346102f257816003193601126102f25760055490516001600160a01b039091168152602090f35b5050346102f257816003193601126102f25760209051620151808152f35b5050346102f25760203660031901126102f25760209181906001600160a01b0361052c6109b9565b1681526006845220549051908152f35b5050346102f257816003193601126102f2576020905169021e19e0c9bab24000008152f35b83346105be57806003193601126105be5761057a6109e9565b600580546001600160a01b0319811690915581906001600160a01b03167f8be0079c531659141344cd1fd0a4f28419497f9722a3daafe3b4186f6b6457e08280a380f35b80fd5b5050346102f25760203660031901126102f25760209181906001600160a01b036105e96109b9565b16815280845220549051908152f35b5090346101745780600319360112610174576106126109b9565b906024359161061f6109e9565b6001600160a01b0316928315610692576002549083820180921161067f575084927fddf252ad1be2c89b69c2b068fc378daa952ba7f163c4a11628f55a4df523b3ef9260209260025585855284835280852082815401905551908152a380f35b634e487b7160e01b865260119052602485fd5b84602492519163ec442f0560e01b8352820152fd5b5050346102f257816003193601126102f2576020905160128152f35b5082346105be5760603660031901126105be576106de6109b9565b6106e66109d3565b916044359360018060a01b038316808352600160205286832033845260205286832054915f198310610721575b602088610396898989610a15565b86831061078957811561077257331561075b5750825260016020908152868320338452815291869020908590039055829061039687610713565b8751634a1406b160e11b8152908101849052602490fd5b875163e602df0560e01b8152908101849052602490fd5b8751637dc7a0d960e11b8152339181019182526020820193909352604081018790528291506060010390fd5b5050346102f257816003193601126102f2576020906002549051908152f35b50346101745781600319360112610174576107ed6109b9565b602435903315610866576001600160a01b031691821561084f57508083602095338152600187528181208582528752205582519081527f8c5be1e5ebec7d5bd14f71427d1e84f3dd0314c0f7b2291e5b200ac8c7c3b925843392a35160018152f35b8351634a1406b160e11b8152908101859052602490fd5b835163e602df0560e01b8152808401869052602490fd5b849150833461017457826003193601126101745782600354600181811c90808316928315610968575b60209384841081146104a05783885290811561094c57506001146108f657505050829003601f01601f191682019267ffffffffffffffff84118385101761041c5750829182610418925282610972565b600387529192508591837fc2575a0e9e593c00f959f8c92f12db2869c3395a3b0502d05e2516446f71f85b5b83851061093857505050508301018580806103e6565b805488860183015293019284908201610922565b60ff1916878501525050151560051b84010190508580806103e6565b91607f16916108a6565b602080825282518183018190529093925f5b8281106109a557505060409293505f838284010152601f8019910116010190565b818101860151848201604001528501610984565b600435906001600160a01b03821682036109cf57565b5f80fd5b602435906001600160a01b03821682036109cf57565b6005546001600160a01b031633036109fd57565b60405163118cdaa760e01b8152336004820152602490fd5b916001600160a01b03808416928315610ad85716928315610ac0575f9083825281602052604082205490838210610a8e575091604082827fddf252ad1be2c89b69c2b068fc378daa952ba7f163c4a11628f55a4df523b3ef958760209652828652038282205586815220818154019055604051908152a3565b60405163391434e360e21b81526001600160a01b03919091166004820152602481019190915260448101839052606490fd5b60405163ec442f0560e01b81525f6004820152602490fd5b604051634b637e8f60e11b81525f6004820152602490fd5b6001600160a01b03165f90815260066020526040812054908115610b63576201518080830192838111610b4f5783421015610b485742900301918211610b34575090565b634e487b7160e01b81526011600452602490fd5b5050905090565b634e487b7160e01b83526011600452602483fd5b90509056fea264697066735822122023b8bb6573f12143bcbd46a370b11f9d553f444afcf76b898bd196c7087dd47c64736f6c63430008140033000000000000000000000000d5011cddbe45a366b76c946575bd4b6f907f580f",
        "nonce": "0x5",
        "chainId": "0x2105"
      },
      "additionalContracts": [],
      "isFixedGasLimit": false
    },
    {
      "hash": "0xe000f45bb919b79b40d9f948e619f450d7ebb61eef51904e17c487188491f62c",
      "transactionType": "CREATE",
      "contractName": "PriceOracle",
      "contractAddress": "0xfb0317b9e5ac17419dd873b9ba9d8b25be2e662b",
      "function": null,
      "arguments": [
        "0xD5011cddBE45A366B76C946575BD4B6f907F580F"
      ],
      "transaction": {
        "from": "0xd5011cddbe45a366b76c946575bd4b6f907f580f",
        "gas": "0xf7ea5",
        "value": "0x0",
        "input": "0x6080346100b957601f610d7b38819003918201601f19168301916001600160401b038311848410176100bd578084926020946040528339810103126100b957516001600160a01b0390818116908190036100b95780156100a1575f80546001600160a01b03198116831782556040519316907f8be0079c531659141344cd1fd0a4f28419497f9722a3daafe3b4186f6b6457e09080a3610ca990816100d28239f35b604051631e4fbdf760e01b81525f6004820152602490fd5b5f80fd5b634e487b7160e01b5f52604160045260245ffdfe60406080815260049081361015610014575f80fd5b5f91823560e01c9081631a757c38146108bd5781631bc7ffe91461061257816322e011921461053e5781632ad286ad146104ac5781633932d1ab14610452578163524f388914610368578163715018a61461030e5781638da5cb5b146102e65781639d7f7e86146102c9578163c68dbb371461017f578163f1a640f814610163578163f2fde38b146100d0575063f7ae35ba146100af575f80fd5b346100cc57816003193601126100cc576020906002549051908152f35b5080fd5b9190503461015f57602036600319011261015f576001600160a01b0382358181169391929084900361015b57610104610bb6565b831561014557505082546001600160a01b0319811683178455167f8be0079c531659141344cd1fd0a4f28419497f9722a3daafe3b4186f6b6457e08380a380f35b51631e4fbdf760e01b8152908101849052602490fd5b8480fd5b8280fd5b5050346100cc57816003193601126100cc576020905160088152f35b8284346102c657602090816003193601126102c65783356002548110156100cc576101a990610b35565b9190916102b4578351928392829080546101c281610b7e565b918287526001918583821691825f14610296575050600114610261575b505050601f801995869203011683019583871067ffffffffffffffff88111761024e575085929391838652818452845191828186015281955b8387106102365750508394508582601f949501015201168101030190f35b86810182015189880189015295810195889550610218565b634e487b7160e01b835260419052602482fd5b85528385208593505b82841061028057505050830181018780806101df565b805488850186015287965092840192810161026a565b93509450505060ff191682860152151560051b8401018780806101df565b634e487b7160e01b8152808552602490fd5b80fd5b5050346100cc57816003193601126100cc5760209051610e108152f35b5050346100cc57816003193601126100cc57905490516001600160a01b039091168152602090f35b83346102c657806003193601126102c657610327610bb6565b80546001600160a01b03198116825581906001600160a01b03167f8be0079c531659141344cd1fd0a4f28419497f9722a3daafe3b4186f6b6457e08280a380f35b839150346100cc5760203660031901126100cc57803567ffffffffffffffff811161015f5761039a9036908301610ad4565b919084518382823760208185810160018152030190209260ff6002850154161561042957600184015494854203904282116104165750610e10106103e957505050549082519182526020820152f35b61040c929493508551958695631fdfbfe560e31b87528601526044850191610be1565b9060248301520390fd5b634e487b7160e01b815260118552602490fd5b85516311feaca760e21b8152602093810193909352829161044e916024840191610be1565b0390fd5b8284346102c65760203660031901126102c65782359067ffffffffffffffff82116102c657506002602061048c819560ff94369101610ad4565b919082865193849283378101600181520301902001541690519015158152f35b905082346102c65760203660031901126102c65781359067ffffffffffffffff82116102c657506104e09036908301610ad4565b919083518382823760208185810160018152030190209260ff6002850154161561051a575050506001815491015482519182526020820152f35b61044e929350602094519485946311feaca760e21b86528501526024840191610be1565b8383346100cc5761054e36610b02565b9291610558610bb6565b60ff60028451848482376020818681016001815203019020015416156105ee5783156105df57908291845f80516020610c54833981519152945183838237602081858101600181520301902055825182828237600183820191818352602081429403019020015581835192839283378101868152039020928151908152426020820152a280f35b825162bfc92160e01b81528690fd5b91516311feaca760e21b815260208187015291829161044e91602484019190610be1565b8383346100cc5761062236610b02565b9061062e939293610bb6565b825193818186378185019660ff60028760019a8b81526020998a910301902001541661089b57831561088e57845167ffffffffffffffff9190606081018381118282101761087b578752858152600288820191428352888101928c84528c8b8b5180928b8b83378b82019081520301902091518255518c820155019051151560ff801983541691161790556002546801000000000000000081101561086857808a6106dc9201600255610b35565b92909261085657841161084357506106f48154610b7e565b601f81116107fd575b508697601f841160011461079457838091899a5f80516020610c54833981519152999a93610789575b501b905f198560031b1c19161790555b835182828237808381018981520390207f724df0596d75f7cca867e95fdadd6c1397e175dc9a54f0a3f46167ec8577ecae8880a2818451928392833781018781520390209382519182524290820152a280f35b85013592508b610726565b818852868820601f19851699895b8b81106107e85750855f80516020610c54833981519152999a9b106107cf575b505083811b019055610736565b8401355f19600387901b60f8161c1916905589806107c2565b858201358355918301919089019089016107a2565b818852868820601f850160051c810191888610610839575b601f0160051c019089905b82811061082e5750506106fd565b898155018990610820565b9091508190610815565b634e487b7160e01b885260419052602487fd5b634e487b7160e01b8952888252602489fd5b634e487b7160e01b895260418252602489fd5b634e487b7160e01b8a526041835260248afd5b845162bfc92160e01b8152fd5b61044e8692848751948594630135d07360e41b86528501526024840191610be1565b9190503461015f578060031936011261015f5767ffffffffffffffff91803583811161015b576108f09036908301610a9f565b926024948535908111610a9b5761090a9036908501610a9f565b610912610bb6565b808603610a5957875b868110610926578880f35b610931818887610c01565b808651928337810160ff60028360019384815260209586910301902001541615610a2b57610960838587610c43565b3515610a1c57610971838587610c43565b358261097e858c8b610c01565b9190828a5193849283378101858152030190205561099d838a89610c01565b8751929181908437820191818352838142940301902001555f80516020610c54833981519152858b6109d0858c8b610c01565b906109dc87898b610c43565b3592828551938493843782019081520390209382519182524290820152a25f198114610a0a5760010161091b565b634e487b7160e01b8952601186528789fd5b855162bfc92160e01b81528890fd5b508661044e868b610a3d868d8c610c01565b919092519586956311feaca760e21b8752860152840191610be1565b825162461bcd60e51b8152602081870152601c818901527f50726963654f7261636c653a206c656e677468206d69736d61746368000000006044820152606490fd5b8680fd5b9181601f84011215610ad05782359167ffffffffffffffff8311610ad0576020808501948460051b010111610ad057565b5f80fd5b9181601f84011215610ad05782359167ffffffffffffffff8311610ad05760208381860195010111610ad057565b6040600319820112610ad0576004359067ffffffffffffffff8211610ad057610b2d91600401610ad4565b909160243590565b600254811015610b6a5760025f527f405787fa12a823e0f2b7631cc41b3ba8828b3321ca811111fa75cd3aa3bb5ace01905f90565b634e487b7160e01b5f52603260045260245ffd5b90600182811c92168015610bac575b6020831014610b9857565b634e487b7160e01b5f52602260045260245ffd5b91607f1691610b8d565b5f546001600160a01b03163303610bc957565b60405163118cdaa760e01b8152336004820152602490fd5b908060209392818452848401375f828201840152601f01601f1916010190565b9190811015610b6a5760051b81013590601e1981360301821215610ad057019081359167ffffffffffffffff8311610ad0576020018236038113610ad0579190565b9190811015610b6a5760051b019056fe6e838f2a03741f5f2aff5480963b672fb0dd8430a4dc75db9b67ce009733c9fea2646970667358221220a0401bf041f82f1dbe25762b7b33b01d8171ccc07739d723c701ff74a04fe82864736f6c63430008140033000000000000000000000000d5011cddbe45a366b76c946575bd4b6f907f580f",
        "nonce": "0x6",
        "chainId": "0x2105"
      },
      "additionalContracts": [],
      "isFixedGasLimit": false
    },
    {
      "hash": "0x885b43ea22a138a6281d4488f9c3b6a350e647d88a340b3082fcc2346bf246ad",
      "transactionType": "CALL",
      "contractName": "PriceOracle",
      "contractAddress": "0xfb0317b9e5ac17419dd873b9ba9d8b25be2e662b",
      "function": "addAsset(string,uint256)",
      "arguments": [
        "BTC",
        "8500000000000"
      ],
      "transaction": {
        "from": "0xd5011cddbe45a366b76c946575bd4b6f907f580f",
        "to": "0xfb0317b9e5ac17419dd873b9ba9d8b25be2e662b",
        "gas": "0x31946",
        "value": "0x0",
        "input": "0x1bc7ffe90000000000000000000000000000000000000000000000000000000000000040000000000000000000000000000000000000000000000000000007bb0f7b080000000000000000000000000000000000000000000000000000000000000000034254430000000000000000000000000000000000000000000000000000000000",
        "nonce": "0x7",
        "chainId": "0x2105"
      },
      "additionalContracts": [],
      "isFixedGasLimit": false
    },
    {
      "hash": "0x48ec4ec1498f0c0c8ee55c9a0653dc41576a9a41290d1db080cb79d2fdd1df65",
      "transactionType": "CALL",
      "contractName": "PriceOracle",
      "contractAddress": "0xfb0317b9e5ac17419dd873b9ba9d8b25be2e662b",
      "function": "addAsset(string,uint256)",
      "arguments": [
        "ETH",
        "200000000000"
      ],
      "transaction": {
        "from": "0xd5011cddbe45a366b76c946575bd4b6f907f580f",
        "to": "0xfb0317b9e5ac17419dd873b9ba9d8b25be2e662b",
        "gas": "0x2b783",
        "value": "0x0",
        "input": "0x1bc7ffe900000000000000000000000000000000000000000000000000000000000000400000000000000000000000000000000000000000000000000000002e90edd00000000000000000000000000000000000000000000000000000000000000000034554480000000000000000000000000000000000000000000000000000000000",
        "nonce": "0x8",
        "chainId": "0x2105"
      },
      "additionalContracts": [],
      "isFixedGasLimit": false
    },
    {
      "hash": "0xd3056faab3562e5dfc784514f9395f4284d21c2e61b7cac3841137d3ef2ce2ba",
      "transactionType": "CALL",
      "contractName": "PriceOracle",
      "contractAddress": "0xfb0317b9e5ac17419dd873b9ba9d8b25be2e662b",
      "function": "addAsset(string,uint256)",
      "arguments": [
        "SOL",
        "13000000000"
      ],
      "transaction": {
        "from": "0xd5011cddbe45a366b76c946575bd4b6f907f580f",
        "to": "0xfb0317b9e5ac17419dd873b9ba9d8b25be2e662b",
        "gas": "0x2b783",
        "value": "0x0",
        "input": "0x1bc7ffe900000000000000000000000000000000000000000000000000000000000000400000000000000000000000000000000000000000000000000000000306dc42000000000000000000000000000000000000000000000000000000000000000003534f4c0000000000000000000000000000000000000000000000000000000000",
        "nonce": "0x9",
        "chainId": "0x2105"
      },
      "additionalContracts": [],
      "isFixedGasLimit": false
    },
    {
      "hash": "0x380b429ca4446ec1de5c9035d3a61a4cb08e886c2a2f2372ca8e4cc51bb8eae1",
      "transactionType": "CALL",
      "contractName": "PriceOracle",
      "contractAddress": "0xfb0317b9e5ac17419dd873b9ba9d8b25be2e662b",
      "function": "addAsset(string,uint256)",
      "arguments": [
        "BNB",
        "60000000000"
      ],
      "transaction": {
        "from": "0xd5011cddbe45a366b76c946575bd4b6f907f580f",
        "to": "0xfb0317b9e5ac17419dd873b9ba9d8b25be2e662b",
        "gas": "0x2b783",
        "value": "0x0",
        "input": "0x1bc7ffe900000000000000000000000000000000000000000000000000000000000000400000000000000000000000000000000000000000000000000000000df84758000000000000000000000000000000000000000000000000000000000000000003424e420000000000000000000000000000000000000000000000000000000000",
        "nonce": "0xa",
        "chainId": "0x2105"
      },
      "additionalContracts": [],
      "isFixedGasLimit": false
    },
    {
      "hash": "0x1fbb1600667424372ad66dc04de539a9918b1cf060d3906aca40c2555048d389",
      "transactionType": "CALL",
      "contractName": "PriceOracle",
      "contractAddress": "0xfb0317b9e5ac17419dd873b9ba9d8b25be2e662b",
      "function": "addAsset(string,uint256)",
      "arguments": [
        "XRP",
        "200000000"
      ],
      "transaction": {
        "from": "0xd5011cddbe45a366b76c946575bd4b6f907f580f",
        "to": "0xfb0317b9e5ac17419dd873b9ba9d8b25be2e662b",
        "gas": "0x290cf",
        "value": "0x0",
        "input": "0x1bc7ffe90000000000000000000000000000000000000000000000000000000000000040000000000000000000000000000000000000000000000000000000000bebc20000000000000000000000000000000000000000000000000000000000000000035852500000000000000000000000000000000000000000000000000000000000",
        "nonce": "0xb",
        "chainId": "0x2105"
      },
      "additionalContracts": [],
      "isFixedGasLimit": false
    },
    {
      "hash": "0xe39a525ef18996cbc43abb6dda9226e9569028398c5d72c49f8c1d0ad2def1b6",
      "transactionType": "CALL",
      "contractName": "PriceOracle",
      "contractAddress": "0xfb0317b9e5ac17419dd873b9ba9d8b25be2e662b",
      "function": "addAsset(string,uint256)",
      "arguments": [
        "DOGE",
        "17000000"
      ],
      "transaction": {
        "from": "0xd5011cddbe45a366b76c946575bd4b6f907f580f",
        "to": "0xfb0317b9e5ac17419dd873b9ba9d8b25be2e662b",
        "gas": "0x290ef",
        "value": "0x0",
        "input": "0x1bc7ffe9000000000000000000000000000000000000000000000000000000000000004000000000000000000000000000000000000000000000000000000000010366400000000000000000000000000000000000000000000000000000000000000004444f474500000000000000000000000000000000000000000000000000000000",
        "nonce": "0xc",
        "chainId": "0x2105"
      },
      "additionalContracts": [],
      "isFixedGasLimit": false
    },
    {
      "hash": "0xec4c56e75e213345219fa984f5f99e82cbffcf9c5eab752938efe39c28de3c4e",
      "transactionType": "CALL",
      "contractName": "PriceOracle",
      "contractAddress": "0xfb0317b9e5ac17419dd873b9ba9d8b25be2e662b",
      "function": "addAsset(string,uint256)",
      "arguments": [
        "ADA",
        "70000000"
      ],
      "transaction": {
        "from": "0xd5011cddbe45a366b76c946575bd4b6f907f580f",
        "to": "0xfb0317b9e5ac17419dd873b9ba9d8b25be2e662b",
        "gas": "0x2b783",
        "value": "0x0",
        "input": "0x1bc7ffe9000000000000000000000000000000000000000000000000000000000000004000000000000000000000000000000000000000000000000000000000042c1d8000000000000000000000000000000000000000000000000000000000000000034144410000000000000000000000000000000000000000000000000000000000",
        "nonce": "0xd",
        "chainId": "0x2105"
      },
      "additionalContracts": [],
      "isFixedGasLimit": false
    },
    {
      "hash": "0x2495b1069b3f387362aa1f7599e377af4fcd6b059b51de44bcdf36fb5a4ee7dc",
      "transactionType": "CALL",
      "contractName": "PriceOracle",
      "contractAddress": "0xfb0317b9e5ac17419dd873b9ba9d8b25be2e662b",
      "function": "addAsset(string,uint256)",
      "arguments": [
        "AVAX",
        "2000000000"
      ],
      "transaction": {
        "from": "0xd5011cddbe45a366b76c946575bd4b6f907f580f",
        "to": "0xfb0317b9e5ac17419dd873b9ba9d8b25be2e662b",
        "gas": "0x2b783",
        "value": "0x0",
        "input": "0x1bc7ffe90000000000000000000000000000000000000000000000000000000000000040000000000000000000000000000000000000000000000000000000007735940000000000000000000000000000000000000000000000000000000000000000044156415800000000000000000000000000000000000000000000000000000000",
        "nonce": "0xe",
        "chainId": "0x2105"
      },
      "additionalContracts": [],
      "isFixedGasLimit": false
    },
    {
      "hash": "0x8a49646d89a961a6ffa61ccde15e716f4c74d4dc86d62f464d3f2722be24d046",
      "transactionType": "CALL",
      "contractName": "PriceOracle",
      "contractAddress": "0xfb0317b9e5ac17419dd873b9ba9d8b25be2e662b",
      "function": "addAsset(string,uint256)",
      "arguments": [
        "LINK",
        "1300000000"
      ],
      "transaction": {
        "from": "0xd5011cddbe45a366b76c946575bd4b6f907f580f",
        "to": "0xfb0317b9e5ac17419dd873b9ba9d8b25be2e662b",
        "gas": "0x2b783",
        "value": "0x0",
        "input": "0x1bc7ffe90000000000000000000000000000000000000000000000000000000000000040000000000000000000000000000000000000000000000000000000004d7c6d0000000000000000000000000000000000000000000000000000000000000000044c494e4b00000000000000000000000000000000000000000000000000000000",
        "nonce": "0xf",
        "chainId": "0x2105"
      },
      "additionalContracts": [],
      "isFixedGasLimit": false
    },
    {
      "hash": "0x4a01aa01a457fd604cd0ffb157c9821c63985fa4118dd92b8e30049544f96551",
      "transactionType": "CALL",
      "contractName": "PriceOracle",
      "contractAddress": "0xfb0317b9e5ac17419dd873b9ba9d8b25be2e662b",
      "function": "addAsset(string,uint256)",
      "arguments": [
        "DOT",
        "400000000"
      ],
      "transaction": {
        "from": "0xd5011cddbe45a366b76c946575bd4b6f907f580f",
        "to": "0xfb0317b9e5ac17419dd873b9ba9d8b25be2e662b",
        "gas": "0x290cf",
        "value": "0x0",
        "input": "0x1bc7ffe900000000000000000000000000000000000000000000000000000000000000400000000000000000000000000000000000000000000000000000000017d784000000000000000000000000000000000000000000000000000000000000000003444f540000000000000000000000000000000000000000000000000000000000",
        "nonce": "0x10",
        "chainId": "0x2105"
      },
      "additionalContracts": [],
      "isFixedGasLimit": false
    },
    {
      "hash": "0xce2b63d7453091aff9e395d3f93f511ac708e8984916a5242a32654e9dec2468",
      "transactionType": "CREATE",
      "contractName": "Vault",
      "contractAddress": "0x1f0480a38a48c4a75ace8fd4d9fa6bbab43d230f",
      "function": null,
      "arguments": [
        "0x22657BC91A172F29D7ec50EF9dF5DB9FB9D324c4",
        "0xfb0317b9e5AC17419DD873B9Ba9D8b25Be2E662b",
        "0xD5011cddBE45A366B76C946575BD4B6f907F580F"
      ],
      "transaction": {
        "from": "0xd5011cddbe45a366b76c946575bd4b6f907f580f",
        "gas": "0x21ba4a",
        "value": "0x0",
        "input": "0x60a0346200014457601f62001d7c38819003918201601f19168301916001600160401b03831184841017620001485780849260609460405283398101031262000144576200004d816200015c565b9060406200005e602083016200015c565b916001600160a01b039182916200007691016200015c565b169182156200012c57815f549460018060a01b03199480868816175f558260405197167f8be0079c531659141344cd1fd0a4f28419497f9722a3daafe3b4186f6b6457e05f80a360017f9b779b17422d0df92223018b32b4d1fa46e071723d6817e2486d003becc55f0055166080521690600154161760015542600755611c0a90816200017282396080518181816103db015281816107720152818161099f015281816110e90152818161139501526114520152f35b604051631e4fbdf760e01b81525f6004820152602490fd5b5f80fd5b634e487b7160e01b5f52604160045260245ffd5b51906001600160a01b0382168203620001445756fe608080604052600480361015610013575f80fd5b5f91823560e01c908163126082cf1461148a57508063164e68de146113fe578063247d571b146113e05780632835195f146113c457806342c65ae51461137f578063431931d8146113635780634bfdfa6f146113405780634f1703e01461132257806350987bd5146112f7578063514ea4bf146111ba57806351c6590a146110a55780636545749a14611089578063715018a61461102f5780637437535914610ffc578063789ff0e114610fde5780637adbf97314610f565780637d63e70614610b2a5780637dc0d1d014610b015780637ece152314610adc5780638047c3a914610ab95780638da5cb5b14610a9257806395082d2514610a735780639b45ec9714610a575780639c8f9f2314610945578063a3966a24146108d9578063a45cbbdb146104ff578063a693600b146104e1578063c0d7865514610479578063c8ca245a14610251578063f2fde38b146101cb578063f887ea401461019f5763f92c45b71461017f575f80fd5b3461019b578160031936011261019b5760209054604051908152f35b5080fd5b82346101c857806003193601126101c8576002546040516001600160a01b039091168152602090f35b80fd5b503461019b57602036600319011261019b576101e56114a6565b6101ed6115dd565b6001600160a01b03908116918215610239575082546001600160a01b0319811683178455167f8be0079c531659141344cd1fd0a4f28419497f9722a3daafe3b4186f6b6457e08380a380f35b604051631e4fbdf760e01b8152908101849052602490fd5b503461019b57610260366114fd565b61026c949293946116e7565b610274611a29565b61028981610283368588611723565b876119cc565b93848752600860205260408720928354968715610468576001546040805163524f388960e01b8152602089820152966001600160a01b0393929091908890851681806102d9602482018a8c61177f565b03915afa96871561045d578b9761042b575b506102f68782611b35565b501561041a57917f5e67d1d70ca0bca0072133b1524612811bc09d9abd1c0e92dc96c10b08b95fac939160016103a498979694019687549b61034560405196879660c0885260c088019161177f565b971515602086015260408501528b606085015260808401523360a084015216930390a2674563918244f400008581101561040c5761038761038f918097611716565b6003546116c6565b60035554825490818110156104055790611716565b9055825260086020526103b9604083206117f6565b806103d4575b5060015f80516020611bb58339815191525580f35b6103ff90337f0000000000000000000000000000000000000000000000000000000000000000611608565b5f6103bf565b5080611716565b5061038f6103878680611716565b604051636415f95960e01b81528890fd5b61044e91975060403d604011610456575b6104468183611586565b810190611769565b50955f6102eb565b503d61043c565b6040513d8d823e3d90fd5b604051636ec9be1160e01b81528690fd5b82346101c85760203660031901126101c8576104936114a6565b61049b6115dd565b600280546001600160a01b0319166001600160a01b039290921691821790557f7aed1d3e8155a07ccf395e44ea3109a0e2d6c9b29bbbe9f142d9790596f4dc808280a280f35b82346101c857806003193601126101c8576020600354604051908152f35b503461019b5760c036600319011261019b576105196114a6565b60243567ffffffffffffffff81116108d55761053890369084016114c0565b6105406114ee565b926001600160a01b039060a43582811681036108d157826002541633036108c0576105696116e7565b60443560643591610578611a29565b61058d8861058736898b611723565b866119cc565b808b52600860205260408b2080549081156108af579089959493929160408a8e60208c60015416916105d885519c8d958694859463524f388960e01b8652850152602484019161177f565b03915afa9687156108a257917fa284b2770faef7bc99cacc3031eb947dc5645724c908d6b62d671e9da604398e9b9a99989795939160209f9795938897610880575b5085158015610876575b61086c575b60010154808511610864575b5084149c81875260088f526040872061064f868883611aa1565b6106598783611a71565b610665816005546116c6565b6005558787928b81135f146107f15761068f61068761069f936106969361179f565b8654906117b2565b80946116c6565b92600354611716565b6003555b8181106107e2575050879e5b6106ba878354611716565b825560018201916106ed83548089105f146107d8576106da898092611716565b8555855490818110156104055790611716565b8455426005820155600654600382015581156107ce575b5061079d575b5050508b8061076c575b505061072d60405198899860e08a5260e08a019161177f565b9915158c8801526040870152606086015260808501528060a085015260c084015216930390a260015f80516020611bb583398151915255604051908152f35b610796917f0000000000000000000000000000000000000000000000000000000000000000611608565b5f8b610714565b5481546107b291818110156104055790611716565b9055855260088d526107c6604086206117f6565b5f808061070a565b905054155f610704565b6106da8180611716565b6107eb91611716565b9e6106af565b8b8112610800575b50506106a3565b61082092935090610813610818926117e6565b61179f565b8354906117b2565b908682111561085e5786915b87811061084c57506108428a5b926003546116c6565b600355875f6107f9565b6108596108429189611716565b610839565b8161082c565b93505f610635565b9094508490610629565b5081861015610624565b61089a91975060403d604011610456576104468183611586565b50955f61061a565b8e604051903d90823e3d90fd5b604051636ec9be1160e01b81528c90fd5b604051639e41bdd760e01b81528790fd5b8780fd5b8380fd5b503461019b57604060a0926109036108fd6108f3366114fd565b9391903691611723565b906119cc565b815260086020522090815491600181015491600560ff600284015492840154169201549260405194855260208501526040840152151560608301526080820152f35b503461019b57602036600319011261019b578035906109626115dd565b61096a6116e7565b610975821515611686565b60035490610984815483611716565b8311610a0357508161099591611716565b6003556109c381337f0000000000000000000000000000000000000000000000000000000000000000611608565b6040519081527fc2c3f06e49b9f15e7b4af9055e183b0d73362e033ad82a07dec9bf984017171960203392a260015f80516020611bb58339815191525580f35b60849060206040519162461bcd60e51b8352820152602760248201527f5661756c743a20696e73756666696369656e7420617661696c61626c65206c696044820152667175696469747960c81b6064820152fd5b82346101c857806003193601126101c857602060405160328152f35b82346101c857806003193601126101c85760206040516305f5e1008152f35b82346101c857806003193601126101c857546040516001600160a01b039091168152602090f35b82346101c857806003193601126101c8576020604051674563918244f400008152f35b82346101c8576020610af9610af0366114fd565b92919091611917565b604051908152f35b82346101c857806003193601126101c8576001546040516001600160a01b039091168152602090f35b5090346101c85760a03660031901126101c857610b456114a6565b67ffffffffffffffff906024358281116108d557610b6690369086016114c0565b9091610b706114ee565b6002549094906001600160a01b031633036108c057610b8d6116e7565b60643515610f4557610b9d611a29565b610bb285610bac368688611723565b846119cc565b86526008602052604086209660018060a01b03600154169060408051809363524f388960e01b82526020848301528180610bf0602482018b8d61177f565b03915afa918215610f3a578892610f18575b50600a60643502926064358404600a03610f0557610c266127108504604435611716565b610c3661271086046005546116c6565b600555610c4961271086046003546116c6565b6003558a5490610c5b606435836116c6565b60018d0191610c6b8184546116c6565b936032850285810460321486151715610ef2578311610ee15790878f83610ca094155f14610e9c5750600201555b86546116c6565b80865560035410610e8b578c5555818a0160ff1981541660ff8a1515161790554260058b01558511610e785750610cda600689015461154e565b601f8111610e3a575b508697601f8511600114610da75790612710929185899a7f0c1fb245582e6325c5bb8948d367d06d50b210cae8887a7d67c317f71e1205f1999a91610d9c575b508660011b905f198860031b1c19161760068201555b6003600654910155610d5860405196879660c0885260c088019161177f565b97151560208601526044356040860152606435606086015260808501520460a08301526001600160a01b0316930390a260015f80516020611bb58339815191525580f35b90508701355f610d23565b6006810188526020882098885b601f1987168110610e225750907f0c1fb245582e6325c5bb8948d367d06d50b210cae8887a7d67c317f71e1205f197989961271094939287601f19811610610e09575b5050600186811b016006820155610d39565b8801355f19600389901b60f8161c191690555f80610df7565b878201358b556001909a019960209182019101610db4565b610e689060068a01895260208920601f870160051c81019160208810610e6e575b601f0160051c01906117d0565b5f610ce3565b9091508190610e5b565b634e487b7160e01b885260419052602487fd5b604051636bb2792960e01b81528590fd5b91506002610eda910191610ed4610eca8c610ec4610ebb87548661179f565b9160643561179f565b906116c6565b91606435906116c6565b906117b2565b9055610c99565b604051633fe89cb960e11b81528790fd5b634e487b7160e01b8f526011885260248ffd5b634e487b7160e01b895260118252602489fd5b610f3291925060403d604011610456576104468183611586565b50905f610c02565b6040513d8a823e3d90fd5b604051630ffd11ad60e01b81528790fd5b503461019b57602036600319011261019b57610f706114a6565b610f786115dd565b6001600160a01b0316908115610fa457506bffffffffffffffffffffffff60a01b600154161760015580f35b60649060206040519162461bcd60e51b835282015260136024820152725661756c743a207a65726f206164647265737360681b6044820152fd5b82346101c857806003193601126101c8576020600554604051908152f35b503461019b578160031936011261019b576003549054602092918181111561102857610af99250611716565b5050610af9565b82346101c857806003193601126101c8576110486115dd565b80546001600160a01b03198116825581906001600160a01b03167f8be0079c531659141344cd1fd0a4f28419497f9722a3daafe3b4186f6b6457e08280a380f35b82346101c857806003193601126101c857602060405160018152f35b503461019b57602036600319011261019b578035906110c26116e7565b6110cd821515611686565b6040516323b872dd60e01b8452338252306024526044839052907f000000000000000000000000000000000000000000000000000000000000000060208560648180855af1600186511481161561119b575b83604052856060521561117e5750505061113b816003546116c6565b6003556040519081527fc17cea59c2955cb181b03393209566960365771dbba9dc3d510180e7cb31208860203392a260015f80516020611bb58339815191525580f35b635274afe760e01b83526001600160a01b03169082015260249150fd5b60018115166111b157813b15153d15161661111f565b833d87823e3d90fd5b503461019b57602090816003193601126112f3576112179192813581526008845260408120805492600190818301546002840154908860ff6003870154948701541694600660058801549701976040519889928282549d8e61154e565b928386528686019e83811690815f146112d05750600114611291575b5050505061124392500387611586565b6040519889978852870152604086015260608501521515608084015260a083015260e060c0830152518060e08301526112838161010094858501906115bc565b601f01601f19168101030190f35b815285812095935091905b8183106112b657508d9450508201016112435f8080611233565b8554948301840194909452938301938a939183019161129c565b935050505061124394925060ff19168c52151560051b8201018b925f8080611233565b8280fd5b82346101c857604061131461130b366114fd565b92919091611863565b825191151582526020820152f35b82346101c857806003193601126101c8576020600654604051908152f35b82346101c857806003193601126101c8576020604051670de0b6b3a76400008152f35b82346101c857806003193601126101c857602060405160968152f35b82346101c857806003193601126101c8576040517f00000000000000000000000000000000000000000000000000000000000000006001600160a01b03168152602090f35b82346101c857806003193601126101c8576020604051600a8152f35b82346101c857806003193601126101c8576020600754604051908152f35b82346101c85760203660031901126101c8576114186114a6565b6114206115dd565b7fc0819c13be868895eb93e40eaceb96de976442fa1d404e5c55f14bb65a8c489a6020600554928460055561147684827f0000000000000000000000000000000000000000000000000000000000000000611608565b6040519384526001600160a01b031692a280f35b83903461019b578160031936011261019b578061271060209252f35b600435906001600160a01b03821682036114bc57565b5f80fd5b9181601f840112156114bc5782359167ffffffffffffffff83116114bc57602083818601950101116114bc57565b6084359081151582036114bc57565b9060606003198301126114bc576004356001600160a01b03811681036114bc57916024359067ffffffffffffffff82116114bc5761153d916004016114c0565b909160443580151581036114bc5790565b90600182811c9216801561157c575b602083101461156857565b634e487b7160e01b5f52602260045260245ffd5b91607f169161155d565b90601f8019910116810190811067ffffffffffffffff8211176115a857604052565b634e487b7160e01b5f52604160045260245ffd5b5f5b8381106115cd5750505f910152565b81810151838201526020016115be565b5f546001600160a01b031633036115f057565b60405163118cdaa760e01b8152336004820152602490fd5b60405163a9059cbb60e01b5f9081526001600160a01b039384166004526024949094529260209060448180855af160015f5114811615611667575b836040521561165157505050565b635274afe760e01b835216600482015260249150fd5b600181151661167d57813b15153d151616611643565b833d5f823e3d90fd5b1561168d57565b60405162461bcd60e51b815260206004820152601160248201527005661756c743a20616d6f756e74203d203607c1b6044820152606490fd5b919082018092116116d357565b634e487b7160e01b5f52601160045260245ffd5b5f80516020611bb583398151915260028154146117045760029055565b604051633ee5aeb560e01b8152600490fd5b919082039182116116d357565b92919267ffffffffffffffff82116115a8576040519161174d601f8201601f191660200184611586565b8294818452818301116114bc578281602093845f960137010152565b91908260409103126114bc576020825192015190565b908060209392818452848401375f828201840152601f01601f1916010190565b818102929181159184041417156116d357565b81156117bc570490565b634e487b7160e01b5f52601260045260245ffd5b8181106117db575050565b5f81556001016117d0565b600160ff1b81146116d3575f0390565b60065f9182815582600182015582600282015582600382015582600482015582600582015501611826815461154e565b8061183057505050565b82601f821160011461184157505055565b909180825261185f601f60208420940160051c8401600185016117d0565b5555565b92611876919294936108fd368786611723565b925f93845260086020526040918285209182541561190f576001548451632ad286ad60e01b81526020600482015292859284926001600160a01b031691839182916118c591602484019161177f565b03915afa928315611906576118e29495936118e6575b5050611b35565b9091565b6118fd929350803d10610456576104468183611586565b50905f806118db565b513d86823e3d90fd5b505050508190565b926119299194936108fd368588611723565b5f526008602052604092835f209081549283156119c3576001548651632ad286ad60e01b8152602060048201529392879285926001600160a01b0316918391829161197891602484019161177f565b03915afa9182156119b95761199694955f93611999575b5050611aa1565b90565b6119b0929350803d10610456576104468183611586565b50905f8061198f565b85513d5f823e3d90fd5b505f9450505050565b91906035611a239160405193849160208301966bffffffffffffffffffffffff199060601b168752611a088151809260206034870191016115bc565b820190151560f81b6034820152036015810184520182611586565b51902090565b600754804214611a6e57611a40610e109142611716565b0480158015611a4d575050565b81800460011417156116d357611a65906006546116c6565b60065542600755565b50565b611a8390600360065491015490611716565b908115611a9b5761271091611a979161179f565b0490565b50505f90565b6002810154908115611b2d57600401545f9060ff1615611b055750611adf829382611ae494119483865f14611af657611ad991611716565b9061179f565b6117b2565b9015611aed5790565b611996906117e6565b90611b0091611716565b611ad9565b5080821092611ae492611adf9190838615611b245790611ad991611716565b611b0091611716565b505050505f90565b611b428154809383611aa1565b905f808312611b805750906001611b5a9201546116c6565b905b612710918281029281840414901517156116d357611b79916117b2565b6064811091565b939291611b8e6001916117e6565b91015480821015611bab57611ba592939450611716565b90611b5c565b5050506001919056fe9b779b17422d0df92223018b32b4d1fa46e071723d6817e2486d003becc55f00a26469706673582212202164afea317993814dde34b2617f8014acbb265f779fcb5c3c9d73a18e54ce7464736f6c6343000814003300000000000000000000000022657bc91a172f29d7ec50ef9df5db9fb9d324c4000000000000000000000000fb0317b9e5ac17419dd873b9ba9d8b25be2e662b000000000000000000000000d5011cddbe45a366b76c946575bd4b6f907f580f",
        "nonce": "0x11",
        "chainId": "0x2105"
      },
      "additionalContracts": [],
      "isFixedGasLimit": false
    },
    {
      "hash": "0xbe20efdcbad84c21e7a3e7f43d17327321bfd62417fe91c0e85ce16f68541f04",
      "transactionType": "CREATE",
      "contractName": "Router",
      "contractAddress": "0x65428decd1ec09cfaa7457aceb1991dd976e07c3",
      "function": null,
      "arguments": [
        "0x22657BC91A172F29D7ec50EF9dF5DB9FB9D324c4",
        "0x1f0480a38A48C4A75AcE8fD4D9FA6BbaB43D230F"
      ],
      "transaction": {
        "from": "0xd5011cddbe45a366b76c946575bd4b6f907f580f",
        "gas": "0xb524b",
        "value": "0x0",
        "input": "0x60c0346100d157601f6109e938819003918201601f19168301916001600160401b038311848410176100d55780849260409485528339810103126100d157610052602061004b836100e9565b92016100e9565b60017f9b779b17422d0df92223018b32b4d1fa46e071723d6817e2486d003becc55f00556001600160a01b039182166080521660a0526040516108eb90816100fe82396080518181816102e1015261058c015260a05181818160800152818160f0015281816101ed015281816102b2015281816104e3015261062a0152f35b5f80fd5b634e487b7160e01b5f52604160045260245ffd5b51906001600160a01b03821682036100d15756fe60406080815260049081361015610014575f80fd5b5f91823560e01c9081632616d036146105bb57816342c65ae51461057757816350987bd5146104ac57816354619ee9146102705781637ece1523146101b5578163a3966a24146100b3575063fbfa77cf1461006d575f80fd5b346100af57816003193601126100af57517f00000000000000000000000000000000000000000000000000000000000000006001600160a01b03168152602090f35b5080fd5b90503461019d5760a06100e66100c836610790565b87516328e59a8960e21b815296879586959094929392918601610886565b0381600180851b037f0000000000000000000000000000000000000000000000000000000000000000165afa9081156101a95783928490859186938795610148575b5060a0965081519586526020860152840152151560608301526080820152f35b9550509250505060a0823d82116101a1575b8161016760a093836107e1565b8101031261019d5760a0925081516020830151928281015192608061018e60608401610879565b9201519294939192935f610128565b8280fd5b3d915061015a565b505051903d90823e3d90fd5b9190503461019d5760206101e96101cb36610790565b8651637ece152360e01b815297889586959094929392918601610886565b03817f00000000000000000000000000000000000000000000000000000000000000006001600160a01b03165afa91821561026657839261022f575b6020838351908152f35b9091506020813d821161025e575b8161024a602093836107e1565b8101031261019d576020925051905f610225565b3d915061023d565b81513d85823e3d90fd5b8383346100af576102803661074c565b949092939661028d610837565b821561049e5783156104905781516323b872dd60e01b88523382526001600160a01b037f000000000000000000000000000000000000000000000000000000000000000081166024819052604486905291907f000000000000000000000000000000000000000000000000000000000000000060208b60648180855af160018c5114811615610471575b8387528b6060521561045957505050803b15610455578761035d81928b8651948580948193633eb1f38360e11b8352338a84015260a060248401528d60a4840191610817565b9c8a60448301528b606483015215159c8d608483015203925af1801561044b576103f7575b50506103bc7f25a28f6a15bf50e78ef83e0fdecfdbdbfe804df1a65a5006e6946b23a6ddf42f959697825195608087526080870191610817565b95602085015283015260608201528033930390a260017f9b779b17422d0df92223018b32b4d1fa46e071723d6817e2486d003becc55f005580f35b67ffffffffffffffff8199989299116104385782529596506103bc7f25a28f6a15bf50e78ef83e0fdecfdbdbfe804df1a65a5006e6946b23a6ddf42f610382565b634e487b7160e01b825260418952602482fd5b83513d8a823e3d90fd5b8780fd5b635274afe760e01b8352169281019290925250602490fd5b600181151661048757813b15153d151616610317565b833d8d823e3d90fd5b90516335e367c160e11b8152fd5b905163162908e360e11b8152fd5b839150346100af57826104df6104c136610790565b85516350987bd560e01b815296879586959094929392918601610886565b03817f00000000000000000000000000000000000000000000000000000000000000006001600160a01b03165afa90811561056d5782809261052c575b5050825191151582526020820152f35b915091508282813d8311610566575b61054581836107e1565b810103126105635750602061055982610879565b910151838061051c565b80fd5b503d61053b565b83513d84823e3d90fd5b5050346100af57816003193601126100af57517f00000000000000000000000000000000000000000000000000000000000000006001600160a01b03168152602090f35b9190503461019d576105cc3661074c565b959293946105db929192610837565b80519363a45cbbdb60e01b8552339085015260c060248501526020848061060660c48201898b610817565b6044820186905260648201879052991515608482018190523360a48301529903818b7f00000000000000000000000000000000000000000000000000000000000000006001600160a01b03165af19384156107105788946106d9575b506106997f7aee70d22f2501b4c21fa372fadc0e835976335a46cc77fc5bd5d29d01fa2cd69682519660a0885260a0880191610817565b966020860152840152606083015260808201528033930390a260017f9b779b17422d0df92223018b32b4d1fa46e071723d6817e2486d003becc55f005580f35b9593506020863d8211610708575b816106f4602093836107e1565b810103126104555794519294610699610662565b3d91506106e7565b81513d8a823e3d90fd5b9181601f840112156107485782359167ffffffffffffffff8311610748576020838186019501011161074857565b5f80fd5b6080600319820112610748576004359067ffffffffffffffff8211610748576107779160040161071a565b9091602435906044359060643580151581036107485790565b906060600319830112610748576004356001600160a01b038116810361074857916024359067ffffffffffffffff8211610748576107d09160040161071a565b909160443580151581036107485790565b90601f8019910116810190811067ffffffffffffffff82111761080357604052565b634e487b7160e01b5f52604160045260245ffd5b908060209392818452848401375f828201840152601f01601f1916010190565b7f9b779b17422d0df92223018b32b4d1fa46e071723d6817e2486d003becc55f0060028154146108675760029055565b604051633ee5aeb560e01b8152600490fd5b5190811515820361074857565b92916040926108ad9296959660018060a01b03168552606060208601526060850191610817565b93151591015256fea264697066735822122039fe4333399a35cfb2c8c983a906464d39c2c19d15b5a9a35d11d51f9a5c258e64736f6c6343000814003300000000000000000000000022657bc91a172f29d7ec50ef9df5db9fb9d324c40000000000000000000000001f0480a38a48c4a75ace8fd4d9fa6bbab43d230f",
        "nonce": "0x12",
        "chainId": "0x2105"
      },
      "additionalContracts": [],
      "isFixedGasLimit": false
    },
    {
      "hash": "0x7fec5909ff4ab20cdd7ee1d54df1cb9d5d8a9c7c5790b60fbea383a357cb6d56",
      "transactionType": "CALL",
      "contractName": "Vault",
      "contractAddress": "0x1f0480a38a48c4a75ace8fd4d9fa6bbab43d230f",
      "function": "setRouter(address)",
      "arguments": [
        "0x65428decD1ec09CFAA7457aCeB1991dd976E07c3"
      ],
      "transaction": {
        "from": "0xd5011cddbe45a366b76c946575bd4b6f907f580f",
        "to": "0x1f0480a38a48c4a75ace8fd4d9fa6bbab43d230f",
        "gas": "0x11089",
        "value": "0x0",
        "input": "0xc0d7865500000000000000000000000065428decd1ec09cfaa7457aceb1991dd976e07c3",
        "nonce": "0x13",
        "chainId": "0x2105"
      },
      "additionalContracts": [],
      "isFixedGasLimit": false
    },
    {
      "hash": "0x39a76640f753e0d59150cf11c2c8bd00900ce850ec83a735a40a8ca517bdbf17",
      "transactionType": "CALL",
      "contractName": "eUSD",
      "contractAddress": "0x22657bc91a172f29d7ec50ef9df5db9fb9d324c4",
      "function": "approve(address,uint256)",
      "arguments": [
        "0x1f0480a38A48C4A75AcE8fD4D9FA6BbaB43D230F",
        "500000000000000000000000"
      ],
      "transaction": {
        "from": "0xd5011cddbe45a366b76c946575bd4b6f907f580f",
        "to": "0x22657bc91a172f29d7ec50ef9df5db9fb9d324c4",
        "gas": "0xf82d",
        "value": "0x0",
        "input": "0x095ea7b30000000000000000000000001f0480a38a48c4a75ace8fd4d9fa6bbab43d230f0000000000000000000000000000000000000000000069e10de76676d0800000",
        "nonce": "0x14",
        "chainId": "0x2105"
      },
      "additionalContracts": [],
      "isFixedGasLimit": false
    },
    {
      "hash": "0x859e8d9c6d1fe036eae216fb9cf291653560f21d4442cce765a853c3d6dcbcb2",
      "transactionType": "CALL",
      "contractName": "Vault",
      "contractAddress": "0x1f0480a38a48c4a75ace8fd4d9fa6bbab43d230f",
      "function": "addLiquidity(uint256)",
      "arguments": [
        "500000000000000000000000"
      ],
      "transaction": {
        "from": "0xd5011cddbe45a366b76c946575bd4b6f907f580f",
        "to": "0x1f0480a38a48c4a75ace8fd4d9fa6bbab43d230f",
        "gas": "0x1b369",
        "value": "0x0",
        "input": "0x51c6590a0000000000000000000000000000000000000000000069e10de76676d0800000",
        "nonce": "0x15",
        "chainId": "0x2105"
      },
      "additionalContracts": [],
      "isFixedGasLimit": false
    },
    {
      "hash": "0x6e3625f24afcdfd8b0583e9b4a7f8f090a512fd160c8f61d1c23f150e2d96108",
      "transactionType": "CALL",
      "contractName": "PriceOracle",
      "contractAddress": "0xfb0317b9e5ac17419dd873b9ba9d8b25be2e662b",
      "function": "transferOwnership(address)",
      "arguments": [
        "0xD5011cddBE45A366B76C946575BD4B6f907F580F"
      ],
      "transaction": {
        "from": "0xd5011cddbe45a366b76c946575bd4b6f907f580f",
        "to": "0xfb0317b9e5ac17419dd873b9ba9d8b25be2e662b",
        "gas": "0x8b51",
        "value": "0x0",
        "input": "0xf2fde38b000000000000000000000000d5011cddbe45a366b76c946575bd4b6f907f580f",
        "nonce": "0x16",
        "chainId": "0x2105"
      },
      "additionalContracts": [],
      "isFixedGasLimit": false
    }
  ],
  "receipts": [
    {
      "status": "0x1",
      "cumulativeGasUsed": "0x10d4501",
      "logs": [
        {
          "address": "0x22657bc91a172f29d7ec50ef9df5db9fb9d324c4",
          "topics": [
            "0x8be0079c531659141344cd1fd0a4f28419497f9722a3daafe3b4186f6b6457e0",
            "0x0000000000000000000000000000000000000000000000000000000000000000",
            "0x000000000000000000000000d5011cddbe45a366b76c946575bd4b6f907f580f"
          ],
          "data": "0x",
          "blockHash": "0x0000000000000000000000000000000000000000000000000000000000000000",
          "blockNumber": "0x2af24b0",
          "blockTimestamp": "0x69e8a643",
          "transactionHash": "0x380b429ca4446ec1de5c9035d3a61a4cb08e886c2a2f2372ca8e4cc51bb8eae1",
          "transactionIndex": "0x45",
          "logIndex": "0x199",
          "removed": false
        },
        {
          "address": "0x22657bc91a172f29d7ec50ef9df5db9fb9d324c4",
          "topics": [
            "0xddf252ad1be2c89b69c2b068fc378daa952ba7f163c4a11628f55a4df523b3ef",
            "0x0000000000000000000000000000000000000000000000000000000000000000",
            "0x000000000000000000000000d5011cddbe45a366b76c946575bd4b6f907f580f"
          ],
          "data": "0x00000000000000000000000000000000000000000000d3c21bcecceda1000000",
          "blockHash": "0x0000000000000000000000000000000000000000000000000000000000000000",
          "blockNumber": "0x2af24b0",
          "blockTimestamp": "0x69e8a643",
          "transactionHash": "0x380b429ca4446ec1de5c9035d3a61a4cb08e886c2a2f2372ca8e4cc51bb8eae1",
          "transactionIndex": "0x45",
          "logIndex": "0x19a",
          "removed": false
        }
      ],
      "logsBloom": "0x00000000000000000000000000000000000000000000000000800000000000000000000000000000000000000000000000000000000000000000000080000000000000000000000000000008000000000001000000000000000000000000000000000000020000000400000000000840000000000000000000000010000000400000000000000000000000000000000000000000000000000000000000000000000000000000000000000080000000000000000000000000000000000000000000000002000000000000000000000000001000000000000000000000000020000000400000000000000000000000000000000000000000000000000000000000",
      "type": "0x2",
      "transactionHash": "0x380b429ca4446ec1de5c9035d3a61a4cb08e886c2a2f2372ca8e4cc51bb8eae1",
      "transactionIndex": "0x45",
      "blockHash": "0x0000000000000000000000000000000000000000000000000000000000000000",
      "blockNumber": "0x2af24b0",
      "gasUsed": "0xca26a",
      "effectiveGasPrice": "0x4e5ab1",
      "blobGasUsed": "0x5dba8",
      "from": "0xd5011cddbe45a366b76c946575bd4b6f907f580f",
      "to": null,
      "contractAddress": "0x22657bc91a172f29d7ec50ef9df5db9fb9d324c4",
      "daFootprintGasScalar": "0x94",
      "l1BaseFeeScalar": "0x8dd",
      "l1BlobBaseFee": "0x44ca4d7",
      "l1BlobBaseFeeScalar": "0x101c12",
      "l1Fee": "0x2d7b219ef",
      "l1GasPrice": "0x4b69f1be",
      "l1GasUsed": "0xa22e"
    },
    {
      "status": "0x1",
      "cumulativeGasUsed": "0x124a91c",
      "logs": [
        {
          "address": "0xfb0317b9e5ac17419dd873b9ba9d8b25be2e662b",
          "topics": [
            "0x8be0079c531659141344cd1fd0a4f28419497f9722a3daafe3b4186f6b6457e0",
            "0x0000000000000000000000000000000000000000000000000000000000000000",
            "0x000000000000000000000000d5011cddbe45a366b76c946575bd4b6f907f580f"
          ],
          "data": "0x",
          "blockHash": "0x0000000000000000000000000000000000000000000000000000000000000000",
          "blockNumber": "0x2af24b0",
          "blockTimestamp": "0x69e8a643",
          "transactionHash": "0xe39a525ef18996cbc43abb6dda9226e9569028398c5d72c49f8c1d0ad2def1b6",
          "transactionIndex": "0x4b",
          "logIndex": "0x1b2",
          "removed": false
        }
      ],
      "logsBloom": "0x00000000000000000000000000000000000000000000000000800000000000000000000000000000000000000000000000000000000000000000000080200000800000000000000000000000000000000001000000000000000000000000000000000000020000000000000000000840000000000000000000000000000000400000000000000000000000000000000000000000000000000000000000000000002000000000000000000080000000000000000000000000000000000000000000000000000000000000000000000000000000000000000000000000000020000000000000000000000000000000000000000000000000000000000000000000",
      "type": "0x2",
      "transactionHash": "0xe39a525ef18996cbc43abb6dda9226e9569028398c5d72c49f8c1d0ad2def1b6",
      "transactionIndex": "0x4b",
      "blockHash": "0x0000000000000000000000000000000000000000000000000000000000000000",
      "blockNumber": "0x2af24b0",
      "gasUsed": "0xbeb44",
      "effectiveGasPrice": "0x4e5ab1",
      "blobGasUsed": "0x522a8",
      "from": "0xd5011cddbe45a366b76c946575bd4b6f907f580f",
      "to": null,
      "contractAddress": "0xfb0317b9e5ac17419dd873b9ba9d8b25be2e662b",
      "daFootprintGasScalar": "0x94",
      "l1BaseFeeScalar": "0x8dd",
      "l1BlobBaseFee": "0x44ca4d7",
      "l1BlobBaseFeeScalar": "0x101c12",
      "l1Fee": "0x31df8e1ae",
      "l1GasPrice": "0x4b69f1be",
      "l1GasUsed": "0x8e28"
    },
    {
      "status": "0x1",
      "cumulativeGasUsed": "0x126c785",
      "logs": [
        {
          "address": "0xfb0317b9e5ac17419dd873b9ba9d8b25be2e662b",
          "topics": [
            "0x724df0596d75f7cca867e95fdadd6c1397e175dc9a54f0a3f46167ec8577ecae",
            "0xe98e2830be1a7e4156d656a7505e65d08c67660dc618072422e9c78053c261e9"
          ],
          "data": "0x",
          "blockHash": "0x0000000000000000000000000000000000000000000000000000000000000000",
          "blockNumber": "0x2af24b0",
          "blockTimestamp": "0x69e8a643",
          "transactionHash": "0xce2b63d7453091aff9e395d3f93f511ac708e8984916a5242a32654e9dec2468",
          "transactionIndex": "0x4c",
          "logIndex": "0x1b3",
          "removed": false
        },
        {
          "address": "0xfb0317b9e5ac17419dd873b9ba9d8b25be2e662b",
          "topics": [
            "0x6e838f2a03741f5f2aff5480963b672fb0dd8430a4dc75db9b67ce009733c9fe",
            "0xe98e2830be1a7e4156d656a7505e65d08c67660dc618072422e9c78053c261e9"
          ],
          "data": "0x000000000000000000000000000000000000000000000000000007bb0f7b08000000000000000000000000000000000000000000000000000000000069e8a643",
          "blockHash": "0x0000000000000000000000000000000000000000000000000000000000000000",
          "blockNumber": "0x2af24b0",
          "blockTimestamp": "0x69e8a643",
          "transactionHash": "0xce2b63d7453091aff9e395d3f93f511ac708e8984916a5242a32654e9dec2468",
          "transactionIndex": "0x4c",
          "logIndex": "0x1b4",
          "removed": false
        }
      ],
      "logsBloom": "0x00000000000000000000000000000000000000000000000000000000000000000000000000000000002000000000000000000000000000000000000000200000800000000000000000000000000000000000000000000000000000000000000000000000000000000000000000000000000000000000000080000000000000000000000000000000000000000000000000000000000000000000000000000000002000400000000000000000000000000000000000000000000000400000000000000000000000000000000800000000000000000000000000000000000000000000000000000000000100000000000000000000000800000000040000400000",
      "type": "0x2",
      "transactionHash": "0xce2b63d7453091aff9e395d3f93f511ac708e8984916a5242a32654e9dec2468",
      "transactionIndex": "0x4c",
      "blockHash": "0x0000000000000000000000000000000000000000000000000000000000000000",
      "blockNumber": "0x2af24b0",
      "gasUsed": "0x21e69",
      "effectiveGasPrice": "0x4e5ab1",
      "blobGasUsed": "0x39d0",
      "from": "0xd5011cddbe45a366b76c946575bd4b6f907f580f",
      "to": "0xfb0317b9e5ac17419dd873b9ba9d8b25be2e662b",
      "contractAddress": null,
      "daFootprintGasScalar": "0x94",
      "l1BaseFeeScalar": "0x8dd",
      "l1BlobBaseFee": "0x44ca4d7",
      "l1BlobBaseFeeScalar": "0x101c12",
      "l1Fee": "0x31df8e1ae",
      "l1GasPrice": "0x4b69f1be",
      "l1GasUsed": "0x640"
    },
    {
      "status": "0x1",
      "cumulativeGasUsed": "0x128a316",
      "logs": [
        {
          "address": "0xfb0317b9e5ac17419dd873b9ba9d8b25be2e662b",
          "topics": [
            "0x724df0596d75f7cca867e95fdadd6c1397e175dc9a54f0a3f46167ec8577ecae",
            "0xaaaebeba3810b1e6b70781f14b2d72c1cb89c0b2b320c43bb67ff79f562f5ff4"
          ],
          "data": "0x",
          "blockHash": "0x0000000000000000000000000000000000000000000000000000000000000000",
          "blockNumber": "0x2af24b0",
          "blockTimestamp": "0x69e8a643",
          "transactionHash": "0xdb65a9d17a86e9df5fdb8c797086f9b23c9b50ac9660d1efc2f342d08318040b",
          "transactionIndex": "0x4d",
          "logIndex": "0x1b5",
          "removed": false
        },
        {
          "address": "0xfb0317b9e5ac17419dd873b9ba9d8b25be2e662b",
          "topics": [
            "0x6e838f2a03741f5f2aff5480963b672fb0dd8430a4dc75db9b67ce009733c9fe",
            "0xaaaebeba3810b1e6b70781f14b2d72c1cb89c0b2b320c43bb67ff79f562f5ff4"
          ],
          "data": "0x0000000000000000000000000000000000000000000000000000002e90edd0000000000000000000000000000000000000000000000000000000000069e8a643",
          "blockHash": "0x0000000000000000000000000000000000000000000000000000000000000000",
          "blockNumber": "0x2af24b0",
          "blockTimestamp": "0x69e8a643",
          "transactionHash": "0xdb65a9d17a86e9df5fdb8c797086f9b23c9b50ac9660d1efc2f342d08318040b",
          "transactionIndex": "0x4d",
          "logIndex": "0x1b6",
          "removed": false
        }
      ],
      "logsBloom": "0x00000000000000000000000000000000000000000000000000000000000000000000000000000000000000000000000000000000000000000000000000200000800000000000000000000000000000000000000000000000000000000000000000000000000000000000000000000000000000040000000080000000000000000000000000000000000000008000000000000000000000000000000000000000002000400000000000000000000000000000000000000000000000400000000000000000000000000000000800000000000000000000000000001000000000000000000000000000000000000000000000000000000800000000040000000000",
      "type": "0x2",
      "transactionHash": "0xdb65a9d17a86e9df5fdb8c797086f9b23c9b50ac9660d1efc2f342d08318040b",
      "transactionIndex": "0x4d",
      "blockHash": "0x0000000000000000000000000000000000000000000000000000000000000000",
      "blockNumber": "0x2af24b0",
      "gasUsed": "0x1db91",
      "effectiveGasPrice": "0x4e5ab1",
      "blobGasUsed": "0x39d0",
      "from": "0xd5011cddbe45a366b76c946575bd4b6f907f580f",
      "to": "0xfb0317b9e5ac17419dd873b9ba9d8b25be2e662b",
      "contractAddress": null,
      "daFootprintGasScalar": "0x94",
      "l1BaseFeeScalar": "0x8dd",
      "l1BlobBaseFee": "0x44ca4d7",
      "l1BlobBaseFeeScalar": "0x101c12",
      "l1Fee": "0x31df8e1ae",
      "l1GasPrice": "0x4b69f1be",
      "l1GasUsed": "0x640"
    },
    {
      "status": "0x1",
      "cumulativeGasUsed": "0x12a7ea7",
      "logs": [
        {
          "address": "0xfb0317b9e5ac17419dd873b9ba9d8b25be2e662b",
          "topics": [
            "0x724df0596d75f7cca867e95fdadd6c1397e175dc9a54f0a3f46167ec8577ecae",
            "0x0a3ec4fc70eaf64faf6eeda4e9b2bd4742a785464053aa23afad8bd24650e86f"
          ],
          "data": "0x",
          "blockHash": "0x0000000000000000000000000000000000000000000000000000000000000000",
          "blockNumber": "0x2af24b0",
          "blockTimestamp": "0x69e8a643",
          "transactionHash": "0xbe20efdcbad84c21e7a3e7f43d17327321bfd62417fe91c0e85ce16f68541f04",
          "transactionIndex": "0x4e",
          "logIndex": "0x1b7",
          "removed": false
        },
        {
          "address": "0xfb0317b9e5ac17419dd873b9ba9d8b25be2e662b",
          "topics": [
            "0x6e838f2a03741f5f2aff5480963b672fb0dd8430a4dc75db9b67ce009733c9fe",
            "0x0a3ec4fc70eaf64faf6eeda4e9b2bd4742a785464053aa23afad8bd24650e86f"
          ],
          "data": "0x0000000000000000000000000000000000000000000000000000000306dc42000000000000000000000000000000000000000000000000000000000069e8a643",
          "blockHash": "0x0000000000000000000000000000000000000000000000000000000000000000",
          "blockNumber": "0x2af24b0",
          "blockTimestamp": "0x69e8a643",
          "transactionHash": "0xbe20efdcbad84c21e7a3e7f43d17327321bfd62417fe91c0e85ce16f68541f04",
          "transactionIndex": "0x4e",
          "logIndex": "0x1b8",
          "removed": false
        }
      ],
      "logsBloom": "0x00000000000000000000000000000000000000000000000000000000000000000000000000000002000000000000000000000000000000000000000000200000800000000000000000000000000000000000000000000000000000000000000000000000000000000000000000000000000000000000000080000000000000000000000000000000000000000000000000000000000000000000000000000000002000400000000000000000000000000000000000000000000000400000000000000000000000000000000800000000000008000000000000000000000040000000000000000000000000000000000000000000000800000000040000000000",
      "type": "0x2",
      "transactionHash": "0xbe20efdcbad84c21e7a3e7f43d17327321bfd62417fe91c0e85ce16f68541f04",
      "transactionIndex": "0x4e",
      "blockHash": "0x0000000000000000000000000000000000000000000000000000000000000000",
      "blockNumber": "0x2af24b0",
      "gasUsed": "0x1db91",
      "effectiveGasPrice": "0x4e5ab1",
      "blobGasUsed": "0x39d0",
      "from": "0xd5011cddbe45a366b76c946575bd4b6f907f580f",
      "to": "0xfb0317b9e5ac17419dd873b9ba9d8b25be2e662b",
      "contractAddress": null,
      "daFootprintGasScalar": "0x94",
      "l1BaseFeeScalar": "0x8dd",
      "l1BlobBaseFee": "0x44ca4d7",
      "l1BlobBaseFeeScalar": "0x101c12",
      "l1Fee": "0x31df8e1ae",
      "l1GasPrice": "0x4b69f1be",
      "l1GasUsed": "0x640"
    },
    {
      "status": "0x1",
      "cumulativeGasUsed": "0x13f14e2",
      "logs": [
        {
          "address": "0xfb0317b9e5ac17419dd873b9ba9d8b25be2e662b",
          "topics": [
            "0x724df0596d75f7cca867e95fdadd6c1397e175dc9a54f0a3f46167ec8577ecae",
            "0x3ed03c38e59dc60c7b69c2a4bf68f9214acd953252b5a90e8f5f59583e9bc3ae"
          ],
          "data": "0x",
          "blockHash": "0x0000000000000000000000000000000000000000000000000000000000000000",
          "blockNumber": "0x2af24b0",
          "blockTimestamp": "0x69e8a643",
          "transactionHash": "0xd3056faab3562e5dfc784514f9395f4284d21c2e61b7cac3841137d3ef2ce2ba",
          "transactionIndex": "0x5a",
          "logIndex": "0x1d3",
          "removed": false
        },
        {
          "address": "0xfb0317b9e5ac17419dd873b9ba9d8b25be2e662b",
          "topics": [
            "0x6e838f2a03741f5f2aff5480963b672fb0dd8430a4dc75db9b67ce009733c9fe",
            "0x3ed03c38e59dc60c7b69c2a4bf68f9214acd953252b5a90e8f5f59583e9bc3ae"
          ],
          "data": "0x0000000000000000000000000000000000000000000000000000000df84758000000000000000000000000000000000000000000000000000000000069e8a643",
          "blockHash": "0x0000000000000000000000000000000000000000000000000000000000000000",
          "blockNumber": "0x2af24b0",
          "blockTimestamp": "0x69e8a643",
          "transactionHash": "0xd3056faab3562e5dfc784514f9395f4284d21c2e61b7cac3841137d3ef2ce2ba",
          "transactionIndex": "0x5a",
          "logIndex": "0x1d4",
          "removed": false
        }
      ],
      "logsBloom": "0x00000000000000000000000000000000000000000000000000000000000000000000000000000000000100000000000000000000000000000000000000200000800000000000000000000000000000000000000000000000000000000000000000000000000000000000000000000000000000000000000080000000000000000020000000000000000000000000000000000000000000000000000000008000002000400000000000000000000000000000000000000000000000400000000000000000000000000000000800000000000000000000000000000000000000000000000000000000000000000000000000000000000800000000040000000000",
      "type": "0x2",
      "transactionHash": "0xd3056faab3562e5dfc784514f9395f4284d21c2e61b7cac3841137d3ef2ce2ba",
      "transactionIndex": "0x5a",
      "blockHash": "0x0000000000000000000000000000000000000000000000000000000000000000",
      "blockNumber": "0x2af24b0",
      "gasUsed": "0x1db91",
      "effectiveGasPrice": "0x4e5ab1",
      "blobGasUsed": "0x39d0",
      "from": "0xd5011cddbe45a366b76c946575bd4b6f907f580f",
      "to": "0xfb0317b9e5ac17419dd873b9ba9d8b25be2e662b",
      "contractAddress": null,
      "daFootprintGasScalar": "0x94",
      "l1BaseFeeScalar": "0x8dd",
      "l1BlobBaseFee": "0x44ca4d7",
      "l1BlobBaseFeeScalar": "0x101c12",
      "l1Fee": "0x12008b225b",
      "l1GasPrice": "0x4b69f1be",
      "l1GasUsed": "0x640"
    },
    {
      "status": "0x1",
      "cumulativeGasUsed": "0x140f067",
      "logs": [
        {
          "address": "0xfb0317b9e5ac17419dd873b9ba9d8b25be2e662b",
          "topics": [
            "0x724df0596d75f7cca867e95fdadd6c1397e175dc9a54f0a3f46167ec8577ecae",
            "0xaeb724422620edb430dcaf22aeeff2e9388a578c02754cd08699652fb76035c7"
          ],
          "data": "0x",
          "blockHash": "0x0000000000000000000000000000000000000000000000000000000000000000",
          "blockNumber": "0x2af24b0",
          "blockTimestamp": "0x69e8a643",
          "transactionHash": "0xec4c56e75e213345219fa984f5f99e82cbffcf9c5eab752938efe39c28de3c4e",
          "transactionIndex": "0x5b",
          "logIndex": "0x1d5",
          "removed": false
        },
        {
          "address": "0xfb0317b9e5ac17419dd873b9ba9d8b25be2e662b",
          "topics": [
            "0x6e838f2a03741f5f2aff5480963b672fb0dd8430a4dc75db9b67ce009733c9fe",
            "0xaeb724422620edb430dcaf22aeeff2e9388a578c02754cd08699652fb76035c7"
          ],
          "data": "0x000000000000000000000000000000000000000000000000000000000bebc2000000000000000000000000000000000000000000000000000000000069e8a643",
          "blockHash": "0x0000000000000000000000000000000000000000000000000000000000000000",
          "blockNumber": "0x2af24b0",
          "blockTimestamp": "0x69e8a643",
          "transactionHash": "0xec4c56e75e213345219fa984f5f99e82cbffcf9c5eab752938efe39c28de3c4e",
          "transactionIndex": "0x5b",
          "logIndex": "0x1d6",
          "removed": false
        }
      ],
      "logsBloom": "0x00000000000000000000000000000000000000000000000000000000000000000000000000000000000000000000000000000000000000000000000000200000800000000000000000000000000000000000000004000000000000000000000000000000000000000000000000000000000000000000000080000000000000000000000000000000000000000000000000000000000000000000000000000000002000400000000000000000000000000000000000000000000000400000000000000000000000000000000800000000000000000000000000020000000000000000000000000000000000000000000000000000000800000000040000000008",
      "type": "0x2",
      "transactionHash": "0xec4c56e75e213345219fa984f5f99e82cbffcf9c5eab752938efe39c28de3c4e",
      "transactionIndex": "0x5b",
      "blockHash": "0x0000000000000000000000000000000000000000000000000000000000000000",
      "blockNumber": "0x2af24b0",
      "gasUsed": "0x1db85",
      "effectiveGasPrice": "0x4e5ab1",
      "blobGasUsed": "0x39d0",
      "from": "0xd5011cddbe45a366b76c946575bd4b6f907f580f",
      "to": "0xfb0317b9e5ac17419dd873b9ba9d8b25be2e662b",
      "contractAddress": null,
      "daFootprintGasScalar": "0x94",
      "l1BaseFeeScalar": "0x8dd",
      "l1BlobBaseFee": "0x44ca4d7",
      "l1BlobBaseFeeScalar": "0x101c12",
      "l1Fee": "0x12008b225b",
      "l1GasPrice": "0x4b69f1be",
      "l1GasUsed": "0x640"
    },
    {
      "status": "0x1",
      "cumulativeGasUsed": "0x142cc04",
      "logs": [
        {
          "address": "0xfb0317b9e5ac17419dd873b9ba9d8b25be2e662b",
          "topics": [
            "0x724df0596d75f7cca867e95fdadd6c1397e175dc9a54f0a3f46167ec8577ecae",
            "0x9a3f52b1b31ae58da40209f38379e78c3a0756495a0f585d0b3c84a9e9718f9d"
          ],
          "data": "0x",
          "blockHash": "0x0000000000000000000000000000000000000000000000000000000000000000",
          "blockNumber": "0x2af24b0",
          "blockTimestamp": "0x69e8a643",
          "transactionHash": "0x1fbb1600667424372ad66dc04de539a9918b1cf060d3906aca40c2555048d389",
          "transactionIndex": "0x5c",
          "logIndex": "0x1d7",
          "removed": false
        },
        {
          "address": "0xfb0317b9e5ac17419dd873b9ba9d8b25be2e662b",
          "topics": [
            "0x6e838f2a03741f5f2aff5480963b672fb0dd8430a4dc75db9b67ce009733c9fe",
            "0x9a3f52b1b31ae58da40209f38379e78c3a0756495a0f585d0b3c84a9e9718f9d"
          ],
          "data": "0x00000000000000000000000000000000000000000000000000000000010366400000000000000000000000000000000000000000000000000000000069e8a643",
          "blockHash": "0x0000000000000000000000000000000000000000000000000000000000000000",
          "blockNumber": "0x2af24b0",
          "blockTimestamp": "0x69e8a643",
          "transactionHash": "0x1fbb1600667424372ad66dc04de539a9918b1cf060d3906aca40c2555048d389",
          "transactionIndex": "0x5c",
          "logIndex": "0x1d8",
          "removed": false
        }
      ],
      "logsBloom": "0x00000000000000000000000000000000000000000000040000000000000000000000000000000000000000000000000000000000000000000000000000200000800000000000000000000000000000000000000000000000000000000000000000000000000000000000000000000000000000000000000080000000000000000000000000000000000000000000000000000000000000000000000000000000002000400001000000000000000000000010000000000000000000400000000000000000000000000000000800000000000000000000000000000000000000000000000000000000000000000000000000000000000800000000040000000000",
      "type": "0x2",
      "transactionHash": "0x1fbb1600667424372ad66dc04de539a9918b1cf060d3906aca40c2555048d389",
      "transactionIndex": "0x5c",
      "blockHash": "0x0000000000000000000000000000000000000000000000000000000000000000",
      "blockNumber": "0x2af24b0",
      "gasUsed": "0x1db9d",
      "effectiveGasPrice": "0x4e5ab1",
      "blobGasUsed": "0x39d0",
      "from": "0xd5011cddbe45a366b76c946575bd4b6f907f580f",
      "to": "0xfb0317b9e5ac17419dd873b9ba9d8b25be2e662b",
      "contractAddress": null,
      "daFootprintGasScalar": "0x94",
      "l1BaseFeeScalar": "0x8dd",
      "l1BlobBaseFee": "0x44ca4d7",
      "l1BlobBaseFeeScalar": "0x101c12",
      "l1Fee": "0x12008b225b",
      "l1GasPrice": "0x4b69f1be",
      "l1GasUsed": "0x640"
    },
    {
      "status": "0x1",
      "cumulativeGasUsed": "0x144a795",
      "logs": [
        {
          "address": "0xfb0317b9e5ac17419dd873b9ba9d8b25be2e662b",
          "topics": [
            "0x724df0596d75f7cca867e95fdadd6c1397e175dc9a54f0a3f46167ec8577ecae",
            "0x4e1e6d8aa1ff8f43f933718e113229b0ec6b091b699f7a8671bcbd606da36eea"
          ],
          "data": "0x",
          "blockHash": "0x0000000000000000000000000000000000000000000000000000000000000000",
          "blockNumber": "0x2af24b0",
          "blockTimestamp": "0x69e8a643",
          "transactionHash": "0x2495b1069b3f387362aa1f7599e377af4fcd6b059b51de44bcdf36fb5a4ee7dc",
          "transactionIndex": "0x5d",
          "logIndex": "0x1d9",
          "removed": false
        },
        {
          "address": "0xfb0317b9e5ac17419dd873b9ba9d8b25be2e662b",
          "topics": [
            "0x6e838f2a03741f5f2aff5480963b672fb0dd8430a4dc75db9b67ce009733c9fe",
            "0x4e1e6d8aa1ff8f43f933718e113229b0ec6b091b699f7a8671bcbd606da36eea"
          ],
          "data": "0x00000000000000000000000000000000000000000000000000000000042c1d800000000000000000000000000000000000000000000000000000000069e8a643",
          "blockHash": "0x0000000000000000000000000000000000000000000000000000000000000000",
          "blockNumber": "0x2af24b0",
          "blockTimestamp": "0x69e8a643",
          "transactionHash": "0x2495b1069b3f387362aa1f7599e377af4fcd6b059b51de44bcdf36fb5a4ee7dc",
          "transactionIndex": "0x5d",
          "logIndex": "0x1da",
          "removed": false
        }
      ],
      "logsBloom": "0x00000000000000000000000000000000000000000000000000000000000000800000000000000000000000000000000000000000000000000000000000200000800000000000000000000000000000000000000000000000000000000000000000000000000000000000000000000000000000000000000080000000000000000000000000000000000000400000000000000000000000000000000000020000002000400000000000000000000000000000000000000000000000400000000000000000000000000000000800000000000000000000000000000000000000000000000000000000000000000000000000000000000800000000040000000000",
      "type": "0x2",
      "transactionHash": "0x2495b1069b3f387362aa1f7599e377af4fcd6b059b51de44bcdf36fb5a4ee7dc",
      "transactionIndex": "0x5d",
      "blockHash": "0x0000000000000000000000000000000000000000000000000000000000000000",
      "blockNumber": "0x2af24b0",
      "gasUsed": "0x1db91",
      "effectiveGasPrice": "0x4e5ab1",
      "blobGasUsed": "0x39d0",
      "from": "0xd5011cddbe45a366b76c946575bd4b6f907f580f",
      "to": "0xfb0317b9e5ac17419dd873b9ba9d8b25be2e662b",
      "contractAddress": null,
      "daFootprintGasScalar": "0x94",
      "l1BaseFeeScalar": "0x8dd",
      "l1BlobBaseFee": "0x44ca4d7",
      "l1BlobBaseFeeScalar": "0x101c12",
      "l1Fee": "0x12008b225b",
      "l1GasPrice": "0x4b69f1be",
      "l1GasUsed": "0x640"
    },
    {
      "status": "0x1",
      "cumulativeGasUsed": "0x1468326",
      "logs": [
        {
          "address": "0xfb0317b9e5ac17419dd873b9ba9d8b25be2e662b",
          "topics": [
            "0x724df0596d75f7cca867e95fdadd6c1397e175dc9a54f0a3f46167ec8577ecae",
            "0x49f18ed70c3220abb735efdc7fce309e384d008d4bc14c846dcce9e31050e29b"
          ],
          "data": "0x",
          "blockHash": "0x0000000000000000000000000000000000000000000000000000000000000000",
          "blockNumber": "0x2af24b0",
          "blockTimestamp": "0x69e8a643",
          "transactionHash": "0x8a49646d89a961a6ffa61ccde15e716f4c74d4dc86d62f464d3f2722be24d046",
          "transactionIndex": "0x5e",
          "logIndex": "0x1db",
          "removed": false
        },
        {
          "address": "0xfb0317b9e5ac17419dd873b9ba9d8b25be2e662b",
          "topics": [
            "0x6e838f2a03741f5f2aff5480963b672fb0dd8430a4dc75db9b67ce009733c9fe",
            "0x49f18ed70c3220abb735efdc7fce309e384d008d4bc14c846dcce9e31050e29b"
          ],
          "data": "0x00000000000000000000000000000000000000000000000000000000773594000000000000000000000000000000000000000000000000000000000069e8a643",
          "blockHash": "0x0000000000000000000000000000000000000000000000000000000000000000",
          "blockNumber": "0x2af24b0",
          "blockTimestamp": "0x69e8a643",
          "transactionHash": "0x8a49646d89a961a6ffa61ccde15e716f4c74d4dc86d62f464d3f2722be24d046",
          "transactionIndex": "0x5e",
          "logIndex": "0x1dc",
          "removed": false
        }
      ],
      "logsBloom": "0x00000000000000000000000000000000000000000000000000000080000000000000000000000000000000000000000000000000000000000000000000200000800000000000000000000000000000000000000000000000000000000000000000000000000000000000000000000000000000000000000080000000000000000000000000000001000000000000000000000000000000000000000004000000002000400000000000000000000000000000000000000000000000400000000000000000000000000000000800000000000000000000000000000000000000000000000000000000000000000000000000000000000800000000040000000000",
      "type": "0x2",
      "transactionHash": "0x8a49646d89a961a6ffa61ccde15e716f4c74d4dc86d62f464d3f2722be24d046",
      "transactionIndex": "0x5e",
      "blockHash": "0x0000000000000000000000000000000000000000000000000000000000000000",
      "blockNumber": "0x2af24b0",
      "gasUsed": "0x1db91",
      "effectiveGasPrice": "0x4e5ab1",
      "blobGasUsed": "0x39d0",
      "from": "0xd5011cddbe45a366b76c946575bd4b6f907f580f",
      "to": "0xfb0317b9e5ac17419dd873b9ba9d8b25be2e662b",
      "contractAddress": null,
      "daFootprintGasScalar": "0x94",
      "l1BaseFeeScalar": "0x8dd",
      "l1BlobBaseFee": "0x44ca4d7",
      "l1BlobBaseFeeScalar": "0x101c12",
      "l1Fee": "0x12008b225b",
      "l1GasPrice": "0x4b69f1be",
      "l1GasUsed": "0x640"
    },
    {
      "status": "0x1",
      "cumulativeGasUsed": "0x1485eb7",
      "logs": [
        {
          "address": "0xfb0317b9e5ac17419dd873b9ba9d8b25be2e662b",
          "topics": [
            "0x724df0596d75f7cca867e95fdadd6c1397e175dc9a54f0a3f46167ec8577ecae",
            "0x921a3539bcb764c889432630877414523e7fbca00c211bc787aeae69e2e3a779"
          ],
          "data": "0x",
          "blockHash": "0x0000000000000000000000000000000000000000000000000000000000000000",
          "blockNumber": "0x2af24b0",
          "blockTimestamp": "0x69e8a643",
          "transactionHash": "0x4a01aa01a457fd604cd0ffb157c9821c63985fa4118dd92b8e30049544f96551",
          "transactionIndex": "0x5f",
          "logIndex": "0x1dd",
          "removed": false
        },
        {
          "address": "0xfb0317b9e5ac17419dd873b9ba9d8b25be2e662b",
          "topics": [
            "0x6e838f2a03741f5f2aff5480963b672fb0dd8430a4dc75db9b67ce009733c9fe",
            "0x921a3539bcb764c889432630877414523e7fbca00c211bc787aeae69e2e3a779"
          ],
          "data": "0x000000000000000000000000000000000000000000000000000000004d7c6d000000000000000000000000000000000000000000000000000000000069e8a643",
          "blockHash": "0x0000000000000000000000000000000000000000000000000000000000000000",
          "blockNumber": "0x2af24b0",
          "blockTimestamp": "0x69e8a643",
          "transactionHash": "0x4a01aa01a457fd604cd0ffb157c9821c63985fa4118dd92b8e30049544f96551",
          "transactionIndex": "0x5f",
          "logIndex": "0x1de",
          "removed": false
        }
      ],
      "logsBloom": "0x00000000000000000000000000000000000000000000000000000000000000000000000000000000000000000000000000000000000000000000000000200000800000000000000000000000000000000000000000000000000000000000000000000000000000000000080000000000000000000000000080000000000000000000000000000100000000000000000000000000000000000000000000000000002000400000000000000000000000000000000000000000000000400000000000000000000000000000000800000000000000000000000000000000000000000000000000000000000000000000008000000000000800000000040000000000",
      "type": "0x2",
      "transactionHash": "0x4a01aa01a457fd604cd0ffb157c9821c63985fa4118dd92b8e30049544f96551",
      "transactionIndex": "0x5f",
      "blockHash": "0x0000000000000000000000000000000000000000000000000000000000000000",
      "blockNumber": "0x2af24b0",
      "gasUsed": "0x1db91",
      "effectiveGasPrice": "0x4e5ab1",
      "blobGasUsed": "0x39d0",
      "from": "0xd5011cddbe45a366b76c946575bd4b6f907f580f",
      "to": "0xfb0317b9e5ac17419dd873b9ba9d8b25be2e662b",
      "contractAddress": null,
      "daFootprintGasScalar": "0x94",
      "l1BaseFeeScalar": "0x8dd",
      "l1BlobBaseFee": "0x44ca4d7",
      "l1BlobBaseFeeScalar": "0x101c12",
      "l1Fee": "0x12008b225b",
      "l1GasPrice": "0x4b69f1be",
      "l1GasUsed": "0x640"
    },
    {
      "status": "0x1",
      "cumulativeGasUsed": "0x14a3a3c",
      "logs": [
        {
          "address": "0xfb0317b9e5ac17419dd873b9ba9d8b25be2e662b",
          "topics": [
            "0x724df0596d75f7cca867e95fdadd6c1397e175dc9a54f0a3f46167ec8577ecae",
            "0x9bd00430e53a5999c7c603cfc04cbdaf68bdbc180f300e4a2067937f57a0534f"
          ],
          "data": "0x",
          "blockHash": "0x0000000000000000000000000000000000000000000000000000000000000000",
          "blockNumber": "0x2af24b0",
          "blockTimestamp": "0x69e8a643",
          "transactionHash": "0x7fec5909ff4ab20cdd7ee1d54df1cb9d5d8a9c7c5790b60fbea383a357cb6d56",
          "transactionIndex": "0x60",
          "logIndex": "0x1df",
          "removed": false
        },
        {
          "address": "0xfb0317b9e5ac17419dd873b9ba9d8b25be2e662b",
          "topics": [
            "0x6e838f2a03741f5f2aff5480963b672fb0dd8430a4dc75db9b67ce009733c9fe",
            "0x9bd00430e53a5999c7c603cfc04cbdaf68bdbc180f300e4a2067937f57a0534f"
          ],
          "data": "0x0000000000000000000000000000000000000000000000000000000017d784000000000000000000000000000000000000000000000000000000000069e8a643",
          "blockHash": "0x0000000000000000000000000000000000000000000000000000000000000000",
          "blockNumber": "0x2af24b0",
          "blockTimestamp": "0x69e8a643",
          "transactionHash": "0x7fec5909ff4ab20cdd7ee1d54df1cb9d5d8a9c7c5790b60fbea383a357cb6d56",
          "transactionIndex": "0x60",
          "logIndex": "0x1e0",
          "removed": false
        }
      ],
      "logsBloom": "0x00000000000000000000000000000000000000000000000000000000000000000000000000000000000000000000000000000000000000000000000000200000800000000000000000000000000000000000000000000000000000000000000000000000000000000000000000000000000000000000000080000000000000000000000000000000000000000000000000000000000000000000000040000000002000400000000000000000200000000000000000000000000000400000000000000000000000000000000800000000001000000000000000000000000000000000000000000000000000000000000000000000000800000000040000000000",
      "type": "0x2",
      "transactionHash": "0x7fec5909ff4ab20cdd7ee1d54df1cb9d5d8a9c7c5790b60fbea383a357cb6d56",
      "transactionIndex": "0x60",
      "blockHash": "0x0000000000000000000000000000000000000000000000000000000000000000",
      "blockNumber": "0x2af24b0",
      "gasUsed": "0x1db85",
      "effectiveGasPrice": "0x4e5ab1",
      "blobGasUsed": "0x39d0",
      "from": "0xd5011cddbe45a366b76c946575bd4b6f907f580f",
      "to": "0xfb0317b9e5ac17419dd873b9ba9d8b25be2e662b",
      "contractAddress": null,
      "daFootprintGasScalar": "0x94",
      "l1BaseFeeScalar": "0x8dd",
      "l1BlobBaseFee": "0x44ca4d7",
      "l1BlobBaseFeeScalar": "0x101c12",
      "l1Fee": "0x12008b225b",
      "l1GasPrice": "0x4b69f1be",
      "l1GasUsed": "0x640"
    },
    {
      "status": "0x1",
      "cumulativeGasUsed": "0x1642bff",
      "logs": [
        {
          "address": "0x1f0480a38a48c4a75ace8fd4d9fa6bbab43d230f",
          "topics": [
            "0x8be0079c531659141344cd1fd0a4f28419497f9722a3daafe3b4186f6b6457e0",
            "0x0000000000000000000000000000000000000000000000000000000000000000",
            "0x000000000000000000000000d5011cddbe45a366b76c946575bd4b6f907f580f"
          ],
          "data": "0x",
          "blockHash": "0x0000000000000000000000000000000000000000000000000000000000000000",
          "blockNumber": "0x2af24b0",
          "blockTimestamp": "0x69e8a643",
          "transactionHash": "0x6e3625f24afcdfd8b0583e9b4a7f8f090a512fd160c8f61d1c23f150e2d96108",
          "transactionIndex": "0x61",
          "logIndex": "0x1e1",
          "removed": false
        }
      ],
      "logsBloom": "0x00000000000000000000000000000000000000000000000000800000000000000080000000000000000000000000000000000000000000000000000080000000000000000000000000000000000000000001000000000000000000000000000000000000020000000000000000000a40000000000000000000000000000000400000000000000000000000000000000000000000000000000000000000000000000000000000000000000080000000000000000000000000004000000000000000000000000000000000000000000000000000000000000000000000000020000000000000000000000000000000000000000000000000000000000000000000",
      "type": "0x2",
      "transactionHash": "0x6e3625f24afcdfd8b0583e9b4a7f8f090a512fd160c8f61d1c23f150e2d96108",
      "transactionIndex": "0x61",
      "blockHash": "0x0000000000000000000000000000000000000000000000000000000000000000",
      "blockNumber": "0x2af24b0",
      "gasUsed": "0x19f1c3",
      "effectiveGasPrice": "0x4e5ab1",
      "blobGasUsed": "0xacdc0",
      "from": "0xd5011cddbe45a366b76c946575bd4b6f907f580f",
      "to": null,
      "contractAddress": "0x1f0480a38a48c4a75ace8fd4d9fa6bbab43d230f",
      "daFootprintGasScalar": "0x94",
      "l1BaseFeeScalar": "0x8dd",
      "l1BlobBaseFee": "0x44ca4d7",
      "l1BlobBaseFeeScalar": "0x101c12",
      "l1Fee": "0x12008b225b",
      "l1GasPrice": "0x4b69f1be",
      "l1GasUsed": "0x12b0d"
    },
    {
      "status": "0x1",
      "cumulativeGasUsed": "0x16ce174",
      "logs": [],
      "logsBloom": "0x00000000000000000000000000000000000000000000000000000000000000000000000000000000000000000000000000000000000000000000000000000000000000000000000000000000000000000000000000000000000000000000000000000000000000000000000000000000000000000000000000000000000000000000000000000000000000000000000000000000000000000000000000000000000000000000000000000000000000000000000000000000000000000000000000000000000000000000000000000000000000000000000000000000000000000000000000000000000000000000000000000000000000000000000000000000",
      "type": "0x2",
      "transactionHash": "0x39a76640f753e0d59150cf11c2c8bd00900ce850ec83a735a40a8ca517bdbf17",
      "transactionIndex": "0x62",
      "blockHash": "0x0000000000000000000000000000000000000000000000000000000000000000",
      "blockNumber": "0x2af24b0",
      "gasUsed": "0x8b575",
      "effectiveGasPrice": "0x4e5ab1",
      "blobGasUsed": "0x39c6c",
      "from": "0xd5011cddbe45a366b76c946575bd4b6f907f580f",
      "to": null,
      "contractAddress": "0x65428decd1ec09cfaa7457aceb1991dd976e07c3",
      "daFootprintGasScalar": "0x94",
      "l1BaseFeeScalar": "0x8dd",
      "l1BlobBaseFee": "0x44ca4d7",
      "l1BlobBaseFeeScalar": "0x101c12",
      "l1Fee": "0x12008b225b",
      "l1GasPrice": "0x4b69f1be",
      "l1GasUsed": "0x63f7"
    },
    {
      "status": "0x1",
      "cumulativeGasUsed": "0x16d9bce",
      "logs": [
        {
          "address": "0x1f0480a38a48c4a75ace8fd4d9fa6bbab43d230f",
          "topics": [
            "0x7aed1d3e8155a07ccf395e44ea3109a0e2d6c9b29bbbe9f142d9790596f4dc80",
            "0x00000000000000000000000065428decd1ec09cfaa7457aceb1991dd976e07c3"
          ],
          "data": "0x",
          "blockHash": "0x0000000000000000000000000000000000000000000000000000000000000000",
          "blockNumber": "0x2af24b0",
          "blockTimestamp": "0x69e8a643",
          "transactionHash": "0xe000f45bb919b79b40d9f948e619f450d7ebb61eef51904e17c487188491f62c",
          "transactionIndex": "0x63",
          "logIndex": "0x1e2",
          "removed": false
        }
      ],
      "logsBloom": "0x00000000000000000000000000000000000000000000000000000000000000000080000000000000000000000000000000000000000000000000000000000000000000000000000000000040000000000000000000000000000000000000000000000000000000000000000000000200000000000000000000000000000000000000000000800000000000000000000000000000400000000000000001000040000000000000000000000000000000000000000000000000004000000000000000000000000000000000000000000000000000000000000000000000000000000000000000000000000000000000000000000000000001000000000000000000",
      "type": "0x2",
      "transactionHash": "0xe000f45bb919b79b40d9f948e619f450d7ebb61eef51904e17c487188491f62c",
      "transactionIndex": "0x63",
      "blockHash": "0x0000000000000000000000000000000000000000000000000000000000000000",
      "blockNumber": "0x2af24b0",
      "gasUsed": "0xba5a",
      "effectiveGasPrice": "0x4e5ab1",
      "blobGasUsed": "0x39d0",
      "from": "0xd5011cddbe45a366b76c946575bd4b6f907f580f",
      "to": "0x1f0480a38a48c4a75ace8fd4d9fa6bbab43d230f",
      "contractAddress": null,
      "daFootprintGasScalar": "0x94",
      "l1BaseFeeScalar": "0x8dd",
      "l1BlobBaseFee": "0x44ca4d7",
      "l1BlobBaseFeeScalar": "0x101c12",
      "l1Fee": "0x12008b225b",
      "l1GasPrice": "0x4b69f1be",
      "l1GasUsed": "0x640"
    },
    {
      "status": "0x1",
      "cumulativeGasUsed": "0x16e4f7c",
      "logs": [
        {
          "address": "0x22657bc91a172f29d7ec50ef9df5db9fb9d324c4",
          "topics": [
            "0x8c5be1e5ebec7d5bd14f71427d1e84f3dd0314c0f7b2291e5b200ac8c7c3b925",
            "0x000000000000000000000000d5011cddbe45a366b76c946575bd4b6f907f580f",
            "0x0000000000000000000000001f0480a38a48c4a75ace8fd4d9fa6bbab43d230f"
          ],
          "data": "0x0000000000000000000000000000000000000000000069e10de76676d0800000",
          "blockHash": "0x0000000000000000000000000000000000000000000000000000000000000000",
          "blockNumber": "0x2af24b0",
          "blockTimestamp": "0x69e8a643",
          "transactionHash": "0x859e8d9c6d1fe036eae216fb9cf291653560f21d4442cce765a853c3d6dcbcb2",
          "transactionIndex": "0x64",
          "logIndex": "0x1e3",
          "removed": false
        }
      ],
      "logsBloom": "0x00000000000000000000000000000000000000000000000000000000000000000000000000000000000001000000000000000000000000000000000080200000000000000000000000000000000000000000000000000000000000000000000000000000000000000400000000000040000000000040000000000000000000000000000000000000000000000000000000000000000000000000000000000000020000000000000000000080000000000000000000000000000000000000000000000000000000000000000000000000001000000000000000000000000000000010400000000000000000000000000000000000000000000000000020000000",
      "type": "0x2",
      "transactionHash": "0x859e8d9c6d1fe036eae216fb9cf291653560f21d4442cce765a853c3d6dcbcb2",
      "transactionIndex": "0x64",
      "blockHash": "0x0000000000000000000000000000000000000000000000000000000000000000",
      "blockNumber": "0x2af24b0",
      "gasUsed": "0xb3ae",
      "effectiveGasPrice": "0x4e5ab1",
      "blobGasUsed": "0x39d0",
      "from": "0xd5011cddbe45a366b76c946575bd4b6f907f580f",
      "to": "0x22657bc91a172f29d7ec50ef9df5db9fb9d324c4",
      "contractAddress": null,
      "daFootprintGasScalar": "0x94",
      "l1BaseFeeScalar": "0x8dd",
      "l1BlobBaseFee": "0x44ca4d7",
      "l1BlobBaseFeeScalar": "0x101c12",
      "l1Fee": "0x12008b225b",
      "l1GasPrice": "0x4b69f1be",
      "l1GasUsed": "0x640"
    },
    {
      "status": "0x1",
      "cumulativeGasUsed": "0x16f8ab8",
      "logs": [
        {
          "address": "0x22657bc91a172f29d7ec50ef9df5db9fb9d324c4",
          "topics": [
            "0xddf252ad1be2c89b69c2b068fc378daa952ba7f163c4a11628f55a4df523b3ef",
            "0x000000000000000000000000d5011cddbe45a366b76c946575bd4b6f907f580f",
            "0x0000000000000000000000001f0480a38a48c4a75ace8fd4d9fa6bbab43d230f"
          ],
          "data": "0x0000000000000000000000000000000000000000000069e10de76676d0800000",
          "blockHash": "0x0000000000000000000000000000000000000000000000000000000000000000",
          "blockNumber": "0x2af24b0",
          "blockTimestamp": "0x69e8a643",
          "transactionHash": "0x885b43ea22a138a6281d4488f9c3b6a350e647d88a340b3082fcc2346bf246ad",
          "transactionIndex": "0x65",
          "logIndex": "0x1e4",
          "removed": false
        },
        {
          "address": "0x1f0480a38a48c4a75ace8fd4d9fa6bbab43d230f",
          "topics": [
            "0xc17cea59c2955cb181b03393209566960365771dbba9dc3d510180e7cb312088",
            "0x000000000000000000000000d5011cddbe45a366b76c946575bd4b6f907f580f"
          ],
          "data": "0x0000000000000000000000000000000000000000000069e10de76676d0800000",
          "blockHash": "0x0000000000000000000000000000000000000000000000000000000000000000",
          "blockNumber": "0x2af24b0",
          "blockTimestamp": "0x69e8a643",
          "transactionHash": "0x885b43ea22a138a6281d4488f9c3b6a350e647d88a340b3082fcc2346bf246ad",
          "transactionIndex": "0x65",
          "logIndex": "0x1e5",
          "removed": false
        }
      ],
      "logsBloom": "0x00000000000000000000000000000000000000000000000000000000000000000080000000002000000001000000000000000000000000000000000080000000000002000000000000000008000000000000000000000000000000000000000000000000000000000400000000000240000000000040000000000010000000000000000000000000000200000000000000000000000000000000000000000000000000000000000000000080000000000000000000000000004000000000000000000002000000000000000000000000001000000000000000000000000000000000400000000000000000000000000000000000000000000000000020000000",
      "type": "0x2",
      "transactionHash": "0x885b43ea22a138a6281d4488f9c3b6a350e647d88a340b3082fcc2346bf246ad",
      "transactionIndex": "0x65",
      "blockHash": "0x0000000000000000000000000000000000000000000000000000000000000000",
      "blockNumber": "0x2af24b0",
      "gasUsed": "0x13b3c",
      "effectiveGasPrice": "0x4e5ab1",
      "blobGasUsed": "0x39d0",
      "from": "0xd5011cddbe45a366b76c946575bd4b6f907f580f",
      "to": "0x1f0480a38a48c4a75ace8fd4d9fa6bbab43d230f",
      "contractAddress": null,
      "daFootprintGasScalar": "0x94",
      "l1BaseFeeScalar": "0x8dd",
      "l1BlobBaseFee": "0x44ca4d7",
      "l1BlobBaseFeeScalar": "0x101c12",
      "l1Fee": "0x12008b225b",
      "l1GasPrice": "0x4b69f1be",
      "l1GasUsed": "0x640"
    },
    {
      "status": "0x1",
      "cumulativeGasUsed": "0x16fef96",
      "logs": [
        {
          "address": "0xfb0317b9e5ac17419dd873b9ba9d8b25be2e662b",
          "topics": [
            "0x8be0079c531659141344cd1fd0a4f28419497f9722a3daafe3b4186f6b6457e0",
            "0x000000000000000000000000d5011cddbe45a366b76c946575bd4b6f907f580f",
            "0x000000000000000000000000d5011cddbe45a366b76c946575bd4b6f907f580f"
          ],
          "data": "0x",
          "blockHash": "0x0000000000000000000000000000000000000000000000000000000000000000",
          "blockNumber": "0x2af24b0",
          "blockTimestamp": "0x69e8a643",
          "transactionHash": "0x48ec4ec1498f0c0c8ee55c9a0653dc41576a9a41290d1db080cb79d2fdd1df65",
          "transactionIndex": "0x66",
          "logIndex": "0x1e6",
          "removed": false
        }
      ],
      "logsBloom": "0x00000000000000000000000000000000000000000000000000800000000000000000000000000000000000000000000000000000000000000000000080200000800000000000000000000000000000000001000000000000000000000000000000000000000000000000000000000040000000000000000000000000000000400000000000000000000000000000000000000000000000000000000000000000002000000000000000000080000000000000000000000000000000000000000000000000000000000000000000000000000000000000000000000000000000000000000000000000000000000000000000000000000000000000000000000000",
      "type": "0x2",
      "transactionHash": "0x48ec4ec1498f0c0c8ee55c9a0653dc41576a9a41290d1db080cb79d2fdd1df65",
      "transactionIndex": "0x66",
      "blockHash": "0x0000000000000000000000000000000000000000000000000000000000000000",
      "blockNumber": "0x2af24b0",
      "gasUsed": "0x64de",
      "effectiveGasPrice": "0x4e5ab1",
      "blobGasUsed": "0x39d0",
      "from": "0xd5011cddbe45a366b76c946575bd4b6f907f580f",
      "to": "0xfb0317b9e5ac17419dd873b9ba9d8b25be2e662b",
      "contractAddress": null,
      "daFootprintGasScalar": "0x94",
      "l1BaseFeeScalar": "0x8dd",
      "l1BlobBaseFee": "0x44ca4d7",
      "l1BlobBaseFeeScalar": "0x101c12",
      "l1Fee": "0x12008b225b",
      "l1GasPrice": "0x4b69f1be",
      "l1GasUsed": "0x640"
    }
  ],
  "libraries": [],
  "pending": [],
  "returns": {},
  "timestamp": 1776854673361,
  "chain": 8453,
  "commit": null
}