{
  "transactions": [
    {
      "hash": "0xb386723581128a86a4c302c0e2ff35779fd745259340ca57afd08d094fb05293",
      "transactionType": "CREATE",
      "contractName": "eUSD",
      "contractAddress": "0xb88776127ac5b041b76d62c11ce6f021ac48bcb4",
      "function": null,
      "arguments": [
        "0xD5011cddBE45A366B76C946575BD4B6f907F580F"
      ],
      "transaction": {
        "from": "0xd5011cddbe45a366b76c946575bd4b6f907f580f",
        "gas": "0x15de50",
        "value": "0x0",
        "input": "0x60a034620004e357601f196200159b38819003601f8181018416850194926001600160401b039284871084881117620004e75780859260409889528339602094859181010312620004e357516001600160a01b03808216959091869003620004e3578651916200006f83620004fb565b600d83526c11585cde551c985919481554d1609a1b91828785015288516200009781620004fb565b60049586825263195554d160e21b89830152855191888311620004d0576003928354976001988981811c91168015620004c5575b8d821014620004b257908c82868594116200045c575b50508c90858311600114620003f1575f92620003e5575b50505f1982861b1c191690881b1783555b805193898511620003d25788548881811c91168015620003c7575b8c821014620003b457908b828588979695941162000358575b50508b928511600114620002f457505f93620002e8575b505082861b925f19911b1c19161784555b8615620002d257600580546001600160a01b031981168917909155600d92918891167f8be0079c531659141344cd1fd0a4f28419497f9722a3daafe3b4186f6b6457e05f80a3858851620001b981620004fb565b838152019081522090848751620001d081620004fb565b82815201603160f81b815220865190858201927f8b73c3c69bb8fe3d512ecc4cf759cc79239f7b179b0ffacaa9a75d522b39400f84528883015260608201524660808201523060a082015260a0815260c081019381851090851117620002bf5783875251902060805260025469d3c21bcecceda100000091828201809211620002ac57506002555f848152808452858120805483019055908252917fddf252ad1be2c89b69c2b068fc378daa952ba7f163c4a11628f55a4df523b3ef91a351611083908162000518823960805181818161031e01526109550152f35b601190634e487b7160e01b5f525260245ffd5b604183634e487b7160e01b5f525260245ffd5b8751631e4fbdf760e01b81525f81860152602490fd5b015191505f8062000154565b8895939291931692895f528b5f20935f5b8d82821062000341575050851162000327575b50505050811b01845562000165565b01519060f8845f19921b161c191690555f80808062000318565b8385015187558b9890960195938401930162000305565b909192939495508a5f5284825f209181890160051c8301938910620003aa575b918b91899897969594930160051c01915b8281106200039b57508d91506200013d565b5f81558897508b910162000389565b9250819262000378565b60228a634e487b7160e01b5f525260245ffd5b90607f169062000124565b604189634e487b7160e01b5f525260245ffd5b015190505f80620000f8565b908d91888c9516885f52835f20935f905b8282106200043a575050841162000422575b505050811b01835562000109565b01515f1983881b60f8161c191690555f808062000414565b91929395968291958786015181550195019301908f918d969594939262000402565b90919250865f5285825f209181860160051c8301938610620004a8575b918c91869594930160051c01915b8281106200049957508e9150620000e1565b5f81558594508c910162000487565b9250819262000479565b60228b634e487b7160e01b5f525260245ffd5b90607f1690620000cb565b604188634e487b7160e01b5f525260245ffd5b5f80fd5b634e487b7160e01b5f52604160045260245ffd5b604081019081106001600160401b03821117620004e75760405256fe60806040818152600480361015610014575f80fd5b5f92833560e01c90816306fdde0314610b0a57508063095ea7b314610ae057806318160ddd14610ac157806323b872dd146109cf57806330adf81f14610994578063313ce567146109785780633644e5151461093d57806340c10f191461088e57806362a2d7a91461085057806370a0823114610819578063715018a6146107bc57806376697640146107975780637b93a483146107155780637bc1f6cc146106dd5780637d1d5d19146106bf5780637ecebe0014610687578063801a4765146105f15780638da5cb5b146105c857806395d89b41146104c4578063a9059cbb14610493578063b44bae8e14610466578063d505accf14610232578063dd62ed3e146101e5578063de5f72fd146101c55763f2fde38b14610133575f80fd5b346101c15760203660031901126101c15761014c610c43565b90610155610c73565b6001600160a01b039182169283156101ab575050600554826bffffffffffffffffffffffff60a01b821617600555167f8be0079c531659141344cd1fd0a4f28419497f9722a3daafe3b4186f6b6457e08380a380f35b51631e4fbdf760e01b8152908101849052602490fd5b8280fd5b83346101e257806003193601126101e2576101df33610e3d565b80f35b80fd5b50503461022e578060031936011261022e5780602092610203610c43565b61020b610c5d565b6001600160a01b0391821683526001865283832091168252845220549051908152f35b5080fd5b5082903461022e5760e036600319011261022e5761024e610c43565b610256610c5d565b906044359260643560843560ff811680910361046257814211610428576001600160a01b038481168089526008602052898920805491949293919291905f198414610415576001840190558a519160208301937f6e71edae12b1b97f4d1f60370fef10105fa2faae0126114a169c64845d6126c98552868d850152858a1660608501528a608085015260a084015260c083015260c0825260e0820167ffffffffffffffff938382108583111761040257818d52835190209061010084019161190160f01b83527f0000000000000000000000000000000000000000000000000000000000000000610102860152610122850152604281526101608401948186109086111761040257848d52519020835261018082015260a4356101a082015260c4356101c090910152878052602090889060809060015afa156103f8578651169081151591826103ee575b5050156103b457506101df939450610db0565b606490602087519162461bcd60e51b83528201526014602482015273195554d10e881a5b9d985b1a59081c195c9b5a5d60621b6044820152fd5b14905087806103a1565b87513d88823e3d90fd5b634e487b7160e01b8c526041885260248cfd5b634e487b7160e01b8b526011875260248bfd5b875162461bcd60e51b81526020818501526014602482015273195554d10e881c195c9b5a5d08195e1c1a5c995960621b6044820152606490fd5b8680fd5b50503461022e57602036600319011261022e5760209061048c610487610c43565b610fd5565b9051908152f35b50503461022e578060031936011261022e576020906104bd6104b3610c43565b6024359033610cd5565b5160018152f35b5091903461022e578160031936011261022e57805191809380549160019083821c928285169485156105be575b60209586861081146105ab57858952908115610587575060011461052f575b61052b8787610521828c0383610c9f565b5191829182610bfc565b0390f35b81529295507f8a35acfbc15ff81a39ae7d344fd709f28e8600b4aa8c65c6b64bfe7fe36bd19b5b828410610574575050508261052b9461052192820101945f80610510565b8054868501880152928601928101610556565b60ff19168887015250505050151560051b83010192506105218261052b5f80610510565b634e487b7160e01b845260228352602484fd5b93607f16936104f1565b50503461022e578160031936011261022e5760055490516001600160a01b039091168152602090f35b50346101c15760203660031901126101c15761060b610c43565b9160018060a01b036005541633148015610672575b1561062f57836101df84610e3d565b906020606492519162461bcd60e51b8352820152601860248201527f655553443a206e6f74206661756365742072656c6179657200000000000000006044820152fd5b50338452600760205260ff8185205416610620565b50503461022e57602036600319011261022e5760209181906001600160a01b036106af610c43565b1681526008845220549051908152f35b50503461022e578160031936011261022e5760209051620151808152f35b50503461022e57602036600319011261022e5760209181906001600160a01b03610705610c43565b1681526006845220549051908152f35b50503461022e578060031936011261022e5761072f610c43565b60243590811515809203610793577f112fe95ec055ba0a0150f27ccefea853f9d4ad5c5b5d0fbc9338d2f91ccc862e9160209161076a610c73565b6001600160a01b031680865260078352848620805460ff191660ff84161790559351908152a280f35b8380fd5b50503461022e578160031936011261022e576020905169021e19e0c9bab24000008152f35b83346101e257806003193601126101e2576107d5610c73565b600580546001600160a01b0319811690915581906001600160a01b03167f8be0079c531659141344cd1fd0a4f28419497f9722a3daafe3b4186f6b6457e08280a380f35b50503461022e57602036600319011261022e5760209181906001600160a01b03610841610c43565b16815280845220549051908152f35b50503461022e57602036600319011261022e5760209160ff9082906001600160a01b0361087b610c43565b1681526007855220541690519015158152f35b5090346101c157806003193601126101c1576108a8610c43565b90602435916108b5610c73565b6001600160a01b03169283156109285760025490838201809211610915575084927fddf252ad1be2c89b69c2b068fc378daa952ba7f163c4a11628f55a4df523b3ef9260209260025585855284835280852082815401905551908152a380f35b634e487b7160e01b865260119052602485fd5b84602492519163ec442f0560e01b8352820152fd5b50503461022e578160031936011261022e57602090517f00000000000000000000000000000000000000000000000000000000000000008152f35b50503461022e578160031936011261022e576020905160128152f35b50503461022e578160031936011261022e57602090517f6e71edae12b1b97f4d1f60370fef10105fa2faae0126114a169c64845d6126c98152f35b5082346101e25760603660031901126101e2576109ea610c43565b6109f2610c5d565b916044359360018060a01b038316808352600160205286832033845260205286832054915f198310610a2d575b6020886104bd898989610cd5565b868310610a95578115610a7e573315610a67575082526001602090815286832033845281529186902090859003905582906104bd87610a1f565b8751634a1406b160e11b8152908101849052602490fd5b875163e602df0560e01b8152908101849052602490fd5b8751637dc7a0d960e11b8152339181019182526020820193909352604081018790528291506060010390fd5b50503461022e578160031936011261022e576020906002549051908152f35b50503461022e578060031936011261022e576020906104bd610b00610c43565b6024359033610db0565b9291905034610793578360031936011261079357600354600181811c9186908281168015610bf2575b6020958686108214610bdf5750848852908115610bbd5750600114610b64575b61052b8686610521828b0383610c9f565b929550600383527fc2575a0e9e593c00f959f8c92f12db2869c3395a3b0502d05e2516446f71f85b5b828410610baa575050508261052b9461052192820101945f610b53565b8054868501880152928601928101610b8d565b60ff191687860152505050151560051b83010192506105218261052b5f610b53565b634e487b7160e01b845260229052602483fd5b93607f1693610b33565b602080825282518183018190529093925f5b828110610c2f57505060409293505f838284010152601f8019910116010190565b818101860151848201604001528501610c0e565b600435906001600160a01b0382168203610c5957565b5f80fd5b602435906001600160a01b0382168203610c5957565b6005546001600160a01b03163303610c8757565b60405163118cdaa760e01b8152336004820152602490fd5b90601f8019910116810190811067ffffffffffffffff821117610cc157604052565b634e487b7160e01b5f52604160045260245ffd5b916001600160a01b03808416928315610d985716928315610d80575f9083825281602052604082205490838210610d4e575091604082827fddf252ad1be2c89b69c2b068fc378daa952ba7f163c4a11628f55a4df523b3ef958760209652828652038282205586815220818154019055604051908152a3565b60405163391434e360e21b81526001600160a01b03919091166004820152602481019190915260448101839052606490fd5b60405163ec442f0560e01b81525f6004820152602490fd5b604051634b637e8f60e11b81525f6004820152602490fd5b6001600160a01b03908116918215610e255716918215610e0d5760207f8c5be1e5ebec7d5bd14f71427d1e84f3dd0314c0f7b2291e5b200ac8c7c3b92591835f526001825260405f20855f5282528060405f2055604051908152a3565b604051634a1406b160e11b81525f6004820152602490fd5b60405163e602df0560e01b81525f6004820152602490fd5b6001600160a01b0316908115610f9b575f918083526020600681526040908185205480610f0d575b508285526006815242828620556002549069021e19e0c9bab240000091828101809111610ef957938095967fa19a7d2b5bf6a987a66e0eac8a6eb2dbd34ae6a43285849af788b224268ec022956002558181528083528481208481540190557fddf252ad1be2c89b69c2b068fc378daa952ba7f163c4a11628f55a4df523b3ef838651868152a382519182524290820152a2565b634e487b7160e01b87526011600452602487fd5b620151808101809111610f87574210610f26575f610e65565b608491519062461bcd60e51b82526004820152603660248201527f655553443a2046617563657420636f6f6c646f776e2063687561206b657420746044820152756875632c20767569206c6f6e672063686f207468656d60501b6064820152fd5b634e487b7160e01b86526011600452602486fd5b60405162461bcd60e51b815260206004820152601260248201527132aaa9a21d1034b73b30b634b2103ab9b2b960711b6044820152606490fd5b6001600160a01b03165f90815260066020526040812054908115611048576201518080830192838111611034578342101561102d5742900301918211611019575090565b634e487b7160e01b81526011600452602490fd5b5050905090565b634e487b7160e01b83526011600452602483fd5b90509056fea2646970667358221220a55902fe5b7a804570b5e7ddf1e7ea3371cefe5cf96ea2863a392cc34212b7c664736f6c63430008140033000000000000000000000000d5011cddbe45a366b76c946575bd4b6f907f580f",
        "nonce": "0x8b",
        "chainId": "0x2105"
      },
      "additionalContracts": [],
      "isFixedGasLimit": false
    },
    {
      "hash": "0xb1c7b04b61a3c7142fb2e0dfc5010e467762d877c635e3140f6f6ab315532d2d",
      "transactionType": "CREATE",
      "contractName": "PythOracle",
      "contractAddress": "0x23a9b51c0c8c82fb708af620e3997dcadfb02991",
      "function": null,
      "arguments": [
        "0x8250f4aF4B972684F7b336503E2D6dFeDeB1487a",
        "0xD5011cddBE45A366B76C946575BD4B6f907F580F",
        "60",
        "500"
      ],
      "transaction": {
        "from": "0xd5011cddbe45a366b76c946575bd4b6f907f580f",
        "gas": "0x14d2df",
        "value": "0x0",
        "input": "0x60a03461015257601f61122d38819003918201601f19168301916001600160401b0383118484101761015657808492608094604052833981010312610152576100478161016a565b906100546020820161016a565b6040820151606090920151926001600160a01b039182169190821561013a575f80546001600160a01b03198116851782556040519491908416907f8be0079c531659141344cd1fd0a4f28419497f9722a3daafe3b4186f6b6457e09080a3169081156100f857506080526001556002556040516110ae908161017f82396080518181816101060152818161083001528181610a1601528181610cf80152610dad0152f35b62461bcd60e51b815260206004820152601560248201527f507974684f7261636c653a207a65726f207079746800000000000000000000006044820152606490fd5b604051631e4fbdf760e01b81525f6004820152602490fd5b5f80fd5b634e487b7160e01b5f52604160045260245ffd5b51906001600160a01b03821682036101525756fe6080604081815260049182361015610015575f80fd5b5f92833560e01c9182631584410a14610a7557508163267f99bf14610a565781632ad286ad146109ca5781632b25f552146109195781633932d1ab146108c4578163524f3889146107d357816356447ce814610785578163715018a61461072b5781638da5cb5b146107035781638ff5fd2414610647578163c68dbb3714610535578163d47eed4514610512578163ef0494e614610479578163ef099bc61461021c578163ef9e5e2814610206578163f1a640f8146101ea578163f2fde38b1461015757508063f7ae35ba146101395763f98d06f0146100f3575f80fd5b34610135578160031936011261013557517f00000000000000000000000000000000000000000000000000000000000000006001600160a01b03168152602090f35b5080fd5b50346101355781600319360112610135576020906005549051908152f35b919050346101e65760203660031901126101e6576001600160a01b038235818116939192908490036101e25761018b610c17565b83156101cc57505082546001600160a01b0319811683178455167f8be0079c531659141344cd1fd0a4f28419497f9722a3daafe3b4186f6b6457e08380a380f35b51631e4fbdf760e01b8152908101849052602490fd5b8480fd5b8280fd5b5050346101355781600319360112610135576020905160088152f35b8361021961021336610bcb565b90610cf0565b80f35b8383346101355761022c36610b18565b92610238929192610c17565b821561046a57831561045b578051958383883760ff878581018381526020998a9103019020541661043457815184848237878186810184815203019020966001978860ff19825416179055858351868682378281888101600381520301902055600554680100000000000000008110156104215780896102bb9201600555610b4a565b92909261040f576001600160401b0386116103fc57506102db8254610b93565b601f81116103b6575b508690601f86116001146103545750938087988197989682969793610349575b501b905f198560031b1c19161790555b51928392833781018481520390207f7e0f48a71f9495e723ee7cf01b0e8add4111a8c92c86a66e53e73b1683ed10af8380a380f35b87013592508a610304565b828852808820909891601f198716895b8181106103a157508798999a509680969710610388575b505083811b019055610314565b8601355f19600387901b60f8161c19169055888061037b565b87830135845592840192918b01918b01610364565b828852818820601f870160051c8101918388106103f2575b601f0160051c019089905b8281106103e75750506102e4565b8981550189906103d9565b90915081906103ce565b634e487b7160e01b885260419052602487fd5b634e487b7160e01b8852879052602487fd5b634e487b7160e01b885260418352602488fd5b9051630135d07360e41b8152908101869052918291610457916024840191610c42565b0390fd5b516352cc3f7d60e01b81528590fd5b51630cc613fb60e11b81528590fd5b919050346101e65760203660031901126101e657813591610498610c17565b82156104d05750816020917f8645ca089ce18ebf1d945a3f378ebf9ca08b4803badc7aa08925f2fbc32658089360025551908152a180f35b6020606492519162461bcd60e51b8352820152601b60248201527f507974684f7261636c653a207a65726f20636f6e666964656e636500000000006044820152fd5b5050346101355760209061052e61052836610bcb565b90610d80565b9051908152f35b82843461064457602092836003193601126101355780356005548110156101e65761055f90610b4a565b919091610632575083835183819490845461057981610b93565b918285528585019660019283811690815f1461060f57506001146105d2575b505050506105a892500383610ac2565b6105c48351948593818552519283809286015285850190610af7565b601f01601f19168101030190f35b815285812095935091905b8183106105f75750889450508201016105a8888080610598565b855488840185015294850194879450918301916105dd565b93505050506105a894925060ff19168552151560051b8201018692888080610598565b634e487b7160e01b8352829052602482fd5b80fd5b9050346101e65761065736610b18565b939092610662610c17565b60ff825185858237602081878101858152030190205416156106e05784156106d2575080848492518385823760208185810160038152030190205551928392833781018481520390207f94f0e7cbfa031c365398e49bc4711956af7ab8c064e5959b5663aec769495dd28380a380f35b90516352cc3f7d60e01b8152fd5b9160209361045792519485946311feaca760e21b86528501526024840191610c42565b505034610135578160031936011261013557905490516001600160a01b039091168152602090f35b8334610644578060031936011261064457610744610c17565b80546001600160a01b03198116825581906001600160a01b03167f8be0079c531659141344cd1fd0a4f28419497f9722a3daafe3b4186f6b6457e08280a380f35b9050346101e65760203660031901126101e6577fb1740bfafb685e9cda34b9238959b40d11f603ba6db685c0468d4804140547b49160209135906107c7610c17565b8160015551908152a180f35b839150346101355760203660031901126101355780356001600160401b0381116101e65761080761080d9136908401610a91565b90610e88565b600154845163052571af60e51b81529283019190915260248201526080816044817f00000000000000000000000000000000000000000000000000000000000000006001600160a01b03165afa9182156108b9579161088b575b5061087181610f03565b606061087c82610fa5565b91015182519182526020820152f35b6108ac915060803d81116108b2575b6108a48183610ac2565b810190610e1c565b82610867565b503d61089a565b8351903d90823e3d90fd5b828434610644576020366003190112610644578235906001600160401b0382116106445750602092836108fc60ff9336908401610a91565b928386519485938437820190815203019020541690519015158152f35b8284346106445760209283600319360112610135578035916001600160401b0391828411610135573660238501121561013557838101359283116109b7575083519161096e601f8201601f1916870184610ac2565b8083528583019336602483830101116101e65791868281959360246109a59896018637830101528451938492839251928391610af7565b81016003815203019020549051908152f35b634e487b7160e01b825260419052602490fd5b839150346101355760203660031901126101355780356001600160401b0381116101e6576108076109fe9136908401610a91565b83516396834ad360e01b8152918201526080816024817f00000000000000000000000000000000000000000000000000000000000000006001600160a01b03165afa9182156108b9579161088b575061087181610f03565b5050346101355781600319360112610135576020906002549051908152f35b8490346101355781600319360112610135576020906001548152f35b9181601f84011215610abe578235916001600160401b038311610abe5760208381860195010111610abe57565b5f80fd5b90601f801991011681019081106001600160401b03821117610ae357604052565b634e487b7160e01b5f52604160045260245ffd5b5f5b838110610b085750505f910152565b8181015183820152602001610af9565b6040600319820112610abe57600435906001600160401b038211610abe57610b4291600401610a91565b909160243590565b600554811015610b7f5760055f527f036b6384b5eca791c62761152d0c79bb0604c104a5fb6f4eb0703f3154bb3db001905f90565b634e487b7160e01b5f52603260045260245ffd5b90600182811c92168015610bc1575b6020831014610bad57565b634e487b7160e01b5f52602260045260245ffd5b91607f1691610ba2565b906020600319830112610abe576004356001600160401b0392838211610abe5780602383011215610abe578160040135938411610abe5760248460051b83010111610abe576024019190565b5f546001600160a01b03163303610c2a57565b60405163118cdaa760e01b8152336004820152602490fd5b908060209392818452848401375f828201840152601f01601f1916010190565b9160208181850182865252604084019360408360051b82010194845f925b858410610c91575050505050505090565b90919293949596603f198282030184528735601e1984360301811215610abe5783018681019190356001600160401b038111610abe578036038313610abe57610cdf88928392600195610c42565b990194019401929594939190610c80565b8115610d7c577f00000000000000000000000000000000000000000000000000000000000000006001600160a01b031691823b15610abe57604051631df3cbc560e31b8152925f92849283918291610d4b9160048401610c62565b039134905af18015610d7157610d5e5750565b6001600160401b038111610ae357604052565b6040513d5f823e3d90fd5b5050565b8115610e165760405163d47eed4560e01b81529160209183918291610da9919060048401610c62565b03817f00000000000000000000000000000000000000000000000000000000000000006001600160a01b03165afa908115610d71575f91610de8575090565b906020823d8211610e0e575b81610e0160209383610ac2565b8101031261064457505190565b3d9150610df4565b50505f90565b90816080910312610abe57604051906001600160401b036080830181811184821017610ae35760405281518060070b8103610abe57835260208201519081168103610abe5760208301526040810151908160030b8203610abe5760609160408401520151606082015290565b60ff604051838382376020818581016004815203019020541615610ec057602090826040519384928337810160038152030190205490565b6040516311feaca760e21b815260206004820152918291610457916024840191610c42565b8115610eef570490565b634e487b7160e01b5f52601260045260245ffd5b5f815160070b1315610f7f576001600160401b03602081835116920151169061271091828102928184041490151715610f6b57610f3f91610ee5565b600254808211610f4d575050565b604492506040519163f0e51e7160e01b835260048301526024820152fd5b634e487b7160e01b5f52601160045260245ffd5b60405163f2da8b8360e01b8152600490fd5b63ffffffff16604d8111610f6b57600a0a90565b905f9182815160070b1315610f7f57600860406001600160401b0383511692015160030b01637fffffff19808212637fffffff831317611064578160030b918583121561102557508114611011576110089061100e93940363ffffffff16610f91565b90610ee5565b90565b634e487b7160e01b84526011600452602484fd5b905061103b915063ffffffff9492939416610f91565b91828102928184041490151715611050575090565b634e487b7160e01b81526011600452602490fd5b634e487b7160e01b85526011600452602485fdfea2646970667358221220afc60fcb6d6996c9913e863f828cdf16713c1efe8f4e54e26ed75098ecc05bd764736f6c634300081400330000000000000000000000008250f4af4b972684f7b336503e2d6dfedeb1487a000000000000000000000000d5011cddbe45a366b76c946575bd4b6f907f580f000000000000000000000000000000000000000000000000000000000000003c00000000000000000000000000000000000000000000000000000000000001f4",
        "nonce": "0x8c",
        "chainId": "0x2105"
      },
      "additionalContracts": [],
      "isFixedGasLimit": false
    },
    {
      "hash": "0x23564aa7a5c957d3cfc4d3879b4ec28630390d2c55712b97cf1886d1d2b43f4d",
      "transactionType": "CALL",
      "contractName": "PythOracle",
      "contractAddress": "0x23a9b51c0c8c82fb708af620e3997dcadfb02991",
      "function": "addAsset(string,bytes32)",
      "arguments": [
        "BTC",
        "0xe62df6c8b4a85fe1a67db44dc12de5db330f7ac66b72dc658afedf0f4a415b43"
      ],
      "transaction": {
        "from": "0xd5011cddbe45a366b76c946575bd4b6f907f580f",
        "to": "0x23a9b51c0c8c82fb708af620e3997dcadfb02991",
        "gas": "0x2963f",
        "value": "0x0",
        "input": "0xef099bc60000000000000000000000000000000000000000000000000000000000000040e62df6c8b4a85fe1a67db44dc12de5db330f7ac66b72dc658afedf0f4a415b4300000000000000000000000000000000000000000000000000000000000000034254430000000000000000000000000000000000000000000000000000000000",
        "nonce": "0x8d",
        "chainId": "0x2105"
      },
      "additionalContracts": [],
      "isFixedGasLimit": false
    },
    {
      "hash": "0xf9368d620850e80f5371b2250b4af99d9d3d06f661fa04c2d0ba4b06b596af59",
      "transactionType": "CALL",
      "contractName": "PythOracle",
      "contractAddress": "0x23a9b51c0c8c82fb708af620e3997dcadfb02991",
      "function": "addAsset(string,bytes32)",
      "arguments": [
        "ETH",
        "0xff61491a931112ddf1bd8147cd1b641375f79f5825126d665480874634fd0ace"
      ],
      "transaction": {
        "from": "0xd5011cddbe45a366b76c946575bd4b6f907f580f",
        "to": "0x23a9b51c0c8c82fb708af620e3997dcadfb02991",
        "gas": "0x21531",
        "value": "0x0",
        "input": "0xef099bc60000000000000000000000000000000000000000000000000000000000000040ff61491a931112ddf1bd8147cd1b641375f79f5825126d665480874634fd0ace00000000000000000000000000000000000000000000000000000000000000034554480000000000000000000000000000000000000000000000000000000000",
        "nonce": "0x8e",
        "chainId": "0x2105"
      },
      "additionalContracts": [],
      "isFixedGasLimit": false
    },
    {
      "hash": "0x20594d182abf4cdaa2604edc9b4c59693ef204bf5406382362161c4f7259d247",
      "transactionType": "CALL",
      "contractName": "PythOracle",
      "contractAddress": "0x23a9b51c0c8c82fb708af620e3997dcadfb02991",
      "function": "addAsset(string,bytes32)",
      "arguments": [
        "SOL",
        "0xef0d8b6fda2ceba41da15d4095d1da392a0d2f8ed0c6c7bc0f4cfac8c280b56d"
      ],
      "transaction": {
        "from": "0xd5011cddbe45a366b76c946575bd4b6f907f580f",
        "to": "0x23a9b51c0c8c82fb708af620e3997dcadfb02991",
        "gas": "0x21531",
        "value": "0x0",
        "input": "0xef099bc60000000000000000000000000000000000000000000000000000000000000040ef0d8b6fda2ceba41da15d4095d1da392a0d2f8ed0c6c7bc0f4cfac8c280b56d0000000000000000000000000000000000000000000000000000000000000003534f4c0000000000000000000000000000000000000000000000000000000000",
        "nonce": "0x8f",
        "chainId": "0x2105"
      },
      "additionalContracts": [],
      "isFixedGasLimit": false
    },
    {
      "hash": "0x1933d4212584e9a3aa7b4b2345427cca2e77326a471d2fb4498d0ff79a6ad322",
      "transactionType": "CALL",
      "contractName": "PythOracle",
      "contractAddress": "0x23a9b51c0c8c82fb708af620e3997dcadfb02991",
      "function": "addAsset(string,bytes32)",
      "arguments": [
        "BNB",
        "0x2f95862b045670cd22bee3114c39763a4a08beeb663b145d283c31d7d1101c4f"
      ],
      "transaction": {
        "from": "0xd5011cddbe45a366b76c946575bd4b6f907f580f",
        "to": "0x23a9b51c0c8c82fb708af620e3997dcadfb02991",
        "gas": "0x21531",
        "value": "0x0",
        "input": "0xef099bc600000000000000000000000000000000000000000000000000000000000000402f95862b045670cd22bee3114c39763a4a08beeb663b145d283c31d7d1101c4f0000000000000000000000000000000000000000000000000000000000000003424e420000000000000000000000000000000000000000000000000000000000",
        "nonce": "0x90",
        "chainId": "0x2105"
      },
      "additionalContracts": [],
      "isFixedGasLimit": false
    },
    {
      "hash": "0x624c675d7ca9fae30fdd7e1238ae94c1800d3a7d23485bea51ac2025a61eeebe",
      "transactionType": "CALL",
      "contractName": "PythOracle",
      "contractAddress": "0x23a9b51c0c8c82fb708af620e3997dcadfb02991",
      "function": "addAsset(string,bytes32)",
      "arguments": [
        "XRP",
        "0xec5d399846a9209f3fe5881d70aae9268c94339ff9817e8d18ff19fa05eea1c8"
      ],
      "transaction": {
        "from": "0xd5011cddbe45a366b76c946575bd4b6f907f580f",
        "to": "0x23a9b51c0c8c82fb708af620e3997dcadfb02991",
        "gas": "0x21531",
        "value": "0x0",
        "input": "0xef099bc60000000000000000000000000000000000000000000000000000000000000040ec5d399846a9209f3fe5881d70aae9268c94339ff9817e8d18ff19fa05eea1c800000000000000000000000000000000000000000000000000000000000000035852500000000000000000000000000000000000000000000000000000000000",
        "nonce": "0x91",
        "chainId": "0x2105"
      },
      "additionalContracts": [],
      "isFixedGasLimit": false
    },
    {
      "hash": "0x2979995d1d44e06d13f9276cf2ee1740f471d432a0bffec37684f8c3a24eeaa0",
      "transactionType": "CALL",
      "contractName": "PythOracle",
      "contractAddress": "0x23a9b51c0c8c82fb708af620e3997dcadfb02991",
      "function": "addAsset(string,bytes32)",
      "arguments": [
        "DOGE",
        "0xdcef50dd0a4cd2dcc17e45df1676dcb336a11a61c69df7a0299b0150c672d25c"
      ],
      "transaction": {
        "from": "0xd5011cddbe45a366b76c946575bd4b6f907f580f",
        "to": "0x23a9b51c0c8c82fb708af620e3997dcadfb02991",
        "gas": "0x234a0",
        "value": "0x0",
        "input": "0xef099bc60000000000000000000000000000000000000000000000000000000000000040dcef50dd0a4cd2dcc17e45df1676dcb336a11a61c69df7a0299b0150c672d25c0000000000000000000000000000000000000000000000000000000000000004444f474500000000000000000000000000000000000000000000000000000000",
        "nonce": "0x92",
        "chainId": "0x2105"
      },
      "additionalContracts": [],
      "isFixedGasLimit": false
    },
    {
      "hash": "0xb71a78c9535f2892366a58c7055b622ec8b1f19dcca5b94efc5a4265907ab2fc",
      "transactionType": "CALL",
      "contractName": "PythOracle",
      "contractAddress": "0x23a9b51c0c8c82fb708af620e3997dcadfb02991",
      "function": "addAsset(string,bytes32)",
      "arguments": [
        "ADA",
        "0x2a01deaec9e51a579277b34b122399984d0bbf57e2458a7e42fecd2829867a0d"
      ],
      "transaction": {
        "from": "0xd5011cddbe45a366b76c946575bd4b6f907f580f",
        "to": "0x23a9b51c0c8c82fb708af620e3997dcadfb02991",
        "gas": "0x21531",
        "value": "0x0",
        "input": "0xef099bc600000000000000000000000000000000000000000000000000000000000000402a01deaec9e51a579277b34b122399984d0bbf57e2458a7e42fecd2829867a0d00000000000000000000000000000000000000000000000000000000000000034144410000000000000000000000000000000000000000000000000000000000",
        "nonce": "0x93",
        "chainId": "0x2105"
      },
      "additionalContracts": [],
      "isFixedGasLimit": false
    },
    {
      "hash": "0xe3fb090ef268e679bb2f4939f16804af8f3cf5fb84c349b88c5f585d4fe34cd8",
      "transactionType": "CALL",
      "contractName": "PythOracle",
      "contractAddress": "0x23a9b51c0c8c82fb708af620e3997dcadfb02991",
      "function": "addAsset(string,bytes32)",
      "arguments": [
        "AVAX",
        "0x93da3352f9f1d105fdfe4971cfa80e9dd777bfc5d0f683ebb6e1294b92137bb7"
      ],
      "transaction": {
        "from": "0xd5011cddbe45a366b76c946575bd4b6f907f580f",
        "to": "0x23a9b51c0c8c82fb708af620e3997dcadfb02991",
        "gas": "0x234a0",
        "value": "0x0",
        "input": "0xef099bc6000000000000000000000000000000000000000000000000000000000000004093da3352f9f1d105fdfe4971cfa80e9dd777bfc5d0f683ebb6e1294b92137bb700000000000000000000000000000000000000000000000000000000000000044156415800000000000000000000000000000000000000000000000000000000",
        "nonce": "0x94",
        "chainId": "0x2105"
      },
      "additionalContracts": [],
      "isFixedGasLimit": false
    },
    {
      "hash": "0xffc4a3353797c580a02425d63f3f0dd814a671132043eed19d42750512651948",
      "transactionType": "CALL",
      "contractName": "PythOracle",
      "contractAddress": "0x23a9b51c0c8c82fb708af620e3997dcadfb02991",
      "function": "addAsset(string,bytes32)",
      "arguments": [
        "LINK",
        "0x8ac0c70fff57e9aefdf5edf44b51d62c2d433653cbb2cf5cc06bb115af04d221"
      ],
      "transaction": {
        "from": "0xd5011cddbe45a366b76c946575bd4b6f907f580f",
        "to": "0x23a9b51c0c8c82fb708af620e3997dcadfb02991",
        "gas": "0x234a0",
        "value": "0x0",
        "input": "0xef099bc600000000000000000000000000000000000000000000000000000000000000408ac0c70fff57e9aefdf5edf44b51d62c2d433653cbb2cf5cc06bb115af04d22100000000000000000000000000000000000000000000000000000000000000044c494e4b00000000000000000000000000000000000000000000000000000000",
        "nonce": "0x95",
        "chainId": "0x2105"
      },
      "additionalContracts": [],
      "isFixedGasLimit": false
    },
    {
      "hash": "0xd57a8e6d40e6829bc02152e9da737db65d56cce97be51373a7515329dcb1f0f9",
      "transactionType": "CALL",
      "contractName": "PythOracle",
      "contractAddress": "0x23a9b51c0c8c82fb708af620e3997dcadfb02991",
      "function": "addAsset(string,bytes32)",
      "arguments": [
        "DOT",
        "0xca3eed9b267293f6595901c734c7525ce8ef49adafe8284606ceb307afa2ca5b"
      ],
      "transaction": {
        "from": "0xd5011cddbe45a366b76c946575bd4b6f907f580f",
        "to": "0x23a9b51c0c8c82fb708af620e3997dcadfb02991",
        "gas": "0x21531",
        "value": "0x0",
        "input": "0xef099bc60000000000000000000000000000000000000000000000000000000000000040ca3eed9b267293f6595901c734c7525ce8ef49adafe8284606ceb307afa2ca5b0000000000000000000000000000000000000000000000000000000000000003444f540000000000000000000000000000000000000000000000000000000000",
        "nonce": "0x96",
        "chainId": "0x2105"
      },
      "additionalContracts": [],
      "isFixedGasLimit": false
    },
    {
      "hash": "0x17a6d04c7a2ef0d4dc641a0d959e701c762174391b46234f29ebd0e4afa889c6",
      "transactionType": "CREATE",
      "contractName": "Vault",
      "contractAddress": "0x7be193b00a4e4e98848b59a1d3de3859d83400c7",
      "function": null,
      "arguments": [
        "0xB88776127AC5b041b76D62c11cE6F021Ac48BCB4",
        "0x23A9B51c0C8C82FB708af620e3997DcAdFB02991",
        "0xD5011cddBE45A366B76C946575BD4B6f907F580F"
      ],
      "transaction": {
        "from": "0xd5011cddbe45a366b76c946575bd4b6f907f580f",
        "gas": "0x24201a",
        "value": "0x0",
        "input": "0x60a0346200014457601f62001fab38819003918201601f19168301916001600160401b03831184841017620001485780849260609460405283398101031262000144576200004d816200015c565b9060406200005e602083016200015c565b916001600160a01b039182916200007691016200015c565b169182156200012c57815f549460018060a01b03199480868816175f558260405197167f8be0079c531659141344cd1fd0a4f28419497f9722a3daafe3b4186f6b6457e05f80a360017f9b779b17422d0df92223018b32b4d1fa46e071723d6817e2486d003becc55f0055166080521690600154161760015542600755611e3990816200017282396080518181816103f30152818161082901528181610a560152818161119a0152818161144601526115ae0152f35b604051631e4fbdf760e01b81525f6004820152602490fd5b5f80fd5b634e487b7160e01b5f52604160045260245ffd5b51906001600160a01b0382168203620001445756fe608080604052600480361015610013575f80fd5b5f91823560e01c908163126082cf146115e657508063164e68de1461155a57806317aa3ba9146114af578063247d571b146114915780632835195f1461147557806342c65ae514611430578063431931d8146114145780634bfdfa6f146113f15780634f1703e0146113d357806350987bd5146113a8578063514ea4bf1461126b57806351c6590a146111565780636545749a1461113a578063715018a6146110e157806374375359146110ae578063789ff0e1146110905780637adbf9731461100d5780637d63e70614610be15780637dc0d1d014610bb85780637ece152314610b935780638047c3a914610b705780638da5cb5b14610b4957806395082d2514610b2a5780639b45ec9714610b0e5780639c8f9f23146109fc578063a3966a2414610990578063a45cbbdb146105b6578063a693600b14610598578063b43bea6e146104f9578063c0d7865514610491578063c8ca245a14610269578063f2fde38b146101e1578063f887ea40146101b55763f92c45b714610195575f80fd5b346101b157816003193601126101b15760209054604051908152f35b5080fd5b82346101de57806003193601126101de576002546040516001600160a01b039091168152602090f35b80fd5b50346101b15760203660031901126101b1576101fb611602565b610203611782565b6001600160a01b0390811691821561025157505f54826001600160601b0360a01b8216175f55167f8be0079c531659141344cd1fd0a4f28419497f9722a3daafe3b4186f6b6457e05f80a380f35b604051631e4fbdf760e01b8152908101849052602490fd5b50346101b157610278366116a2565b6102849492939461193b565b61028c611c58565b6102a18161029b368588611977565b87611c00565b93848752600860205260408720928354968715610480576001546040805163524f388960e01b8152602089820152966001600160a01b0393929091908890851681806102f1602482018a8c61182b565b03915afa968715610475578b97610443575b5061030e8782611d64565b501561043257917f5e67d1d70ca0bca0072133b1524612811bc09d9abd1c0e92dc96c10b08b95fac939160016103bc98979694019687549b61035d60405196879660c0885260c088019161182b565b971515602086015260408501528b606085015260808401523360a084015216930390a2674563918244f40000858110156104245761039f6103a791809761196a565b60035461191a565b600355548254908181101561041d579061196a565b9055825260086020526103d160408320611a2a565b806103ec575b5060015f80516020611de48339815191525580f35b61041790337f00000000000000000000000000000000000000000000000000000000000000006117ad565b5f6103d7565b508061196a565b506103a761039f868061196a565b604051636415f95960e01b81528890fd5b61046691975060403d60401161046e575b61045e818361172b565b8101906119bd565b50955f610303565b503d610454565b6040513d8d823e3d90fd5b604051636ec9be1160e01b81528690fd5b82346101de5760203660031901126101de576104ab611602565b6104b3611782565b600280546001600160a01b0319166001600160a01b039290921691821790557f7aed1d3e8155a07ccf395e44ea3109a0e2d6c9b29bbbe9f142d9790596f4dc808280a280f35b50346101b157602061053b9161050e36611618565b60015460405163d47eed4560e01b81529586946001600160a01b039092169385938493909190840161184b565b03915afa90811561058d578291610558575b602082604051908152f35b90506020813d8211610585575b816105726020938361172b565b810103126101b15760209150515f61054d565b3d9150610565565b6040513d84823e3d90fd5b82346101de57806003193601126101de576020600354604051908152f35b50346101b15760c03660031901126101b1576105d0611602565b60243567ffffffffffffffff811161098c576105ef9036908401611665565b6105f7611693565b926001600160a01b039060a435828116810361098857826002541633036109775761062061193b565b6044356064359161062f611c58565b6106448861063e36898b611977565b86611c00565b808b52600860205260408b208054908115610966579089959493929160408a8e60208c600154169161068f85519c8d958694859463524f388960e01b8652850152602484019161182b565b03915afa96871561095957917fa284b2770faef7bc99cacc3031eb947dc5645724c908d6b62d671e9da604398e9b9a99989795939160209f9795938897610937575b508515801561092d575b610923575b6001015480851161091b575b5084149c81875260088f5260408720610706868883611cd0565b6107108783611ca0565b61071c8160055461191a565b6005558787928b81135f146108a85761074661073e6107569361074d936119d3565b8654906119e6565b809461191a565b9260035461196a565b6003555b818110610899575050879e5b61077187835461196a565b825560018201916107a483548089105f1461088f5761079189809261196a565b85558554908181101561041d579061196a565b845542600582015560065460038201558115610885575b50610854575b5050508b80610823575b50506107e460405198899860e08a5260e08a019161182b565b9915158c8801526040870152606086015260808501528060a085015260c084015216930390a260015f80516020611de483398151915255604051908152f35b61084d917f00000000000000000000000000000000000000000000000000000000000000006117ad565b5f8b6107cb565b548154610869918181101561041d579061196a565b9055855260088d5261087d60408620611a2a565b5f80806107c1565b905054155f6107bb565b610791818061196a565b6108a29161196a565b9e610766565b8b81126108b7575b505061075a565b6108d7929350906108ca6108cf92611a1a565b6119d3565b8354906119e6565b90868211156109155786915b87811061090357506108f98a5b9260035461191a565b600355875f6108b0565b6109106108f9918961196a565b6108f0565b816108e3565b93505f6106ec565b90945084906106e0565b50818610156106db565b61095191975060403d60401161046e5761045e818361172b565b50955f6106d1565b8e604051903d90823e3d90fd5b604051636ec9be1160e01b81528c90fd5b604051639e41bdd760e01b81528790fd5b5f80fd5b8380fd5b50346101b157604060a0926109ba6109b46109aa366116a2565b9391903691611977565b90611c00565b815260086020522090815491600181015491600560ff600284015492840154169201549260405194855260208501526040840152151560608301526080820152f35b50346101b15760203660031901126101b157803590610a19611782565b610a2161193b565b610a2c8215156118da565b60035490610a3b81548361196a565b8311610aba575081610a4c9161196a565b600355610a7a81337f00000000000000000000000000000000000000000000000000000000000000006117ad565b6040519081527fc2c3f06e49b9f15e7b4af9055e183b0d73362e033ad82a07dec9bf984017171960203392a260015f80516020611de48339815191525580f35b60849060206040519162461bcd60e51b8352820152602760248201527f5661756c743a20696e73756666696369656e7420617661696c61626c65206c696044820152667175696469747960c81b6064820152fd5b82346101de57806003193601126101de57602060405160328152f35b82346101de57806003193601126101de5760206040516305f5e1008152f35b82346101de57806003193601126101de57546040516001600160a01b039091168152602090f35b82346101de57806003193601126101de576020604051674563918244f400008152f35b82346101de576020610bb0610ba7366116a2565b92919091611b4b565b604051908152f35b82346101de57806003193601126101de576001546040516001600160a01b039091168152602090f35b5090346101de5760a03660031901126101de57610bfc611602565b67ffffffffffffffff9060243582811161098c57610c1d9036908601611665565b9091610c27611693565b6002549094906001600160a01b0316330361097757610c4461193b565b60643515610ffc57610c54611c58565b610c6985610c63368688611977565b84611c00565b86526008602052604086209660018060a01b03600154169060408051809363524f388960e01b82526020848301528180610ca7602482018b8d61182b565b03915afa918215610ff1578892610fcf575b50600a60643502926064358404600a03610fbc57610cdd612710850460443561196a565b610ced612710860460055461191a565b600555610d00612710860460035461191a565b6003558a5490610d126064358361191a565b60018d0191610d2281845461191a565b936032850285810460321486151715610fa9578311610f985790878f83610d5794155f14610f535750600201555b865461191a565b80865560035410610f42578c5555818a0160ff1981541660ff8a1515161790554260058b01558511610f2f5750610d9160068901546116f3565b601f8111610ef1575b508697601f8511600114610e5e5790612710929185899a7f0c1fb245582e6325c5bb8948d367d06d50b210cae8887a7d67c317f71e1205f1999a91610e53575b508660011b905f198860031b1c19161760068201555b6003600654910155610e0f60405196879660c0885260c088019161182b565b97151560208601526044356040860152606435606086015260808501520460a08301526001600160a01b0316930390a260015f80516020611de48339815191525580f35b90508701355f610dda565b6006810188526020882098885b601f1987168110610ed95750907f0c1fb245582e6325c5bb8948d367d06d50b210cae8887a7d67c317f71e1205f197989961271094939287601f19811610610ec0575b5050600186811b016006820155610df0565b8801355f19600389901b60f8161c191690555f80610eae565b878201358b556001909a019960209182019101610e6b565b610f1f9060068a01895260208920601f870160051c81019160208810610f25575b601f0160051c0190611a04565b5f610d9a565b9091508190610f12565b634e487b7160e01b885260419052602487fd5b604051636bb2792960e01b81528590fd5b91506002610f91910191610f8b610f818c610f7b610f728754866119d3565b916064356119d3565b9061191a565b916064359061191a565b906119e6565b9055610d50565b604051633fe89cb960e11b81528790fd5b634e487b7160e01b8f526011885260248ffd5b634e487b7160e01b895260118252602489fd5b610fe991925060403d60401161046e5761045e818361172b565b50905f610cb9565b6040513d8a823e3d90fd5b604051630ffd11ad60e01b81528790fd5b50346101b15760203660031901126101b157611027611602565b61102f611782565b6001600160a01b031690811561105657506001600160601b0360a01b600154161760015580f35b60649060206040519162461bcd60e51b835282015260136024820152725661756c743a207a65726f206164647265737360681b6044820152fd5b82346101de57806003193601126101de576020600554604051908152f35b50346101b157816003193601126101b157600354905460209291818111156110da57610bb0925061196a565b5050610bb0565b82346101de57806003193601126101de576110fa611782565b5f80546001600160a01b0319811682556001600160a01b03167f8be0079c531659141344cd1fd0a4f28419497f9722a3daafe3b4186f6b6457e08280a380f35b82346101de57806003193601126101de57602060405160018152f35b50346101b15760203660031901126101b15780359061117361193b565b61117e8215156118da565b6040516323b872dd60e01b8452338252306024526044839052907f000000000000000000000000000000000000000000000000000000000000000060208560648180855af1600186511481161561124c575b83604052856060521561122f575050506111ec8160035461191a565b6003556040519081527fc17cea59c2955cb181b03393209566960365771dbba9dc3d510180e7cb31208860203392a260015f80516020611de48339815191525580f35b635274afe760e01b83526001600160a01b03169082015260249150fd5b600181151661126257813b15153d1516166111d0565b833d87823e3d90fd5b50346101b157602090816003193601126113a4576112c89192813581526008845260408120805492600190818301546002840154908860ff6003870154948701541694600660058801549701976040519889928282549d8e6116f3565b928386528686019e83811690815f146113815750600114611342575b505050506112f49250038761172b565b6040519889978852870152604086015260608501521515608084015260a083015260e060c0830152518060e0830152611334816101009485850190611761565b601f01601f19168101030190f35b815285812095935091905b81831061136757508d9450508201016112f45f80806112e4565b8554948301840194909452938301938a939183019161134d565b93505050506112f494925060ff19168c52151560051b8201018b925f80806112e4565b8280fd5b82346101de5760406113c56113bc366116a2565b92919091611a97565b825191151582526020820152f35b82346101de57806003193601126101de576020600654604051908152f35b82346101de57806003193601126101de576020604051670de0b6b3a76400008152f35b82346101de57806003193601126101de57602060405160968152f35b82346101de57806003193601126101de576040517f00000000000000000000000000000000000000000000000000000000000000006001600160a01b03168152602090f35b82346101de57806003193601126101de576020604051600a8152f35b82346101de57806003193601126101de576020600754604051908152f35b506114b936611618565b6002549192916001600160a01b0390811633036115495790849160015416803b156113a457604051631df3cbc560e31b8152948592839182916114fe9188840161184b565b039134905af1801561153e57611512578280f35b67ffffffffffffffff821161152b57506040525f808280f35b634e487b7160e01b835260419052602482fd5b6040513d85823e3d90fd5b604051639e41bdd760e01b81528390fd5b82346101de5760203660031901126101de57611574611602565b61157c611782565b7fc0819c13be868895eb93e40eaceb96de976442fa1d404e5c55f14bb65a8c489a602060055492846005556115d284827f00000000000000000000000000000000000000000000000000000000000000006117ad565b6040519384526001600160a01b031692a280f35b8390346101b157816003193601126101b1578061271060209252f35b600435906001600160a01b038216820361098857565b9060206003198301126109885760043567ffffffffffffffff9283821161098857806023830112156109885781600401359384116109885760248460051b83010111610988576024019190565b9181601f840112156109885782359167ffffffffffffffff8311610988576020838186019501011161098857565b60843590811515820361098857565b906060600319830112610988576004356001600160a01b038116810361098857916024359067ffffffffffffffff8211610988576116e291600401611665565b909160443580151581036109885790565b90600182811c92168015611721575b602083101461170d57565b634e487b7160e01b5f52602260045260245ffd5b91607f1691611702565b90601f8019910116810190811067ffffffffffffffff82111761174d57604052565b634e487b7160e01b5f52604160045260245ffd5b5f5b8381106117725750505f910152565b8181015183820152602001611763565b5f546001600160a01b0316330361179557565b60405163118cdaa760e01b8152336004820152602490fd5b60405163a9059cbb60e01b5f9081526001600160a01b039384166004526024949094529260209060448180855af160015f511481161561180c575b83604052156117f657505050565b635274afe760e01b835216600482015260249150fd5b600181151661182257813b15153d1516166117e8565b833d5f823e3d90fd5b908060209392818452848401375f828201840152601f01601f1916010190565b9160208181850182865252604084019360408360051b82010194845f925b85841061187a575050505050505090565b90919293949596603f198282030184528735601e198436030181121561098857830186810191903567ffffffffffffffff8111610988578036038313610988576118c98892839260019561182b565b990194019401929594939190611869565b156118e157565b60405162461bcd60e51b815260206004820152601160248201527005661756c743a20616d6f756e74203d203607c1b6044820152606490fd5b9190820180921161192757565b634e487b7160e01b5f52601160045260245ffd5b5f80516020611de483398151915260028154146119585760029055565b604051633ee5aeb560e01b8152600490fd5b9190820391821161192757565b92919267ffffffffffffffff821161174d57604051916119a1601f8201601f19166020018461172b565b829481845281830111610988578281602093845f960137010152565b9190826040910312610988576020825192015190565b8181029291811591840414171561192757565b81156119f0570490565b634e487b7160e01b5f52601260045260245ffd5b818110611a0f575050565b5f8155600101611a04565b600160ff1b8114611927575f0390565b60065f9182815582600182015582600282015582600382015582600482015582600582015501611a5a81546116f3565b80611a6457505050565b82601f8211600114611a7557505055565b9091808252611a93601f60208420940160051c840160018501611a04565b5555565b92611aaa919294936109b4368786611977565b925f938452600860205260409182852091825415611b43576001548451632ad286ad60e01b81526020600482015292859284926001600160a01b03169183918291611af991602484019161182b565b03915afa928315611b3a57611b16949593611b1a575b5050611d64565b9091565b611b31929350803d1061046e5761045e818361172b565b50905f80611b0f565b513d86823e3d90fd5b505050508190565b92611b5d9194936109b4368588611977565b5f526008602052604092835f20908154928315611bf7576001548651632ad286ad60e01b8152602060048201529392879285926001600160a01b03169183918291611bac91602484019161182b565b03915afa918215611bed57611bca94955f93611bcd575b5050611cd0565b90565b611be4929350803d1061046e5761045e818361172b565b50905f80611bc3565b85513d5f823e3d90fd5b505f9450505050565b91906035611c529160405193849160208301966001600160601b03199060601b168752611c37815180926020603487019101611761565b820190151560f81b603482015203601581018452018261172b565b51902090565b600754804214611c9d57611c6f610e10914261196a565b0480158015611c7c575050565b818004600114171561192757611c949060065461191a565b60065542600755565b50565b611cb29060036006549101549061196a565b908115611cca5761271091611cc6916119d3565b0490565b50505f90565b6002810154908115611d5c57600401545f9060ff1615611d345750611d0e829382611d1394119483865f14611d2557611d089161196a565b906119d3565b6119e6565b9015611d1c5790565b611bca90611a1a565b90611d2f9161196a565b611d08565b5080821092611d1392611d0e9190838615611d535790611d089161196a565b611d2f9161196a565b505050505f90565b611d718154809383611cd0565b905f808312611daf5750906001611d8992015461191a565b905b6127109182810292818404149015171561192757611da8916119e6565b6064811091565b939291611dbd600191611a1a565b91015480821015611dda57611dd49293945061196a565b90611d8b565b5050506001919056fe9b779b17422d0df92223018b32b4d1fa46e071723d6817e2486d003becc55f00a2646970667358221220845bc004bf17ccc9678adae8282462c65a6c0c33210afa34fdbef92ef1d193bf64736f6c63430008140033000000000000000000000000b88776127ac5b041b76d62c11ce6f021ac48bcb400000000000000000000000023a9b51c0c8c82fb708af620e3997dcadfb02991000000000000000000000000d5011cddbe45a366b76c946575bd4b6f907f580f",
        "nonce": "0x97",
        "chainId": "0x2105"
      },
      "additionalContracts": [],
      "isFixedGasLimit": false
    },
    {
      "hash": "0x27f15aea512039694745f0992d2e618c49d918ad2b7930727ec12731f23f8af2",
      "transactionType": "CREATE",
      "contractName": "Router",
      "contractAddress": "0x0cd70f3006d4cec0bb2524722b1d0934aef9757c",
      "function": null,
      "arguments": [
        "0xB88776127AC5b041b76D62c11cE6F021Ac48BCB4",
        "0x7bE193b00A4E4E98848b59A1D3DE3859d83400C7",
        "0xD5011cddBE45A366B76C946575BD4B6f907F580F"
      ],
      "transaction": {
        "from": "0xd5011cddbe45a366b76c946575bd4b6f907f580f",
        "gas": "0x1ba49c",
        "value": "0x0",
        "input": "0x60c034620001a357601f6200192e38819003918201601f19168301916001600160401b03831184841017620001a757808492606094604052833981010312620001a35760406200004f82620001bb565b916200005e60208201620001bb565b6001600160a01b039290918391620000779101620001bb565b169283156200018b575f80546001600160a01b03198116861782556040519585939290918416907f8be0079c531659141344cd1fd0a4f28419497f9722a3daafe3b4186f6b6457e09080a360017f9b779b17422d0df92223018b32b4d1fa46e071723d6817e2486d003becc55f0055166080521660a05261175d9081620001d1823960805181818161043c015281816105a40152818161062d0152818161069a01528181610ca501528181610da10152610f32015260a05181818161010b015281816102740152818161040c01528181610668015281816107bf015281816108750152818161098a01528181610a4e01528181610c7c01528181610d7101528181610e8d01528181610fe501526115200152f35b604051631e4fbdf760e01b81525f6004820152602490fd5b5f80fd5b634e487b7160e01b5f52604160045260245ffd5b51906001600160a01b0382168203620001a35756fe6080604052600436101561001a575b3615610018575f80fd5b005b5f803560e01c80632616d03614610fa05780633bbd64bc14610f6157806342c65ae514610f1c57806350987bd514610e5757806354619ee914610d475780636acb180e14610be05780636f41036f14610b4d578063715018a614610af4578063736d95ac14610a025780637ece1523146109535780638da5cb5b1461092c578063a3966a2414610838578063b43bea6e14610768578063c0fd18c81461050d578063ce863e57146103dc578063d1b9e8531461035d578063dabc56cb146101ca578063f2fde38b1461013d5763fbfa77cf146100f6575061000e565b3461013a578060031936011261013a576040517f00000000000000000000000000000000000000000000000000000000000000006001600160a01b03168152602090f35b80fd5b503461013a57602036600319011261013a576101576110fe565b61015f611209565b6001600160a01b039081169081156101b1575f54826bffffffffffffffffffffffff60a01b8216175f55167f8be0079c531659141344cd1fd0a4f28419497f9722a3daafe3b4186f6b6457e05f80a380f35b604051631e4fbdf760e01b815260048101849052602490fd5b503461013a5760c036600319011261013a576101e46110fe565b6024356001600160401b0381116103595761020390369060040161107f565b909160643591906044356102156110ac565b9361021e611114565b91338852600160205260ff604089205416156103475761025f92610240611389565b60405163a45cbbdb60e01b81529384918885858a8d8b600489016113cb565b6001600160a01b03969160209186919003818c7f00000000000000000000000000000000000000000000000000000000000000008b165af193841561033c5789946102f4575b50905f80516020611708833981519152966102ca94939260405197889716998761140d565b0390a260017f9b779b17422d0df92223018b32b4d1fa46e071723d6817e2486d003becc55f005580f35b935091906020843d8211610334575b816103106020938361125b565b810103126103305792519290915f805160206117088339815191526102a5565b5f80fd5b3d9150610303565b6040513d8b823e3d90fd5b60405163c60eb33560e01b8152600490fd5b8280fd5b503461013a57604036600319011261013a576103776110fe565b602435908115158092036103305760207f786c9db967bf0c6b16c7c91adae8a8c554b15a57d373fa2059607300f4616c00916103b1611209565b6001600160a01b0316808552600182526040808620805460ff191660ff87161790555193845292a280f35b506103e6366111aa565b6103f4959395949294611389565b82156104fb5785156104e95761040991611508565b857f00000000000000000000000000000000000000000000000000000000000000006001600160a01b03166104608382337f0000000000000000000000000000000000000000000000000000000000000000611300565b803b156104e5578183879286838b6104908b60405198899788968795633eb1f38360e11b8752336004880161129c565b03925af180156104da576104c2575b50505f805160206116e8833981519152936102ca916040519485943398866112d5565b6104cb90611234565b6104d657855f61049f565b8580fd5b6040513d84823e3d90fd5b5080fd5b6040516335e367c160e11b8152600490fd5b60405163162908e360e11b8152600490fd5b5061014036600319011261013a576105236110fe565b6001600160401b03906024358281116107645761054490369060040161107f565b9161054d6110ac565b9360a4359081116104d65761056690369060040161117a565b60e43560ff8116810361076057338852600160205260ff6040892054161561034757610590611389565b604435156104fb57606435156104e95787907f00000000000000000000000000000000000000000000000000000000000000006001600160a01b03163b156104e55760ff6040519163d505accf60e01b835260018060a01b0387166004840152306024840152604435604484015260c43560648401521660848201526101043560a48201526101243560c4820152818160e4818360018060a01b037f0000000000000000000000000000000000000000000000000000000000000000165af180156104da57610748575b505061066591611508565b847f00000000000000000000000000000000000000000000000000000000000000006001600160a01b03166106be60443582857f0000000000000000000000000000000000000000000000000000000000000000611300565b803b156104e557604051633eb1f38360e11b815290829082908183816106f08c6064356044358e8e8e6004880161129c565b03925af180156104da57610730575b50506102ca5f805160206116e88339815191529360405193849360018060a01b0316966064359260443592866112d5565b61073990611234565b61074457845f6106ff565b8480fd5b61075190611234565b61075c57865f61065a565b8680fd5b8780fd5b8380fd5b503461013a576020908160031936011261013a576004356001600160401b0381116104e5578261079f6107bb92369060040161117a565b604051635a1df53760e11b81529384928392906004840161147a565b03817f00000000000000000000000000000000000000000000000000000000000000006001600160a01b03165afa91821561082c57916107ff575b50604051908152f35b90508181813d8311610825575b610816818361125b565b8101031261033057515f6107f6565b503d61080c565b604051903d90823e3d90fd5b503461013a5761086b60a061084c3661112a565b6040516328e59a8960e21b81529586948594919391906004860161144b565b0381600180851b037f0000000000000000000000000000000000000000000000000000000000000000165afa80156104da578291838490859286946108ce575b5060a0955060405194855260208501526040840152151560608301526080820152f35b94505050505060a0813d8211610924575b816108ec60a0938361125b565b810103126104e55760a0915080519060208101519160408201519160806109156060830161143e565b9101519193929091925f6108ab565b3d91506108df565b503461013a578060031936011261013a57546040516001600160a01b039091168152602090f35b503461013a5761098660206109673661112a565b604051637ece152360e01b81529586948594919391906004860161144b565b03817f00000000000000000000000000000000000000000000000000000000000000006001600160a01b03165afa9081156104da5782916109cd575b602082604051908152f35b90506020813d82116109fa575b816109e76020938361125b565b810103126104e55760209150515f6109c2565b3d91506109da565b50610a24610a0f366111aa565b90610a1f97929594939697611389565b611508565b60405163a45cbbdb60e01b81529060208280610a4933888a878a8e85600489016113cb565b03818a7f00000000000000000000000000000000000000000000000000000000000000006001600160a01b03165af1918215610ae9578792610aa9575b50905f80516020611708833981519152946102ca9260405195869533998761140d565b91506020823d8211610ae1575b81610ac36020938361125b565b81010312610330579051905f80516020611708833981519152610a86565b3d9150610ab6565b6040513d89823e3d90fd5b503461013a578060031936011261013a57610b0d611209565b5f80546001600160a01b0319811682556001600160a01b03167f8be0079c531659141344cd1fd0a4f28419497f9722a3daafe3b4186f6b6457e08280a380f35b5060e036600319011261013a57610b626110fe565b6001600160401b0360243581811161076457610b8290369060040161107f565b909260443592606435610b936110ac565b94610b9c611114565b9260c435908111610bdc57610bb590369060040161117a565b9390338a52600160205260ff60408b205416156103475761025f9461024091610a1f611389565b8880fd5b5060c036600319011261013a57610bf56110fe565b6001600160401b0360243581811161076457610c1590369060040161107f565b9092606435604435610c256110ac565b9460a43590811161076057610c3e90369060040161117a565b338952600160205260ff60408a2054161561034757610c5b611389565b82156104fb5783156104e957610c7091611508565b6001600160a01b0393877f00000000000000000000000000000000000000000000000000000000000000008616610cc98482887f0000000000000000000000000000000000000000000000000000000000000000611300565b803b156104e557818385928b838a610cf98e8c604051998a9889978896633eb1f38360e11b88526004880161129c565b03925af180156104da57610d2d575b5050905f805160206116e8833981519152956102ca93926040519687961698866112d5565b610d3a9094939294611234565b610760579091875f610d08565b503461013a57610d56366110bb565b9194939290610d63611389565b85156104fb5780156104e9577f00000000000000000000000000000000000000000000000000000000000000006001600160a01b0316610dc58782337f0000000000000000000000000000000000000000000000000000000000000000611300565b803b156104d657604051633eb1f38360e11b81529086908290818381610df38a898f8c8f336004880161129c565b03925af18015610e4c57610e26575b506102ca905f805160206116e88339815191529495966040519485943398866112d5565b905f805160206116e88339815191529495610e436102ca93611234565b95945090610e02565b6040513d88823e3d90fd5b503461013a57610e896040610e6b3661112a565b84516350987bd560e01b81529586948594919391906004860161144b565b03817f00000000000000000000000000000000000000000000000000000000000000006001600160a01b03165afa80156104da5782918391610ed8575b60408383825191151582526020820152f35b9150506040813d604011610f14575b81610ef46040938361125b565b810103126104e557604091506020610f0b8261143e565b9101515f610ec6565b3d9150610ee7565b503461013a578060031936011261013a576040517f00000000000000000000000000000000000000000000000000000000000000006001600160a01b03168152602090f35b503461013a57602036600319011261013a5760209060ff906040906001600160a01b03610f8c6110fe565b168152600184522054166040519015158152f35b503461013a57610faf366110bb565b91610fbb939193611389565b60405163a45cbbdb60e01b81529060208280610fe033888a878a8e85600489016113cb565b03818a7f00000000000000000000000000000000000000000000000000000000000000006001600160a01b03165af1918215610ae957879261103f5750905f80516020611708833981519152946102ca9260405195869533998761140d565b91506020823d8211611077575b816110596020938361125b565b8101031261075c579051905f80516020611708833981519152610a86565b3d915061104c565b9181601f84011215610330578235916001600160401b038311610330576020838186019501011161033057565b60843590811515820361033057565b608060031982011261033057600435906001600160401b038211610330576110e59160040161107f565b9091602435906044359060643580151581036103305790565b600435906001600160a01b038216820361033057565b60a435906001600160a01b038216820361033057565b906060600319830112610330576004356001600160a01b03811681036103305791602435906001600160401b038211610330576111699160040161107f565b909160443580151581036103305790565b9181601f84011215610330578235916001600160401b038311610330576020808501948460051b01011161033057565b60a0600319820112610330576001600160401b039160043583811161033057826111d69160040161107f565b93909392602435926044359260643580151581036103305792608435918211610330576112059160040161117a565b9091565b5f546001600160a01b0316330361121c57565b60405163118cdaa760e01b8152336004820152602490fd5b6001600160401b03811161124757604052565b634e487b7160e01b5f52604160045260245ffd5b90601f801991011681019081106001600160401b0382111761124757604052565b908060209392818452848401375f828201840152601f01601f1916010190565b94916080949796936112c39260018060a01b0316875260a0602088015260a087019161127c565b95604085015260608401521515910152565b91606093969594916112ef9160808552608085019161127c565b951515602083015260408201520152565b6040516323b872dd60e01b5f9081526001600160a01b03938416600452938316602452604494909452909160209060648180855af160015f511481161561136a575b836040525f6060521561135457505050565b635274afe760e01b835216600482015260249150fd5b600181151661138057813b15153d151616611342565b833d5f823e3d90fd5b7f9b779b17422d0df92223018b32b4d1fa46e071723d6817e2486d003becc55f0060028154146113b95760029055565b604051633ee5aeb560e01b8152600490fd5b95916113f59060a0969295999894600180891b03809716895260c060208a015260c089019161127c565b97604087015260608601521515608085015216910152565b9296959491608094916114289160a0865260a086019161127c565b9615156020840152604083015260608201520152565b5190811515820361033057565b92916040926114729296959660018060a01b0316855260606020860152606085019161127c565b931515910152565b9160208181850182865252604084019360408360051b82010194845f925b8584106114a9575050505050505090565b90919293949596603f198282030184528735601e19843603018112156103305783018681019190356001600160401b038111610330578036038313610330576114f78892839260019561127c565b990194019401929594939190611498565b60408051635a1df53760e11b815260049360209391907f00000000000000000000000000000000000000000000000000000000000000006001600160a01b031685838061155885888c840161147a565b0381845afa9384156116dd575f9384956116ae575b5084341061169e5784611645575b5050509080341161158e575b5050505050565b3403348111611632578180808093335af1903d1561162c573d906001600160401b038211611619578351916115cc601f8201601f191687018461125b565b8252843d92013e5b156115e0578080611587565b5162461bcd60e51b8152918201526015602482015274149bdd5d195c8e881c99599d5b990819985a5b1959605a1b604482015260649150fd5b634e487b7160e01b815260418652602490fd5b506115d4565b634e487b7160e01b825260118552602482fd5b813b156107645791839161166f93868a8951968795869485936317aa3ba960e01b8552840161147a565b03925af1801561169457611685575b808061157b565b61168e90611234565b5f61167e565b84513d84823e3d90fd5b8551631f6aa10b60e31b81528890fd5b9094508681813d83116116d6575b6116c6818361125b565b810103126107645751935f61156d565b503d6116bc565b85513d5f823e3d90fdfe25a28f6a15bf50e78ef83e0fdecfdbdbfe804df1a65a5006e6946b23a6ddf42f7aee70d22f2501b4c21fa372fadc0e835976335a46cc77fc5bd5d29d01fa2cd6a264697066735822122087b8f3d1112741b3b0559e0cfac1347da7d3e322ef2e28ff709ba7f9fe66900864736f6c63430008140033000000000000000000000000b88776127ac5b041b76d62c11ce6f021ac48bcb40000000000000000000000007be193b00a4e4e98848b59a1d3de3859d83400c7000000000000000000000000d5011cddbe45a366b76c946575bd4b6f907f580f",
        "nonce": "0x98",
        "chainId": "0x2105"
      },
      "additionalContracts": [],
      "isFixedGasLimit": false
    },
    {
      "hash": "0xa004b0e7ac697bdaf3d2afc2fcfd18921ea82c800ef6b61eac81bc44f4c40459",
      "transactionType": "CALL",
      "contractName": "Vault",
      "contractAddress": "0x7be193b00a4e4e98848b59a1d3de3859d83400c7",
      "function": "setRouter(address)",
      "arguments": [
        "0x0cd70F3006d4cEC0bB2524722B1D0934aeF9757c"
      ],
      "transaction": {
        "from": "0xd5011cddbe45a366b76c946575bd4b6f907f580f",
        "to": "0x7be193b00a4e4e98848b59a1d3de3859d83400c7",
        "gas": "0x101a2",
        "value": "0x0",
        "input": "0xc0d786550000000000000000000000000cd70f3006d4cec0bb2524722b1d0934aef9757c",
        "nonce": "0x99",
        "chainId": "0x2105"
      },
      "additionalContracts": [],
      "isFixedGasLimit": false
    },
    {
      "hash": "0x2da90c123f42eb677d3ac810140cb7cce8af50dcb8e9d624d5b7b029dc39e0fb",
      "transactionType": "CALL",
      "contractName": "Router",
      "contractAddress": "0x0cd70f3006d4cec0bb2524722b1d0934aef9757c",
      "function": "setKeeper(address,bool)",
      "arguments": [
        "0xD5011cddBE45A366B76C946575BD4B6f907F580F",
        "true"
      ],
      "transaction": {
        "from": "0xd5011cddbe45a366b76c946575bd4b6f907f580f",
        "to": "0x0cd70f3006d4cec0bb2524722b1d0934aef9757c",
        "gas": "0x1029d",
        "value": "0x0",
        "input": "0xd1b9e853000000000000000000000000d5011cddbe45a366b76c946575bd4b6f907f580f0000000000000000000000000000000000000000000000000000000000000001",
        "nonce": "0x9a",
        "chainId": "0x2105"
      },
      "additionalContracts": [],
      "isFixedGasLimit": false
    },
    {
      "hash": "0x2c3965353b383981a773fbdbe8bbf3f11dc90699a7c3e33e1bf161eb35b0d322",
      "transactionType": "CALL",
      "contractName": "eUSD",
      "contractAddress": "0xb88776127ac5b041b76d62c11ce6f021ac48bcb4",
      "function": "setFaucetRelayer(address,bool)",
      "arguments": [
        "0xD5011cddBE45A366B76C946575BD4B6f907F580F",
        "true"
      ],
      "transaction": {
        "from": "0xd5011cddbe45a366b76c946575bd4b6f907f580f",
        "to": "0xb88776127ac5b041b76d62c11ce6f021ac48bcb4",
        "gas": "0x1025d",
        "value": "0x0",
        "input": "0x7b93a483000000000000000000000000d5011cddbe45a366b76c946575bd4b6f907f580f0000000000000000000000000000000000000000000000000000000000000001",
        "nonce": "0x9b",
        "chainId": "0x2105"
      },
      "additionalContracts": [],
      "isFixedGasLimit": false
    },
    {
      "hash": "0xc881782fbfc132d663bf4b0b00adc2fb923b035391e32274479ce38b857f0a04",
      "transactionType": "CALL",
      "contractName": "eUSD",
      "contractAddress": "0xb88776127ac5b041b76d62c11ce6f021ac48bcb4",
      "function": "approve(address,uint256)",
      "arguments": [
        "0x7bE193b00A4E4E98848b59A1D3DE3859d83400C7",
        "500000000000000000000000"
      ],
      "transaction": {
        "from": "0xd5011cddbe45a366b76c946575bd4b6f907f580f",
        "to": "0xb88776127ac5b041b76d62c11ce6f021ac48bcb4",
        "gas": "0xf850",
        "value": "0x0",
        "input": "0x095ea7b30000000000000000000000007be193b00a4e4e98848b59a1d3de3859d83400c70000000000000000000000000000000000000000000069e10de76676d0800000",
        "nonce": "0x9c",
        "chainId": "0x2105"
      },
      "additionalContracts": [],
      "isFixedGasLimit": false
    },
    {
      "hash": "0x390d30ec2eb024a7114ad26c024403dc28388f4576b3b1370fdffb207b70f59a",
      "transactionType": "CALL",
      "contractName": "Vault",
      "contractAddress": "0x7be193b00a4e4e98848b59a1d3de3859d83400c7",
      "function": "addLiquidity(uint256)",
      "arguments": [
        "500000000000000000000000"
      ],
      "transaction": {
        "from": "0xd5011cddbe45a366b76c946575bd4b6f907f580f",
        "to": "0x7be193b00a4e4e98848b59a1d3de3859d83400c7",
        "gas": "0x1cd27",
        "value": "0x0",
        "input": "0x51c6590a0000000000000000000000000000000000000000000069e10de76676d0800000",
        "nonce": "0x9d",
        "chainId": "0x2105"
      },
      "additionalContracts": [],
      "isFixedGasLimit": false
    }
  ],
  "receipts": [
    {
      "status": "0x1",
      "cumulativeGasUsed": "0x95c958",
      "logs": [
        {
          "address": "0xb88776127ac5b041b76d62c11ce6f021ac48bcb4",
          "topics": [
            "0x8be0079c531659141344cd1fd0a4f28419497f9722a3daafe3b4186f6b6457e0",
            "0x0000000000000000000000000000000000000000000000000000000000000000",
            "0x000000000000000000000000d5011cddbe45a366b76c946575bd4b6f907f580f"
          ],
          "data": "0x",
          "blockHash": "0x0000000000000000000000000000000000000000000000000000000000000000",
          "blockNumber": "0x2be7c6b",
          "blockTimestamp": "0x6a0755b9",
          "transactionHash": "0x23564aa7a5c957d3cfc4d3879b4ec28630390d2c55712b97cf1886d1d2b43f4d",
          "transactionIndex": "0x2e",
          "logIndex": "0xc4",
          "removed": false
        },
        {
          "address": "0xb88776127ac5b041b76d62c11ce6f021ac48bcb4",
          "topics": [
            "0xddf252ad1be2c89b69c2b068fc378daa952ba7f163c4a11628f55a4df523b3ef",
            "0x0000000000000000000000000000000000000000000000000000000000000000",
            "0x000000000000000000000000d5011cddbe45a366b76c946575bd4b6f907f580f"
          ],
          "data": "0x00000000000000000000000000000000000000000000d3c21bcecceda1000000",
          "blockHash": "0x0000000000000000000000000000000000000000000000000000000000000000",
          "blockNumber": "0x2be7c6b",
          "blockTimestamp": "0x6a0755b9",
          "transactionHash": "0x23564aa7a5c957d3cfc4d3879b4ec28630390d2c55712b97cf1886d1d2b43f4d",
          "transactionIndex": "0x2e",
          "logIndex": "0xc5",
          "removed": false
        }
      ],
      "logsBloom": "0x00000000000000000000000000000000000000000000000000800000000000000000000000000000000000000000000000000000000000000000000080000000000000000000000000000008000000000001000000000000000000000000000000000008020000000000000000000840000000000000000000000010000000400000000000000000000000000000000000000000000000000000000000000000000000000000000000000180000000000000000000000000000000000000000000000002000000000000000000000000000000000000000000000000000020000000000000000000000000000000000000000000000000000000000002000000",
      "type": "0x2",
      "transactionHash": "0x23564aa7a5c957d3cfc4d3879b4ec28630390d2c55712b97cf1886d1d2b43f4d",
      "transactionIndex": "0x2e",
      "blockHash": "0x0000000000000000000000000000000000000000000000000000000000000000",
      "blockNumber": "0x2be7c6b",
      "gasUsed": "0x10d265",
      "effectiveGasPrice": "0x55d70f",
      "blobGasUsed": "0x7dec4",
      "from": "0xd5011cddbe45a366b76c946575bd4b6f907f580f",
      "to": null,
      "contractAddress": "0xb88776127ac5b041b76d62c11ce6f021ac48bcb4",
      "daFootprintGasScalar": "0x94",
      "l1BaseFeeScalar": "0x8dd",
      "l1BlobBaseFee": "0x12599fd2",
      "l1BlobBaseFeeScalar": "0x101c12",
      "l1Fee": "0x230ca930be",
      "l1GasPrice": "0x12f24f58a",
      "l1GasUsed": "0xd9dc"
    },
    {
      "status": "0x1",
      "cumulativeGasUsed": "0xa5ce04",
      "logs": [
        {
          "address": "0x23a9b51c0c8c82fb708af620e3997dcadfb02991",
          "topics": [
            "0x8be0079c531659141344cd1fd0a4f28419497f9722a3daafe3b4186f6b6457e0",
            "0x0000000000000000000000000000000000000000000000000000000000000000",
            "0x000000000000000000000000d5011cddbe45a366b76c946575bd4b6f907f580f"
          ],
          "data": "0x",
          "blockHash": "0x0000000000000000000000000000000000000000000000000000000000000000",
          "blockNumber": "0x2be7c6b",
          "blockTimestamp": "0x6a0755b9",
          "transactionHash": "0x2c3965353b383981a773fbdbe8bbf3f11dc90699a7c3e33e1bf161eb35b0d322",
          "transactionIndex": "0x2f",
          "logIndex": "0xc6",
          "removed": false
        }
      ],
      "logsBloom": "0x00000000000000000000000000000000000000000000000000800000000000000000000000000000000000000000000000000000000000000000000080000000000000000000000200000000000000000001000000000000000000000000000000000000020000000000000000000840000000000000000000000000000000400000000000000000000000000000000000000000000000000000000000000000000000000000000000000080000000000000000000000000000000000000000000000000000000000000000000000000000000000000000004000000000020000000000000000000000000000000000000000000000000000000000000000000",
      "type": "0x2",
      "transactionHash": "0x2c3965353b383981a773fbdbe8bbf3f11dc90699a7c3e33e1bf161eb35b0d322",
      "transactionIndex": "0x2f",
      "blockHash": "0x0000000000000000000000000000000000000000000000000000000000000000",
      "blockNumber": "0x2be7c6b",
      "gasUsed": "0x1004ac",
      "effectiveGasPrice": "0x55d70f",
      "blobGasUsed": "0x6c6f4",
      "from": "0xd5011cddbe45a366b76c946575bd4b6f907f580f",
      "to": null,
      "contractAddress": "0x23a9b51c0c8c82fb708af620e3997dcadfb02991",
      "daFootprintGasScalar": "0x94",
      "l1BaseFeeScalar": "0x8dd",
      "l1BlobBaseFee": "0x12599fd2",
      "l1BlobBaseFeeScalar": "0x101c12",
      "l1Fee": "0x230ca930be",
      "l1GasPrice": "0x12f24f58a",
      "l1GasUsed": "0xbb97"
    },
    {
      "status": "0x1",
      "cumulativeGasUsed": "0xa792d6",
      "logs": [
        {
          "address": "0x23a9b51c0c8c82fb708af620e3997dcadfb02991",
          "topics": [
            "0x7e0f48a71f9495e723ee7cf01b0e8add4111a8c92c86a66e53e73b1683ed10af",
            "0xe98e2830be1a7e4156d656a7505e65d08c67660dc618072422e9c78053c261e9",
            "0xe62df6c8b4a85fe1a67db44dc12de5db330f7ac66b72dc658afedf0f4a415b43"
          ],
          "data": "0x",
          "blockHash": "0x0000000000000000000000000000000000000000000000000000000000000000",
          "blockNumber": "0x2be7c6b",
          "blockTimestamp": "0x6a0755b9",
          "transactionHash": "0x1933d4212584e9a3aa7b4b2345427cca2e77326a471d2fb4498d0ff79a6ad322",
          "transactionIndex": "0x30",
          "logIndex": "0xc7",
          "removed": false
        }
      ],
      "logsBloom": "0x00000000800000000000600000000000000000000000000000000000000000000000000000000000002000000000000000000000000000000000000000000000000000000000000200000000000000000000000000000000000000000000000000000000000000000000000000000800000000000000000000000000000000000000000000800000000000000000000000000000004000000000000000000000000000000000000000000000000000000000000000000000000000000000000000000000000000000000000040000000000000000000000004000000000000000000000000000000000100000000000000000000000000000000000000400000",
      "type": "0x2",
      "transactionHash": "0x1933d4212584e9a3aa7b4b2345427cca2e77326a471d2fb4498d0ff79a6ad322",
      "transactionIndex": "0x30",
      "blockHash": "0x0000000000000000000000000000000000000000000000000000000000000000",
      "blockNumber": "0x2be7c6b",
      "gasUsed": "0x1c4d2",
      "effectiveGasPrice": "0x55d70f",
      "blobGasUsed": "0x39d0",
      "from": "0xd5011cddbe45a366b76c946575bd4b6f907f580f",
      "to": "0x23a9b51c0c8c82fb708af620e3997dcadfb02991",
      "contractAddress": null,
      "daFootprintGasScalar": "0x94",
      "l1BaseFeeScalar": "0x8dd",
      "l1BlobBaseFee": "0x12599fd2",
      "l1BlobBaseFeeScalar": "0x101c12",
      "l1Fee": "0x230ca930be",
      "l1GasPrice": "0x12f24f58a",
      "l1GasUsed": "0x647"
    },
    {
      "status": "0x1",
      "cumulativeGasUsed": "0xa914dc",
      "logs": [
        {
          "address": "0x23a9b51c0c8c82fb708af620e3997dcadfb02991",
          "topics": [
            "0x7e0f48a71f9495e723ee7cf01b0e8add4111a8c92c86a66e53e73b1683ed10af",
            "0xaaaebeba3810b1e6b70781f14b2d72c1cb89c0b2b320c43bb67ff79f562f5ff4",
            "0xff61491a931112ddf1bd8147cd1b641375f79f5825126d665480874634fd0ace"
          ],
          "data": "0x",
          "blockHash": "0x0000000000000000000000000000000000000000000000000000000000000000",
          "blockNumber": "0x2be7c6b",
          "blockTimestamp": "0x6a0755b9",
          "transactionHash": "0xa004b0e7ac697bdaf3d2afc2fcfd18921ea82c800ef6b61eac81bc44f4c40459",
          "transactionIndex": "0x31",
          "logIndex": "0xc8",
          "removed": false
        }
      ],
      "logsBloom": "0x00000000800000000000400000000000000000000000000000000000002000000000000000000000000000000000000000010000000000000000000000000000000000000100000200000000000000000000000000000000000000000000000000000000000000000000000000000800000000040000000000000000000000000000000000800000000000008000000000000000000000000000000000000000000000000000000000000000000000000000000000000000000000000000000000000000000000000000000000000000000000000000000004001000000000000000000000000000000000000000000000000000000000000000000000000000",
      "type": "0x2",
      "transactionHash": "0xa004b0e7ac697bdaf3d2afc2fcfd18921ea82c800ef6b61eac81bc44f4c40459",
      "transactionIndex": "0x31",
      "blockHash": "0x0000000000000000000000000000000000000000000000000000000000000000",
      "blockNumber": "0x2be7c6b",
      "gasUsed": "0x18206",
      "effectiveGasPrice": "0x55d70f",
      "blobGasUsed": "0x3af8",
      "from": "0xd5011cddbe45a366b76c946575bd4b6f907f580f",
      "to": "0x23a9b51c0c8c82fb708af620e3997dcadfb02991",
      "contractAddress": null,
      "daFootprintGasScalar": "0x94",
      "l1BaseFeeScalar": "0x8dd",
      "l1BlobBaseFee": "0x12599fd2",
      "l1BlobBaseFeeScalar": "0x101c12",
      "l1Fee": "0x230ca930be",
      "l1GasPrice": "0x12f24f58a",
      "l1GasUsed": "0x66f"
    },
    {
      "status": "0x1",
      "cumulativeGasUsed": "0xe50e63",
      "logs": [
        {
          "address": "0x23a9b51c0c8c82fb708af620e3997dcadfb02991",
          "topics": [
            "0x7e0f48a71f9495e723ee7cf01b0e8add4111a8c92c86a66e53e73b1683ed10af",
            "0x0a3ec4fc70eaf64faf6eeda4e9b2bd4742a785464053aa23afad8bd24650e86f",
            "0xef0d8b6fda2ceba41da15d4095d1da392a0d2f8ed0c6c7bc0f4cfac8c280b56d"
          ],
          "data": "0x",
          "blockHash": "0x0000000000000000000000000000000000000000000000000000000000000000",
          "blockNumber": "0x2be7c6b",
          "blockTimestamp": "0x6a0755b9",
          "transactionHash": "0x27f15aea512039694745f0992d2e618c49d918ad2b7930727ec12731f23f8af2",
          "transactionIndex": "0x46",
          "logIndex": "0x10b",
          "removed": false
        }
      ],
      "logsBloom": "0x00000000800000000000400000000000000000000000000000000000000000000000000000000002000000000000000000001000000000000000000000000000000000000000000200000000000000000000000000000000000000000000000000000000000000000000000000000800000000000000000000000000000000000000000000800000000000000000000000000000000002000000000000000000000000000000000000000000000000000000000000000000000000000000000000000000004000000000000000000000000008000000000004000000000040000000000000000000000000000000000000000000000000000000000000000000",
      "type": "0x2",
      "transactionHash": "0x27f15aea512039694745f0992d2e618c49d918ad2b7930727ec12731f23f8af2",
      "transactionIndex": "0x46",
      "blockHash": "0x0000000000000000000000000000000000000000000000000000000000000000",
      "blockNumber": "0x2be7c6b",
      "gasUsed": "0x18206",
      "effectiveGasPrice": "0x55d70f",
      "blobGasUsed": "0x3af8",
      "from": "0xd5011cddbe45a366b76c946575bd4b6f907f580f",
      "to": "0x23a9b51c0c8c82fb708af620e3997dcadfb02991",
      "contractAddress": null,
      "daFootprintGasScalar": "0x94",
      "l1BaseFeeScalar": "0x8dd",
      "l1BlobBaseFee": "0x12599fd2",
      "l1BlobBaseFeeScalar": "0x101c12",
      "l1Fee": "0xbddde5db6",
      "l1GasPrice": "0x12f24f58a",
      "l1GasUsed": "0x66f"
    },
    {
      "status": "0x1",
      "cumulativeGasUsed": "0xe69069",
      "logs": [
        {
          "address": "0x23a9b51c0c8c82fb708af620e3997dcadfb02991",
          "topics": [
            "0x7e0f48a71f9495e723ee7cf01b0e8add4111a8c92c86a66e53e73b1683ed10af",
            "0x3ed03c38e59dc60c7b69c2a4bf68f9214acd953252b5a90e8f5f59583e9bc3ae",
            "0x2f95862b045670cd22bee3114c39763a4a08beeb663b145d283c31d7d1101c4f"
          ],
          "data": "0x",
          "blockHash": "0x0000000000000000000000000000000000000000000000000000000000000000",
          "blockNumber": "0x2be7c6b",
          "blockTimestamp": "0x6a0755b9",
          "transactionHash": "0xf9368d620850e80f5371b2250b4af99d9d3d06f661fa04c2d0ba4b06b596af59",
          "transactionIndex": "0x47",
          "logIndex": "0x10c",
          "removed": false
        }
      ],
      "logsBloom": "0x00000000800000000000400000000000000000000000000000000000000000000000000000000000000100000000000000000000000000000000000000000000000000000000000200000000000000000000000000000000000000000000000000000000000000000000000000000800000000000000000000000000000000000020000000800000000000000000000000000000000000000000000000008004000000000000000000000000000004000000000000000000000000000000000000000000000000000000000000000000000000000000000004800000000000000000000000000000000000000000000000000000000000000000000000000000",
      "type": "0x2",
      "transactionHash": "0xf9368d620850e80f5371b2250b4af99d9d3d06f661fa04c2d0ba4b06b596af59",
      "transactionIndex": "0x47",
      "blockHash": "0x0000000000000000000000000000000000000000000000000000000000000000",
      "blockNumber": "0x2be7c6b",
      "gasUsed": "0x18206",
      "effectiveGasPrice": "0x55d70f",
      "blobGasUsed": "0x3af8",
      "from": "0xd5011cddbe45a366b76c946575bd4b6f907f580f",
      "to": "0x23a9b51c0c8c82fb708af620e3997dcadfb02991",
      "contractAddress": null,
      "daFootprintGasScalar": "0x94",
      "l1BaseFeeScalar": "0x8dd",
      "l1BlobBaseFee": "0x12599fd2",
      "l1BlobBaseFeeScalar": "0x101c12",
      "l1Fee": "0xbddde5db6",
      "l1GasPrice": "0x12f24f58a",
      "l1GasUsed": "0x66f"
    },
    {
      "status": "0x1",
      "cumulativeGasUsed": "0xe8126f",
      "logs": [
        {
          "address": "0x23a9b51c0c8c82fb708af620e3997dcadfb02991",
          "topics": [
            "0x7e0f48a71f9495e723ee7cf01b0e8add4111a8c92c86a66e53e73b1683ed10af",
            "0xaeb724422620edb430dcaf22aeeff2e9388a578c02754cd08699652fb76035c7",
            "0xec5d399846a9209f3fe5881d70aae9268c94339ff9817e8d18ff19fa05eea1c8"
          ],
          "data": "0x",
          "blockHash": "0x0000000000000000000000000000000000000000000000000000000000000000",
          "blockNumber": "0x2be7c6b",
          "blockTimestamp": "0x6a0755b9",
          "transactionHash": "0x624c675d7ca9fae30fdd7e1238ae94c1800d3a7d23485bea51ac2025a61eeebe",
          "transactionIndex": "0x48",
          "logIndex": "0x10d",
          "removed": false
        }
      ],
      "logsBloom": "0x00000000800000000000400000000000000000000000000000000000000000000000000000000000000000000000000000000000000000000000000000000000000000000000000200000000000000000000000004000000000000000000000000000000000000000000000000000800000000000000000000000000000000000000000000800000000000000000000000000400000000000000000000000000000000000000000000000000000000000000000000000000000000000000000000000000000000000000000001000000000000000000000004020000000000000000000000000000000000000000000000000000000000001000000000000008",
      "type": "0x2",
      "transactionHash": "0x624c675d7ca9fae30fdd7e1238ae94c1800d3a7d23485bea51ac2025a61eeebe",
      "transactionIndex": "0x48",
      "blockHash": "0x0000000000000000000000000000000000000000000000000000000000000000",
      "blockNumber": "0x2be7c6b",
      "gasUsed": "0x18206",
      "effectiveGasPrice": "0x55d70f",
      "blobGasUsed": "0x3af8",
      "from": "0xd5011cddbe45a366b76c946575bd4b6f907f580f",
      "to": "0x23a9b51c0c8c82fb708af620e3997dcadfb02991",
      "contractAddress": null,
      "daFootprintGasScalar": "0x94",
      "l1BaseFeeScalar": "0x8dd",
      "l1BlobBaseFee": "0x12599fd2",
      "l1BlobBaseFeeScalar": "0x101c12",
      "l1Fee": "0xbddde5db6",
      "l1GasPrice": "0x12f24f58a",
      "l1GasUsed": "0x66f"
    },
    {
      "status": "0x1",
      "cumulativeGasUsed": "0xe99481",
      "logs": [
        {
          "address": "0x23a9b51c0c8c82fb708af620e3997dcadfb02991",
          "topics": [
            "0x7e0f48a71f9495e723ee7cf01b0e8add4111a8c92c86a66e53e73b1683ed10af",
            "0x9a3f52b1b31ae58da40209f38379e78c3a0756495a0f585d0b3c84a9e9718f9d",
            "0xdcef50dd0a4cd2dcc17e45df1676dcb336a11a61c69df7a0299b0150c672d25c"
          ],
          "data": "0x",
          "blockHash": "0x0000000000000000000000000000000000000000000000000000000000000000",
          "blockNumber": "0x2be7c6b",
          "blockTimestamp": "0x6a0755b9",
          "transactionHash": "0xd57a8e6d40e6829bc02152e9da737db65d56cce97be51373a7515329dcb1f0f9",
          "transactionIndex": "0x49",
          "logIndex": "0x10e",
          "removed": false
        }
      ],
      "logsBloom": "0x00000000800000000000400000000000000000000000040000000000000000000000000000000000000000000000000000000000000000000000000000000000000000000000000200000000000000000000000000000010000000000000000000000000000000000000000000000800000000000000000000000000000000000000000000800000000000000000000000000000000000000000000001000000000000000001000000000000000000000010000000000000000000000000000000000000000000000000000000000800000000000000000004000000000000000000000000000000000000000000000000000000000000000000000000000000",
      "type": "0x2",
      "transactionHash": "0xd57a8e6d40e6829bc02152e9da737db65d56cce97be51373a7515329dcb1f0f9",
      "transactionIndex": "0x49",
      "blockHash": "0x0000000000000000000000000000000000000000000000000000000000000000",
      "blockNumber": "0x2be7c6b",
      "gasUsed": "0x18212",
      "effectiveGasPrice": "0x55d70f",
      "blobGasUsed": "0x3b8c",
      "from": "0xd5011cddbe45a366b76c946575bd4b6f907f580f",
      "to": "0x23a9b51c0c8c82fb708af620e3997dcadfb02991",
      "contractAddress": null,
      "daFootprintGasScalar": "0x94",
      "l1BaseFeeScalar": "0x8dd",
      "l1BlobBaseFee": "0x12599fd2",
      "l1BlobBaseFeeScalar": "0x101c12",
      "l1Fee": "0xbddde5db6",
      "l1GasPrice": "0x12f24f58a",
      "l1GasUsed": "0x67c"
    },
    {
      "status": "0x1",
      "cumulativeGasUsed": "0xeb1687",
      "logs": [
        {
          "address": "0x23a9b51c0c8c82fb708af620e3997dcadfb02991",
          "topics": [
            "0x7e0f48a71f9495e723ee7cf01b0e8add4111a8c92c86a66e53e73b1683ed10af",
            "0x4e1e6d8aa1ff8f43f933718e113229b0ec6b091b699f7a8671bcbd606da36eea",
            "0x2a01deaec9e51a579277b34b122399984d0bbf57e2458a7e42fecd2829867a0d"
          ],
          "data": "0x",
          "blockHash": "0x0000000000000000000000000000000000000000000000000000000000000000",
          "blockNumber": "0x2be7c6b",
          "blockTimestamp": "0x6a0755b9",
          "transactionHash": "0x20594d182abf4cdaa2604edc9b4c59693ef204bf5406382362161c4f7259d247",
          "transactionIndex": "0x4a",
          "logIndex": "0x10f",
          "removed": false
        }
      ],
      "logsBloom": "0x00000000800000000000400000000000000000000000000000000000000000800020000000000000000000000000000000000000000000000000000000000000000000000000000200000000000000000000000000000000000000000000000000000000000000000000000000000800000010000000000000000000000000000000000000800000000000400000080000000000000000000000000000020000000000000000000000000000000000000000000000000000000000000000000000000000000000000000000000000000000000000000000004000000000000000000000000000000000000000000000000000000000000000000000000000000",
      "type": "0x2",
      "transactionHash": "0x20594d182abf4cdaa2604edc9b4c59693ef204bf5406382362161c4f7259d247",
      "transactionIndex": "0x4a",
      "blockHash": "0x0000000000000000000000000000000000000000000000000000000000000000",
      "blockNumber": "0x2be7c6b",
      "gasUsed": "0x18206",
      "effectiveGasPrice": "0x55d70f",
      "blobGasUsed": "0x3af8",
      "from": "0xd5011cddbe45a366b76c946575bd4b6f907f580f",
      "to": "0x23a9b51c0c8c82fb708af620e3997dcadfb02991",
      "contractAddress": null,
      "daFootprintGasScalar": "0x94",
      "l1BaseFeeScalar": "0x8dd",
      "l1BlobBaseFee": "0x12599fd2",
      "l1BlobBaseFeeScalar": "0x101c12",
      "l1Fee": "0xbddde5db6",
      "l1GasPrice": "0x12f24f58a",
      "l1GasUsed": "0x66f"
    },
    {
      "status": "0x1",
      "cumulativeGasUsed": "0xec9899",
      "logs": [
        {
          "address": "0x23a9b51c0c8c82fb708af620e3997dcadfb02991",
          "topics": [
            "0x7e0f48a71f9495e723ee7cf01b0e8add4111a8c92c86a66e53e73b1683ed10af",
            "0x49f18ed70c3220abb735efdc7fce309e384d008d4bc14c846dcce9e31050e29b",
            "0x93da3352f9f1d105fdfe4971cfa80e9dd777bfc5d0f683ebb6e1294b92137bb7"
          ],
          "data": "0x",
          "blockHash": "0x0000000000000000000000000000000000000000000000000000000000000000",
          "blockNumber": "0x2be7c6b",
          "blockTimestamp": "0x6a0755b9",
          "transactionHash": "0xb71a78c9535f2892366a58c7055b622ec8b1f19dcca5b94efc5a4265907ab2fc",
          "transactionIndex": "0x4b",
          "logIndex": "0x110",
          "removed": false
        }
      ],
      "logsBloom": "0x00000000800000000000400000000000000000000000000000000080000000000000000000000000000000000000000000000000000000000000000000000000000000000000000200000000000000000000000000000000000000000000000000000000000000000000000000000800000000000000000000000000000000000000000000800001000000008000000000000000000000000000000004000000000000000000000000000000000000000000000000000000000000000000000000000000000000000000000000000000000000000000000004000040000000000000000000000000000000000000000000000000000000000000000000400000",
      "type": "0x2",
      "transactionHash": "0xb71a78c9535f2892366a58c7055b622ec8b1f19dcca5b94efc5a4265907ab2fc",
      "transactionIndex": "0x4b",
      "blockHash": "0x0000000000000000000000000000000000000000000000000000000000000000",
      "blockNumber": "0x2be7c6b",
      "gasUsed": "0x18212",
      "effectiveGasPrice": "0x55d70f",
      "blobGasUsed": "0x3b8c",
      "from": "0xd5011cddbe45a366b76c946575bd4b6f907f580f",
      "to": "0x23a9b51c0c8c82fb708af620e3997dcadfb02991",
      "contractAddress": null,
      "daFootprintGasScalar": "0x94",
      "l1BaseFeeScalar": "0x8dd",
      "l1BlobBaseFee": "0x12599fd2",
      "l1BlobBaseFeeScalar": "0x101c12",
      "l1Fee": "0xbddde5db6",
      "l1GasPrice": "0x12f24f58a",
      "l1GasUsed": "0x67c"
    },
    {
      "status": "0x1",
      "cumulativeGasUsed": "0xee1aab",
      "logs": [
        {
          "address": "0x23a9b51c0c8c82fb708af620e3997dcadfb02991",
          "topics": [
            "0x7e0f48a71f9495e723ee7cf01b0e8add4111a8c92c86a66e53e73b1683ed10af",
            "0x921a3539bcb764c889432630877414523e7fbca00c211bc787aeae69e2e3a779",
            "0x8ac0c70fff57e9aefdf5edf44b51d62c2d433653cbb2cf5cc06bb115af04d221"
          ],
          "data": "0x",
          "blockHash": "0x0000000000000000000000000000000000000000000000000000000000000000",
          "blockNumber": "0x2be7c6b",
          "blockTimestamp": "0x6a0755b9",
          "transactionHash": "0x2da90c123f42eb677d3ac810140cb7cce8af50dcb8e9d624d5b7b029dc39e0fb",
          "transactionIndex": "0x4c",
          "logIndex": "0x111",
          "removed": false
        }
      ],
      "logsBloom": "0x02000000800000000000400000000000000000000000000000000000000000000000000000000000000000000000000000000000000000000000000000000000000000000000000200000000010000000000000000000000000000000000000000000000000000000000080000000800000000000000000000000000000000000000000000800100000000000000000000000000000000000000000000000000000000000000000000000000000000000000000000000000000000000000200000000000000000000000000000000000000000000000000004000000000000000000000000000000000000000000008000000000000000000000000000000000",
      "type": "0x2",
      "transactionHash": "0x2da90c123f42eb677d3ac810140cb7cce8af50dcb8e9d624d5b7b029dc39e0fb",
      "transactionIndex": "0x4c",
      "blockHash": "0x0000000000000000000000000000000000000000000000000000000000000000",
      "blockNumber": "0x2be7c6b",
      "gasUsed": "0x18212",
      "effectiveGasPrice": "0x55d70f",
      "blobGasUsed": "0x3b8c",
      "from": "0xd5011cddbe45a366b76c946575bd4b6f907f580f",
      "to": "0x23a9b51c0c8c82fb708af620e3997dcadfb02991",
      "contractAddress": null,
      "daFootprintGasScalar": "0x94",
      "l1BaseFeeScalar": "0x8dd",
      "l1BlobBaseFee": "0x12599fd2",
      "l1BlobBaseFeeScalar": "0x101c12",
      "l1Fee": "0xbddde5db6",
      "l1GasPrice": "0x12f24f58a",
      "l1GasUsed": "0x67c"
    },
    {
      "status": "0x1",
      "cumulativeGasUsed": "0xef9cb1",
      "logs": [
        {
          "address": "0x23a9b51c0c8c82fb708af620e3997dcadfb02991",
          "topics": [
            "0x7e0f48a71f9495e723ee7cf01b0e8add4111a8c92c86a66e53e73b1683ed10af",
            "0x9bd00430e53a5999c7c603cfc04cbdaf68bdbc180f300e4a2067937f57a0534f",
            "0xca3eed9b267293f6595901c734c7525ce8ef49adafe8284606ceb307afa2ca5b"
          ],
          "data": "0x",
          "blockHash": "0x0000000000000000000000000000000000000000000000000000000000000000",
          "blockNumber": "0x2be7c6b",
          "blockTimestamp": "0x6a0755b9",
          "transactionHash": "0x2979995d1d44e06d13f9276cf2ee1740f471d432a0bffec37684f8c3a24eeaa0",
          "transactionIndex": "0x4d",
          "logIndex": "0x112",
          "removed": false
        }
      ],
      "logsBloom": "0x00000000800000000000400000000000000000000000000000000000000000000000000000000000000000000000000000000000000000000000000000000000000000000000000200000000000400000000000000000000000000000000000000000000000000000000000000000800000000000000000000000000000000000000000000800000000000000000000000000000000000000000000040000000000000000000000000000000200000000000000000000000000000000000000000000000080000000000000000000000001000000000000004000000000000000000000000000000000000000000000000000000000000000000000000000004",
      "type": "0x2",
      "transactionHash": "0x2979995d1d44e06d13f9276cf2ee1740f471d432a0bffec37684f8c3a24eeaa0",
      "transactionIndex": "0x4d",
      "blockHash": "0x0000000000000000000000000000000000000000000000000000000000000000",
      "blockNumber": "0x2be7c6b",
      "gasUsed": "0x18206",
      "effectiveGasPrice": "0x55d70f",
      "blobGasUsed": "0x3af8",
      "from": "0xd5011cddbe45a366b76c946575bd4b6f907f580f",
      "to": "0x23a9b51c0c8c82fb708af620e3997dcadfb02991",
      "contractAddress": null,
      "daFootprintGasScalar": "0x94",
      "l1BaseFeeScalar": "0x8dd",
      "l1BlobBaseFee": "0x12599fd2",
      "l1BlobBaseFeeScalar": "0x101c12",
      "l1Fee": "0xbddde5db6",
      "l1GasPrice": "0x12f24f58a",
      "l1GasUsed": "0x66f"
    },
    {
      "status": "0x1",
      "cumulativeGasUsed": "0x10b669e",
      "logs": [
        {
          "address": "0x7be193b00a4e4e98848b59a1d3de3859d83400c7",
          "topics": [
            "0x8be0079c531659141344cd1fd0a4f28419497f9722a3daafe3b4186f6b6457e0",
            "0x0000000000000000000000000000000000000000000000000000000000000000",
            "0x000000000000000000000000d5011cddbe45a366b76c946575bd4b6f907f580f"
          ],
          "data": "0x",
          "blockHash": "0x0000000000000000000000000000000000000000000000000000000000000000",
          "blockNumber": "0x2be7c6b",
          "blockTimestamp": "0x6a0755b9",
          "transactionHash": "0x390d30ec2eb024a7114ad26c024403dc28388f4576b3b1370fdffb207b70f59a",
          "transactionIndex": "0x4e",
          "logIndex": "0x113",
          "removed": false
        }
      ],
      "logsBloom": "0x00000000000000000000000000000000000000000000000000800000000000000000000000000000000000000000000000000000000000000000000080000000000000000000000000000000000000000001000000000000000000000000000000000000020000000000000000040840000000000000000000000040000000400000000000000000000000000000000000000000000000000000000000000000000000000000000000000080000000000000000000000000000000000000000000000000000000000000000000000000000000000000000000000000000020000000000000000000000000000000000000002000000000000000000000000000",
      "type": "0x2",
      "transactionHash": "0x390d30ec2eb024a7114ad26c024403dc28388f4576b3b1370fdffb207b70f59a",
      "transactionIndex": "0x4e",
      "blockHash": "0x0000000000000000000000000000000000000000000000000000000000000000",
      "blockNumber": "0x2be7c6b",
      "gasUsed": "0x1bc9ed",
      "effectiveGasPrice": "0x55d70f",
      "blobGasUsed": "0xba564",
      "from": "0xd5011cddbe45a366b76c946575bd4b6f907f580f",
      "to": null,
      "contractAddress": "0x7be193b00a4e4e98848b59a1d3de3859d83400c7",
      "daFootprintGasScalar": "0x94",
      "l1BaseFeeScalar": "0x8dd",
      "l1BlobBaseFee": "0x12599fd2",
      "l1BlobBaseFeeScalar": "0x101c12",
      "l1Fee": "0xbddde5db6",
      "l1GasPrice": "0x12f24f58a",
      "l1GasUsed": "0x14251"
    },
    {
      "status": "0x1",
      "cumulativeGasUsed": "0x120aa2a",
      "logs": [
        {
          "address": "0x0cd70f3006d4cec0bb2524722b1d0934aef9757c",
          "topics": [
            "0x8be0079c531659141344cd1fd0a4f28419497f9722a3daafe3b4186f6b6457e0",
            "0x0000000000000000000000000000000000000000000000000000000000000000",
            "0x000000000000000000000000d5011cddbe45a366b76c946575bd4b6f907f580f"
          ],
          "data": "0x",
          "blockHash": "0x0000000000000000000000000000000000000000000000000000000000000000",
          "blockNumber": "0x2be7c6b",
          "blockTimestamp": "0x6a0755b9",
          "transactionHash": "0x17a6d04c7a2ef0d4dc641a0d959e701c762174391b46234f29ebd0e4afa889c6",
          "transactionIndex": "0x4f",
          "logIndex": "0x114",
          "removed": false
        }
      ],
      "logsBloom": "0x00000000000000000000000000000000000000100000000000800000000000000000000000000000000000000000000000000000000000000000000080000000000000000000000000000000000000000001000000000000000000000000000000000000020000000000000000000840000000000000000000000000000000400000000000000000000000000000000000000002000000000000000000000000000000000000000200000080000000000000000000000000000000000000000000000000000000000000000000000000000000000000000000000000000020000000000000000000000000000000000000000000000000000000000000000000",
      "type": "0x2",
      "transactionHash": "0x17a6d04c7a2ef0d4dc641a0d959e701c762174391b46234f29ebd0e4afa889c6",
      "transactionIndex": "0x4f",
      "blockHash": "0x0000000000000000000000000000000000000000000000000000000000000000",
      "blockNumber": "0x2be7c6b",
      "gasUsed": "0x15438c",
      "effectiveGasPrice": "0x55d70f",
      "blobGasUsed": "0x81dc8",
      "from": "0xd5011cddbe45a366b76c946575bd4b6f907f580f",
      "to": null,
      "contractAddress": "0x0cd70f3006d4cec0bb2524722b1d0934aef9757c",
      "daFootprintGasScalar": "0x94",
      "l1BaseFeeScalar": "0x8dd",
      "l1BlobBaseFee": "0x12599fd2",
      "l1BlobBaseFeeScalar": "0x101c12",
      "l1Fee": "0xbddde5db6",
      "l1GasPrice": "0x12f24f58a",
      "l1GasUsed": "0xe0a8"
    },
    {
      "status": "0x1",
      "cumulativeGasUsed": "0x12164b0",
      "logs": [
        {
          "address": "0x7be193b00a4e4e98848b59a1d3de3859d83400c7",
          "topics": [
            "0x7aed1d3e8155a07ccf395e44ea3109a0e2d6c9b29bbbe9f142d9790596f4dc80",
            "0x0000000000000000000000000cd70f3006d4cec0bb2524722b1d0934aef9757c"
          ],
          "data": "0x",
          "blockHash": "0x0000000000000000000000000000000000000000000000000000000000000000",
          "blockNumber": "0x2be7c6b",
          "blockTimestamp": "0x6a0755b9",
          "transactionHash": "0xb1c7b04b61a3c7142fb2e0dfc5010e467762d877c635e3140f6f6ab315532d2d",
          "transactionIndex": "0x50",
          "logIndex": "0x115",
          "removed": false
        }
      ],
      "logsBloom": "0x00000000000000000000000000000000000000000000000000000000000000000000000000000000000000000000000000000000000000000000000000000000000000000000000000000000000000000000000000000000000000000000000000000000000000000000000000040000000000000010000000000040000000000000000000000000200000000000000000000000400000000000000001000040000000000000000000000000000000000000000000000000000000000000000000000000000000000000000000000000000000000000000000000000000000000000000000000000002000000000000000002000000000000000000000000000",
      "type": "0x2",
      "transactionHash": "0xb1c7b04b61a3c7142fb2e0dfc5010e467762d877c635e3140f6f6ab315532d2d",
      "transactionIndex": "0x50",
      "blockHash": "0x0000000000000000000000000000000000000000000000000000000000000000",
      "blockNumber": "0x2be7c6b",
      "gasUsed": "0xba86",
      "effectiveGasPrice": "0x55d70f",
      "blobGasUsed": "0x39d0",
      "from": "0xd5011cddbe45a366b76c946575bd4b6f907f580f",
      "to": "0x7be193b00a4e4e98848b59a1d3de3859d83400c7",
      "contractAddress": null,
      "daFootprintGasScalar": "0x94",
      "l1BaseFeeScalar": "0x8dd",
      "l1BlobBaseFee": "0x12599fd2",
      "l1BlobBaseFeeScalar": "0x101c12",
      "l1Fee": "0xbddde5db6",
      "l1GasPrice": "0x12f24f58a",
      "l1GasUsed": "0x640"
    },
    {
      "status": "0x1",
      "cumulativeGasUsed": "0x1221fec",
      "logs": [
        {
          "address": "0x0cd70f3006d4cec0bb2524722b1d0934aef9757c",
          "topics": [
            "0x786c9db967bf0c6b16c7c91adae8a8c554b15a57d373fa2059607300f4616c00",
            "0x000000000000000000000000d5011cddbe45a366b76c946575bd4b6f907f580f"
          ],
          "data": "0x0000000000000000000000000000000000000000000000000000000000000001",
          "blockHash": "0x0000000000000000000000000000000000000000000000000000000000000000",
          "blockNumber": "0x2be7c6b",
          "blockTimestamp": "0x6a0755b9",
          "transactionHash": "0xc881782fbfc132d663bf4b0b00adc2fb923b035391e32274479ce38b857f0a04",
          "transactionIndex": "0x51",
          "logIndex": "0x116",
          "removed": false
        }
      ],
      "logsBloom": "0x00000000000000000000000000000000000000100000000000000000000000000000000000000000000000000000000000000000000000000000000080010000000000000000000000000000000000000000000000000000000000000000000000000000000000000000000400000040000000000000040000000000000000000000000000000000000000000000000000000002000000000000000000000000000000000000000200000080000000000000000000000000000000000000000000000000000000000000000000000000000000000000000000000000000000000000000000000000000000000000000000000000000000000000000000000000",
      "type": "0x2",
      "transactionHash": "0xc881782fbfc132d663bf4b0b00adc2fb923b035391e32274479ce38b857f0a04",
      "transactionIndex": "0x51",
      "blockHash": "0x0000000000000000000000000000000000000000000000000000000000000000",
      "blockNumber": "0x2be7c6b",
      "gasUsed": "0xbb3c",
      "effectiveGasPrice": "0x55d70f",
      "blobGasUsed": "0x39d0",
      "from": "0xd5011cddbe45a366b76c946575bd4b6f907f580f",
      "to": "0x0cd70f3006d4cec0bb2524722b1d0934aef9757c",
      "contractAddress": null,
      "daFootprintGasScalar": "0x94",
      "l1BaseFeeScalar": "0x8dd",
      "l1BlobBaseFee": "0x12599fd2",
      "l1BlobBaseFeeScalar": "0x101c12",
      "l1Fee": "0xbddde5db6",
      "l1GasPrice": "0x12f24f58a",
      "l1GasUsed": "0x640"
    },
    {
      "status": "0x1",
      "cumulativeGasUsed": "0x122dafa",
      "logs": [
        {
          "address": "0xb88776127ac5b041b76d62c11ce6f021ac48bcb4",
          "topics": [
            "0x112fe95ec055ba0a0150f27ccefea853f9d4ad5c5b5d0fbc9338d2f91ccc862e",
            "0x000000000000000000000000d5011cddbe45a366b76c946575bd4b6f907f580f"
          ],
          "data": "0x0000000000000000000000000000000000000000000000000000000000000001",
          "blockHash": "0x0000000000000000000000000000000000000000000000000000000000000000",
          "blockNumber": "0x2be7c6b",
          "blockTimestamp": "0x6a0755b9",
          "transactionHash": "0xe3fb090ef268e679bb2f4939f16804af8f3cf5fb84c349b88c5f585d4fe34cd8",
          "transactionIndex": "0x52",
          "logIndex": "0x117",
          "removed": false
        }
      ],
      "logsBloom": "0x00000000000000000000000000000000000000000000000000000000000000000000000000000000000000000000000000000000000000000000000080000000000000000000000000000000000000000000000000000000000000000000000000000008000000000000000000000040000000000000000000000800000000000000010000000000000000000000000000000000000000000000000000000000000000000000000000000180000000000000000000000000000000000000000000000000000000000000000000000000000000000000000000000000000000000000000000000000000400000000000000000000000000000000000002000000",
      "type": "0x2",
      "transactionHash": "0xe3fb090ef268e679bb2f4939f16804af8f3cf5fb84c349b88c5f585d4fe34cd8",
      "transactionIndex": "0x52",
      "blockHash": "0x0000000000000000000000000000000000000000000000000000000000000000",
      "blockNumber": "0x2be7c6b",
      "gasUsed": "0xbb0e",
      "effectiveGasPrice": "0x55d70f",
      "blobGasUsed": "0x39d0",
      "from": "0xd5011cddbe45a366b76c946575bd4b6f907f580f",
      "to": "0xb88776127ac5b041b76d62c11ce6f021ac48bcb4",
      "contractAddress": null,
      "daFootprintGasScalar": "0x94",
      "l1BaseFeeScalar": "0x8dd",
      "l1BlobBaseFee": "0x12599fd2",
      "l1BlobBaseFeeScalar": "0x101c12",
      "l1Fee": "0xbddde5db6",
      "l1GasPrice": "0x12f24f58a",
      "l1GasUsed": "0x640"
    },
    {
      "status": "0x1",
      "cumulativeGasUsed": "0x1238ec1",
      "logs": [
        {
          "address": "0xb88776127ac5b041b76d62c11ce6f021ac48bcb4",
          "topics": [
            "0x8c5be1e5ebec7d5bd14f71427d1e84f3dd0314c0f7b2291e5b200ac8c7c3b925",
            "0x000000000000000000000000d5011cddbe45a366b76c946575bd4b6f907f580f",
            "0x0000000000000000000000007be193b00a4e4e98848b59a1d3de3859d83400c7"
          ],
          "data": "0x0000000000000000000000000000000000000000000069e10de76676d0800000",
          "blockHash": "0x0000000000000000000000000000000000000000000000000000000000000000",
          "blockNumber": "0x2be7c6b",
          "blockTimestamp": "0x6a0755b9",
          "transactionHash": "0xffc4a3353797c580a02425d63f3f0dd814a671132043eed19d42750512651948",
          "transactionIndex": "0x53",
          "logIndex": "0x118",
          "removed": false
        }
      ],
      "logsBloom": "0x00000000000000040000000000000000000000000000000000000000000000000000000000000000000000000000000000000000000000000000000080200000000000000000000000000000000000000000000000000000000000000000000000000008000000000000000000000040000000000000000000000000000000000000000000000000000000000000000000000000000000000000000000000000020000000000000000000180000000000000000000000000000000000000000000000000000000000000000000000000000000000000000000000000000000000010000000100000000000000000000000000000000040000000000002000000",
      "type": "0x2",
      "transactionHash": "0xffc4a3353797c580a02425d63f3f0dd814a671132043eed19d42750512651948",
      "transactionIndex": "0x53",
      "blockHash": "0x0000000000000000000000000000000000000000000000000000000000000000",
      "blockNumber": "0x2be7c6b",
      "gasUsed": "0xb3c7",
      "effectiveGasPrice": "0x55d70f",
      "blobGasUsed": "0x39d0",
      "from": "0xd5011cddbe45a366b76c946575bd4b6f907f580f",
      "to": "0xb88776127ac5b041b76d62c11ce6f021ac48bcb4",
      "contractAddress": null,
      "daFootprintGasScalar": "0x94",
      "l1BaseFeeScalar": "0x8dd",
      "l1BlobBaseFee": "0x12599fd2",
      "l1BlobBaseFeeScalar": "0x101c12",
      "l1Fee": "0xbddde5db6",
      "l1GasPrice": "0x12f24f58a",
      "l1GasUsed": "0x640"
    },
    {
      "status": "0x1",
      "cumulativeGasUsed": "0x124ca13",
      "logs": [
        {
          "address": "0xb88776127ac5b041b76d62c11ce6f021ac48bcb4",
          "topics": [
            "0xddf252ad1be2c89b69c2b068fc378daa952ba7f163c4a11628f55a4df523b3ef",
            "0x000000000000000000000000d5011cddbe45a366b76c946575bd4b6f907f580f",
            "0x0000000000000000000000007be193b00a4e4e98848b59a1d3de3859d83400c7"
          ],
          "data": "0x0000000000000000000000000000000000000000000069e10de76676d0800000",
          "blockHash": "0x0000000000000000000000000000000000000000000000000000000000000000",
          "blockNumber": "0x2be7c6b",
          "blockTimestamp": "0x6a0755b9",
          "transactionHash": "0xb386723581128a86a4c302c0e2ff35779fd745259340ca57afd08d094fb05293",
          "transactionIndex": "0x54",
          "logIndex": "0x119",
          "removed": false
        },
        {
          "address": "0x7be193b00a4e4e98848b59a1d3de3859d83400c7",
          "topics": [
            "0xc17cea59c2955cb181b03393209566960365771dbba9dc3d510180e7cb312088",
            "0x000000000000000000000000d5011cddbe45a366b76c946575bd4b6f907f580f"
          ],
          "data": "0x0000000000000000000000000000000000000000000069e10de76676d0800000",
          "blockHash": "0x0000000000000000000000000000000000000000000000000000000000000000",
          "blockNumber": "0x2be7c6b",
          "blockTimestamp": "0x6a0755b9",
          "transactionHash": "0xb386723581128a86a4c302c0e2ff35779fd745259340ca57afd08d094fb05293",
          "transactionIndex": "0x54",
          "logIndex": "0x11a",
          "removed": false
        }
      ],
      "logsBloom": "0x00000000000000040000000000000000000000000000000000000000000000000000000000002000000000000000000000000000000000000000000080000000000002000000000000000008000000000000000000000000000000000000000000000008000000000000000000040040000000000000000000000050000000000000000000000000000200000000000000000000000000000000000000000000000000000000000000000180000000000000000000000000000000000000000000000002000000000000000000000000000000000000000000000000000000000000000000100000000000000000000000002000000040000000000002000000",
      "type": "0x2",
      "transactionHash": "0xb386723581128a86a4c302c0e2ff35779fd745259340ca57afd08d094fb05293",
      "transactionIndex": "0x54",
      "blockHash": "0x0000000000000000000000000000000000000000000000000000000000000000",
      "blockNumber": "0x2be7c6b",
      "gasUsed": "0x13b52",
      "effectiveGasPrice": "0x55d70f",
      "blobGasUsed": "0x39d0",
      "from": "0xd5011cddbe45a366b76c946575bd4b6f907f580f",
      "to": "0x7be193b00a4e4e98848b59a1d3de3859d83400c7",
      "contractAddress": null,
      "daFootprintGasScalar": "0x94",
      "l1BaseFeeScalar": "0x8dd",
      "l1BlobBaseFee": "0x12599fd2",
      "l1BlobBaseFeeScalar": "0x101c12",
      "l1Fee": "0xbddde5db6",
      "l1GasPrice": "0x12f24f58a",
      "l1GasUsed": "0x640"
    }
  ],
  "libraries": [],
  "pending": [],
  "returns": {},
  "timestamp": 1778865673039,
  "chain": 8453,
  "commit": null
}