{
  "transactions": [
    {
      "hash": "0xd68bc94a98172d47733b9dd6a46d482a55d6b14b5e36127b4aa65a5e366e0d14",
      "transactionType": "CREATE",
      "contractName": "eUSD",
      "contractAddress": "0xe5c8628cfb666815dc96ff19595da4ac4aa48f92",
      "function": null,
      "arguments": [
        "0xD5011cddBE45A366B76C946575BD4B6f907F580F"
      ],
      "transaction": {
        "from": "0xd5011cddbe45a366b76c946575bd4b6f907f580f",
        "gas": "0x106cbd",
        "value": "0x0",
        "input": "0x608034620003f657601f1990601f6001600160401b0362000fcd388190038381018616850183811186821017620003fa57859282916040528339602094859181010312620003f657516001600160a01b038082169590929091869003620003f6576200006a6200040e565b600d81526c11585cde551c985919481554d1609a1b868201526200008d6200040e565b9060049586835263195554d160e21b8884015281519284841162000302576003938454936001948581811c91168015620003eb575b8c821014620003d857908b828685941162000382575b50508b9085831160011462000321575f9262000315575b50505f1982871b1c191690841b1784555b8051948511620003025787548381811c91168015620002f7575b8a821014620002e4578281116200029c575b50889185116001146200023757849550908492915f956200022b575b50501b925f19911b1c19161782555b83156200021457600580546001600160a01b0319811686179091558491167f8be0079c531659141344cd1fd0a4f28419497f9722a3daafe3b4186f6b6457e05f80a360025469d3c21bcecceda1000000918282018092116200020157506002555f838152808352604080822080548401905551918252917fddf252ad1be2c89b69c2b068fc378daa952ba7f163c4a11628f55a4df523b3ef91a3604051610b9e90816200042f8239f35b601190634e487b7160e01b5f525260245ffd5b604051631e4fbdf760e01b81525f81840152602490fd5b015193505f8062000148565b929194841692875f5284895f20945f5b8b898383106200028457505050106200026a575b50505050811b01825562000157565b01519060f8845f19921b161c191690555f8080806200025b565b86860151895590970196948501948893500162000247565b885f52895f208380880160051c8201928c8910620002da575b0160051c019084905b828110620002ce5750506200012c565b5f8155018490620002be565b92508192620002b5565b602289634e487b7160e01b5f525260245ffd5b90607f16906200011a565b604188634e487b7160e01b5f525260245ffd5b015190505f80620000ef565b908c918a889516895f52835f20935f905b8282106200036a575050841162000352575b505050811b01845562000100565b01515f1983891b60f8161c191690555f808062000344565b8385015186558a979095019493840193018f62000332565b90919250875f5285825f209181860160051c8301938610620003ce575b918891869594930160051c01915b828110620003bf57508d9150620000d8565b5f8155859450889101620003ad565b925081926200039f565b60228b634e487b7160e01b5f525260245ffd5b90607f1690620000c2565b5f80fd5b634e487b7160e01b5f52604160045260245ffd5b60408051919082016001600160401b03811183821017620003fa5760405256fe60806040818152600480361015610014575f80fd5b5f92833560e01c90816306fdde031461087d57508063095ea7b3146107d457806318160ddd146107b557806323b872dd146106c3578063313ce567146106a757806340c10f19146105f857806370a08231146105c1578063715018a614610561578063766976401461053c5780637bc1f6cc146105045780637d1d5d19146104e65780638da5cb5b146104bd57806395d89b411461039d578063a9059cbb1461036c578063b44bae8e1461033f578063dd62ed3e146102f6578063de5f72fd146101785763f2fde38b146100e6575f80fd5b34610174576020366003190112610174576100ff6109b9565b906101086109e9565b6001600160a01b0391821692831561015e575050600554826bffffffffffffffffffffffff60a01b821617600555167f8be0079c531659141344cd1fd0a4f28419497f9722a3daafe3b4186f6b6457e08380a380f35b51631e4fbdf760e01b8152908101849052602490fd5b8280fd5b509190346102f257816003193601126102f257338252602090600682528083205480610266575b503383526006825242818420553315610250576002549169021e19e0c9bab24000009283810180911161023d57907fa19a7d2b5bf6a987a66e0eac8a6eb2dbd34ae6a43285849af788b224268ec02292916002553385528481528185208481540190558151848152857fddf252ad1be2c89b69c2b068fc378daa952ba7f163c4a11628f55a4df523b3ef833393a3815193845242908401523392a280f35b634e487b7160e01b855260118652602485fd5b5163ec442f0560e01b8152808401839052602490fd5b6201518081018091116102df57421061027f575f61019f565b5162461bcd60e51b81529283015250603660248201527f655553443a2046617563657420636f6f6c646f776e2063687561206b657420746044820152756875632c20767569206c6f6e672063686f207468656d60501b6064820152608490fd5b634e487b7160e01b845260118552602484fd5b5080fd5b5050346102f257806003193601126102f257806020926103146109b9565b61031c6109d3565b6001600160a01b0391821683526001865283832091168252845220549051908152f35b5050346102f25760203660031901126102f2576020906103656103606109b9565b610af0565b9051908152f35b5050346102f257806003193601126102f25760209061039661038c6109b9565b6024359033610a15565b5160018152f35b509190346102f257816003193601126102f257805190828454600181811c908083169283156104b3575b60209384841081146104a057838852908115610484575060011461042f575b505050829003601f01601f191682019267ffffffffffffffff84118385101761041c5750829182610418925282610972565b0390f35b634e487b7160e01b815260418552602490fd5b8787529192508591837f8a35acfbc15ff81a39ae7d344fd709f28e8600b4aa8c65c6b64bfe7fe36bd19b5b83851061047057505050508301015f80806103e6565b80548886018301529301928490820161045a565b60ff1916878501525050151560051b84010190505f80806103e6565b634e487b7160e01b895260228a52602489fd5b91607f16916103c7565b5050346102f257816003193601126102f25760055490516001600160a01b039091168152602090f35b5050346102f257816003193601126102f25760209051620151808152f35b5050346102f25760203660031901126102f25760209181906001600160a01b0361052c6109b9565b1681526006845220549051908152f35b5050346102f257816003193601126102f2576020905169021e19e0c9bab24000008152f35b83346105be57806003193601126105be5761057a6109e9565b600580546001600160a01b0319811690915581906001600160a01b03167f8be0079c531659141344cd1fd0a4f28419497f9722a3daafe3b4186f6b6457e08280a380f35b80fd5b5050346102f25760203660031901126102f25760209181906001600160a01b036105e96109b9565b16815280845220549051908152f35b5090346101745780600319360112610174576106126109b9565b906024359161061f6109e9565b6001600160a01b0316928315610692576002549083820180921161067f575084927fddf252ad1be2c89b69c2b068fc378daa952ba7f163c4a11628f55a4df523b3ef9260209260025585855284835280852082815401905551908152a380f35b634e487b7160e01b865260119052602485fd5b84602492519163ec442f0560e01b8352820152fd5b5050346102f257816003193601126102f2576020905160128152f35b5082346105be5760603660031901126105be576106de6109b9565b6106e66109d3565b916044359360018060a01b038316808352600160205286832033845260205286832054915f198310610721575b602088610396898989610a15565b86831061078957811561077257331561075b5750825260016020908152868320338452815291869020908590039055829061039687610713565b8751634a1406b160e11b8152908101849052602490fd5b875163e602df0560e01b8152908101849052602490fd5b8751637dc7a0d960e11b8152339181019182526020820193909352604081018790528291506060010390fd5b5050346102f257816003193601126102f2576020906002549051908152f35b50346101745781600319360112610174576107ed6109b9565b602435903315610866576001600160a01b031691821561084f57508083602095338152600187528181208582528752205582519081527f8c5be1e5ebec7d5bd14f71427d1e84f3dd0314c0f7b2291e5b200ac8c7c3b925843392a35160018152f35b8351634a1406b160e11b8152908101859052602490fd5b835163e602df0560e01b8152808401869052602490fd5b849150833461017457826003193601126101745782600354600181811c90808316928315610968575b60209384841081146104a05783885290811561094c57506001146108f657505050829003601f01601f191682019267ffffffffffffffff84118385101761041c5750829182610418925282610972565b600387529192508591837fc2575a0e9e593c00f959f8c92f12db2869c3395a3b0502d05e2516446f71f85b5b83851061093857505050508301018580806103e6565b805488860183015293019284908201610922565b60ff1916878501525050151560051b84010190508580806103e6565b91607f16916108a6565b602080825282518183018190529093925f5b8281106109a557505060409293505f838284010152601f8019910116010190565b818101860151848201604001528501610984565b600435906001600160a01b03821682036109cf57565b5f80fd5b602435906001600160a01b03821682036109cf57565b6005546001600160a01b031633036109fd57565b60405163118cdaa760e01b8152336004820152602490fd5b916001600160a01b03808416928315610ad85716928315610ac0575f9083825281602052604082205490838210610a8e575091604082827fddf252ad1be2c89b69c2b068fc378daa952ba7f163c4a11628f55a4df523b3ef958760209652828652038282205586815220818154019055604051908152a3565b60405163391434e360e21b81526001600160a01b03919091166004820152602481019190915260448101839052606490fd5b60405163ec442f0560e01b81525f6004820152602490fd5b604051634b637e8f60e11b81525f6004820152602490fd5b6001600160a01b03165f90815260066020526040812054908115610b63576201518080830192838111610b4f5783421015610b485742900301918211610b34575090565b634e487b7160e01b81526011600452602490fd5b5050905090565b634e487b7160e01b83526011600452602483fd5b90509056fea2646970667358221220c8a7a1891d2d3f2441dc731f6afebf7f4c91853cdcb7811aa1ef32e09b3cfc6964736f6c63430008140033000000000000000000000000d5011cddbe45a366b76c946575bd4b6f907f580f",
        "nonce": "0x50",
        "chainId": "0x2105"
      },
      "additionalContracts": [],
      "isFixedGasLimit": false
    },
    {
      "hash": "0x95b6ac49c682f64635bc6ef933a16ac202fdbce6e0abb1a3d21535112539d495",
      "transactionType": "CREATE",
      "contractName": "PythOracle",
      "contractAddress": "0x7661764ca12320ce9804440bfd4fbedf16c1a64c",
      "function": null,
      "arguments": [
        "0x8250f4aF4B972684F7b336503E2D6dFeDeB1487a",
        "0xD5011cddBE45A366B76C946575BD4B6f907F580F",
        "60",
        "500"
      ],
      "transaction": {
        "from": "0xd5011cddbe45a366b76c946575bd4b6f907f580f",
        "gas": "0x14d2df",
        "value": "0x0",
        "input": "0x60a03461015257601f61122d38819003918201601f19168301916001600160401b0383118484101761015657808492608094604052833981010312610152576100478161016a565b906100546020820161016a565b6040820151606090920151926001600160a01b039182169190821561013a575f80546001600160a01b03198116851782556040519491908416907f8be0079c531659141344cd1fd0a4f28419497f9722a3daafe3b4186f6b6457e09080a3169081156100f857506080526001556002556040516110ae908161017f82396080518181816101060152818161083001528181610a1601528181610cf80152610dad0152f35b62461bcd60e51b815260206004820152601560248201527f507974684f7261636c653a207a65726f207079746800000000000000000000006044820152606490fd5b604051631e4fbdf760e01b81525f6004820152602490fd5b5f80fd5b634e487b7160e01b5f52604160045260245ffd5b51906001600160a01b03821682036101525756fe6080604081815260049182361015610015575f80fd5b5f92833560e01c9182631584410a14610a7557508163267f99bf14610a565781632ad286ad146109ca5781632b25f552146109195781633932d1ab146108c4578163524f3889146107d357816356447ce814610785578163715018a61461072b5781638da5cb5b146107035781638ff5fd2414610647578163c68dbb3714610535578163d47eed4514610512578163ef0494e614610479578163ef099bc61461021c578163ef9e5e2814610206578163f1a640f8146101ea578163f2fde38b1461015757508063f7ae35ba146101395763f98d06f0146100f3575f80fd5b34610135578160031936011261013557517f00000000000000000000000000000000000000000000000000000000000000006001600160a01b03168152602090f35b5080fd5b50346101355781600319360112610135576020906005549051908152f35b919050346101e65760203660031901126101e6576001600160a01b038235818116939192908490036101e25761018b610c17565b83156101cc57505082546001600160a01b0319811683178455167f8be0079c531659141344cd1fd0a4f28419497f9722a3daafe3b4186f6b6457e08380a380f35b51631e4fbdf760e01b8152908101849052602490fd5b8480fd5b8280fd5b5050346101355781600319360112610135576020905160088152f35b8361021961021336610bcb565b90610cf0565b80f35b8383346101355761022c36610b18565b92610238929192610c17565b821561046a57831561045b578051958383883760ff878581018381526020998a9103019020541661043457815184848237878186810184815203019020966001978860ff19825416179055858351868682378281888101600381520301902055600554680100000000000000008110156104215780896102bb9201600555610b4a565b92909261040f576001600160401b0386116103fc57506102db8254610b93565b601f81116103b6575b508690601f86116001146103545750938087988197989682969793610349575b501b905f198560031b1c19161790555b51928392833781018481520390207f7e0f48a71f9495e723ee7cf01b0e8add4111a8c92c86a66e53e73b1683ed10af8380a380f35b87013592508a610304565b828852808820909891601f198716895b8181106103a157508798999a509680969710610388575b505083811b019055610314565b8601355f19600387901b60f8161c19169055888061037b565b87830135845592840192918b01918b01610364565b828852818820601f870160051c8101918388106103f2575b601f0160051c019089905b8281106103e75750506102e4565b8981550189906103d9565b90915081906103ce565b634e487b7160e01b885260419052602487fd5b634e487b7160e01b8852879052602487fd5b634e487b7160e01b885260418352602488fd5b9051630135d07360e41b8152908101869052918291610457916024840191610c42565b0390fd5b516352cc3f7d60e01b81528590fd5b51630cc613fb60e11b81528590fd5b919050346101e65760203660031901126101e657813591610498610c17565b82156104d05750816020917f8645ca089ce18ebf1d945a3f378ebf9ca08b4803badc7aa08925f2fbc32658089360025551908152a180f35b6020606492519162461bcd60e51b8352820152601b60248201527f507974684f7261636c653a207a65726f20636f6e666964656e636500000000006044820152fd5b5050346101355760209061052e61052836610bcb565b90610d80565b9051908152f35b82843461064457602092836003193601126101355780356005548110156101e65761055f90610b4a565b919091610632575083835183819490845461057981610b93565b918285528585019660019283811690815f1461060f57506001146105d2575b505050506105a892500383610ac2565b6105c48351948593818552519283809286015285850190610af7565b601f01601f19168101030190f35b815285812095935091905b8183106105f75750889450508201016105a8888080610598565b855488840185015294850194879450918301916105dd565b93505050506105a894925060ff19168552151560051b8201018692888080610598565b634e487b7160e01b8352829052602482fd5b80fd5b9050346101e65761065736610b18565b939092610662610c17565b60ff825185858237602081878101858152030190205416156106e05784156106d2575080848492518385823760208185810160038152030190205551928392833781018481520390207f94f0e7cbfa031c365398e49bc4711956af7ab8c064e5959b5663aec769495dd28380a380f35b90516352cc3f7d60e01b8152fd5b9160209361045792519485946311feaca760e21b86528501526024840191610c42565b505034610135578160031936011261013557905490516001600160a01b039091168152602090f35b8334610644578060031936011261064457610744610c17565b80546001600160a01b03198116825581906001600160a01b03167f8be0079c531659141344cd1fd0a4f28419497f9722a3daafe3b4186f6b6457e08280a380f35b9050346101e65760203660031901126101e6577fb1740bfafb685e9cda34b9238959b40d11f603ba6db685c0468d4804140547b49160209135906107c7610c17565b8160015551908152a180f35b839150346101355760203660031901126101355780356001600160401b0381116101e65761080761080d9136908401610a91565b90610e88565b600154845163052571af60e51b81529283019190915260248201526080816044817f00000000000000000000000000000000000000000000000000000000000000006001600160a01b03165afa9182156108b9579161088b575b5061087181610f03565b606061087c82610fa5565b91015182519182526020820152f35b6108ac915060803d81116108b2575b6108a48183610ac2565b810190610e1c565b82610867565b503d61089a565b8351903d90823e3d90fd5b828434610644576020366003190112610644578235906001600160401b0382116106445750602092836108fc60ff9336908401610a91565b928386519485938437820190815203019020541690519015158152f35b8284346106445760209283600319360112610135578035916001600160401b0391828411610135573660238501121561013557838101359283116109b7575083519161096e601f8201601f1916870184610ac2565b8083528583019336602483830101116101e65791868281959360246109a59896018637830101528451938492839251928391610af7565b81016003815203019020549051908152f35b634e487b7160e01b825260419052602490fd5b839150346101355760203660031901126101355780356001600160401b0381116101e6576108076109fe9136908401610a91565b83516396834ad360e01b8152918201526080816024817f00000000000000000000000000000000000000000000000000000000000000006001600160a01b03165afa9182156108b9579161088b575061087181610f03565b5050346101355781600319360112610135576020906002549051908152f35b8490346101355781600319360112610135576020906001548152f35b9181601f84011215610abe578235916001600160401b038311610abe5760208381860195010111610abe57565b5f80fd5b90601f801991011681019081106001600160401b03821117610ae357604052565b634e487b7160e01b5f52604160045260245ffd5b5f5b838110610b085750505f910152565b8181015183820152602001610af9565b6040600319820112610abe57600435906001600160401b038211610abe57610b4291600401610a91565b909160243590565b600554811015610b7f5760055f527f036b6384b5eca791c62761152d0c79bb0604c104a5fb6f4eb0703f3154bb3db001905f90565b634e487b7160e01b5f52603260045260245ffd5b90600182811c92168015610bc1575b6020831014610bad57565b634e487b7160e01b5f52602260045260245ffd5b91607f1691610ba2565b906020600319830112610abe576004356001600160401b0392838211610abe5780602383011215610abe578160040135938411610abe5760248460051b83010111610abe576024019190565b5f546001600160a01b03163303610c2a57565b60405163118cdaa760e01b8152336004820152602490fd5b908060209392818452848401375f828201840152601f01601f1916010190565b9160208181850182865252604084019360408360051b82010194845f925b858410610c91575050505050505090565b90919293949596603f198282030184528735601e1984360301811215610abe5783018681019190356001600160401b038111610abe578036038313610abe57610cdf88928392600195610c42565b990194019401929594939190610c80565b8115610d7c577f00000000000000000000000000000000000000000000000000000000000000006001600160a01b031691823b15610abe57604051631df3cbc560e31b8152925f92849283918291610d4b9160048401610c62565b039134905af18015610d7157610d5e5750565b6001600160401b038111610ae357604052565b6040513d5f823e3d90fd5b5050565b8115610e165760405163d47eed4560e01b81529160209183918291610da9919060048401610c62565b03817f00000000000000000000000000000000000000000000000000000000000000006001600160a01b03165afa908115610d71575f91610de8575090565b906020823d8211610e0e575b81610e0160209383610ac2565b8101031261064457505190565b3d9150610df4565b50505f90565b90816080910312610abe57604051906001600160401b036080830181811184821017610ae35760405281518060070b8103610abe57835260208201519081168103610abe5760208301526040810151908160030b8203610abe5760609160408401520151606082015290565b60ff604051838382376020818581016004815203019020541615610ec057602090826040519384928337810160038152030190205490565b6040516311feaca760e21b815260206004820152918291610457916024840191610c42565b8115610eef570490565b634e487b7160e01b5f52601260045260245ffd5b5f815160070b1315610f7f576001600160401b03602081835116920151169061271091828102928184041490151715610f6b57610f3f91610ee5565b600254808211610f4d575050565b604492506040519163f0e51e7160e01b835260048301526024820152fd5b634e487b7160e01b5f52601160045260245ffd5b60405163f2da8b8360e01b8152600490fd5b63ffffffff16604d8111610f6b57600a0a90565b905f9182815160070b1315610f7f57600860406001600160401b0383511692015160030b01637fffffff19808212637fffffff831317611064578160030b918583121561102557508114611011576110089061100e93940363ffffffff16610f91565b90610ee5565b90565b634e487b7160e01b84526011600452602484fd5b905061103b915063ffffffff9492939416610f91565b91828102928184041490151715611050575090565b634e487b7160e01b81526011600452602490fd5b634e487b7160e01b85526011600452602485fdfea2646970667358221220afc60fcb6d6996c9913e863f828cdf16713c1efe8f4e54e26ed75098ecc05bd764736f6c634300081400330000000000000000000000008250f4af4b972684f7b336503e2d6dfedeb1487a000000000000000000000000d5011cddbe45a366b76c946575bd4b6f907f580f000000000000000000000000000000000000000000000000000000000000003c00000000000000000000000000000000000000000000000000000000000001f4",
        "nonce": "0x51",
        "chainId": "0x2105"
      },
      "additionalContracts": [],
      "isFixedGasLimit": false
    },
    {
      "hash": "0xbdbfac9f170a33a862610d5306bac69d86150c413aa1f93caaa0aca04b268087",
      "transactionType": "CALL",
      "contractName": "PythOracle",
      "contractAddress": "0x7661764ca12320ce9804440bfd4fbedf16c1a64c",
      "function": "addAsset(string,bytes32)",
      "arguments": [
        "BTC",
        "0xe62df6c8b4a85fe1a67db44dc12de5db330f7ac66b72dc658afedf0f4a415b43"
      ],
      "transaction": {
        "from": "0xd5011cddbe45a366b76c946575bd4b6f907f580f",
        "to": "0x7661764ca12320ce9804440bfd4fbedf16c1a64c",
        "gas": "0x2963f",
        "value": "0x0",
        "input": "0xef099bc60000000000000000000000000000000000000000000000000000000000000040e62df6c8b4a85fe1a67db44dc12de5db330f7ac66b72dc658afedf0f4a415b4300000000000000000000000000000000000000000000000000000000000000034254430000000000000000000000000000000000000000000000000000000000",
        "nonce": "0x52",
        "chainId": "0x2105"
      },
      "additionalContracts": [],
      "isFixedGasLimit": false
    },
    {
      "hash": "0xd30f1c74bd12aad539546fa9fe78dee34f12d8bbe959d05b6a9435c1ee31adda",
      "transactionType": "CALL",
      "contractName": "PythOracle",
      "contractAddress": "0x7661764ca12320ce9804440bfd4fbedf16c1a64c",
      "function": "addAsset(string,bytes32)",
      "arguments": [
        "ETH",
        "0xff61491a931112ddf1bd8147cd1b641375f79f5825126d665480874634fd0ace"
      ],
      "transaction": {
        "from": "0xd5011cddbe45a366b76c946575bd4b6f907f580f",
        "to": "0x7661764ca12320ce9804440bfd4fbedf16c1a64c",
        "gas": "0x21531",
        "value": "0x0",
        "input": "0xef099bc60000000000000000000000000000000000000000000000000000000000000040ff61491a931112ddf1bd8147cd1b641375f79f5825126d665480874634fd0ace00000000000000000000000000000000000000000000000000000000000000034554480000000000000000000000000000000000000000000000000000000000",
        "nonce": "0x53",
        "chainId": "0x2105"
      },
      "additionalContracts": [],
      "isFixedGasLimit": false
    },
    {
      "hash": "0xc894cdc3a41bd8a3c3c8808db76209c4c846e3965f3d660a26a0fe069ff73c49",
      "transactionType": "CALL",
      "contractName": "PythOracle",
      "contractAddress": "0x7661764ca12320ce9804440bfd4fbedf16c1a64c",
      "function": "addAsset(string,bytes32)",
      "arguments": [
        "SOL",
        "0xef0d8b6fda2ceba41da15d4095d1da392a0d2f8ed0c6c7bc0f4cfac8c280b56d"
      ],
      "transaction": {
        "from": "0xd5011cddbe45a366b76c946575bd4b6f907f580f",
        "to": "0x7661764ca12320ce9804440bfd4fbedf16c1a64c",
        "gas": "0x21531",
        "value": "0x0",
        "input": "0xef099bc60000000000000000000000000000000000000000000000000000000000000040ef0d8b6fda2ceba41da15d4095d1da392a0d2f8ed0c6c7bc0f4cfac8c280b56d0000000000000000000000000000000000000000000000000000000000000003534f4c0000000000000000000000000000000000000000000000000000000000",
        "nonce": "0x54",
        "chainId": "0x2105"
      },
      "additionalContracts": [],
      "isFixedGasLimit": false
    },
    {
      "hash": "0x632ee4baae11e8934f58f1a8b650a727e509603cc58cabe76f3694e496aafc45",
      "transactionType": "CALL",
      "contractName": "PythOracle",
      "contractAddress": "0x7661764ca12320ce9804440bfd4fbedf16c1a64c",
      "function": "addAsset(string,bytes32)",
      "arguments": [
        "BNB",
        "0x2f95862b045670cd22bee3114c39763a4a08beeb663b145d283c31d7d1101c4f"
      ],
      "transaction": {
        "from": "0xd5011cddbe45a366b76c946575bd4b6f907f580f",
        "to": "0x7661764ca12320ce9804440bfd4fbedf16c1a64c",
        "gas": "0x21531",
        "value": "0x0",
        "input": "0xef099bc600000000000000000000000000000000000000000000000000000000000000402f95862b045670cd22bee3114c39763a4a08beeb663b145d283c31d7d1101c4f0000000000000000000000000000000000000000000000000000000000000003424e420000000000000000000000000000000000000000000000000000000000",
        "nonce": "0x55",
        "chainId": "0x2105"
      },
      "additionalContracts": [],
      "isFixedGasLimit": false
    },
    {
      "hash": "0xbef2dd3f2c0332b031e91f6f09d0fd73981478aa162dd063da8fec5955848f1a",
      "transactionType": "CALL",
      "contractName": "PythOracle",
      "contractAddress": "0x7661764ca12320ce9804440bfd4fbedf16c1a64c",
      "function": "addAsset(string,bytes32)",
      "arguments": [
        "XRP",
        "0xec5d399846a9209f3fe5881d70aae9268c94339ff9817e8d18ff19fa05eea1c8"
      ],
      "transaction": {
        "from": "0xd5011cddbe45a366b76c946575bd4b6f907f580f",
        "to": "0x7661764ca12320ce9804440bfd4fbedf16c1a64c",
        "gas": "0x21531",
        "value": "0x0",
        "input": "0xef099bc60000000000000000000000000000000000000000000000000000000000000040ec5d399846a9209f3fe5881d70aae9268c94339ff9817e8d18ff19fa05eea1c800000000000000000000000000000000000000000000000000000000000000035852500000000000000000000000000000000000000000000000000000000000",
        "nonce": "0x56",
        "chainId": "0x2105"
      },
      "additionalContracts": [],
      "isFixedGasLimit": false
    },
    {
      "hash": "0xa3ee5dc830c9e3057f2a2519b1f79fae7b853eeae9213b7439b320395c30afab",
      "transactionType": "CALL",
      "contractName": "PythOracle",
      "contractAddress": "0x7661764ca12320ce9804440bfd4fbedf16c1a64c",
      "function": "addAsset(string,bytes32)",
      "arguments": [
        "DOGE",
        "0xdcef50dd0a4cd2dcc17e45df1676dcb336a11a61c69df7a0299b0150c672d25c"
      ],
      "transaction": {
        "from": "0xd5011cddbe45a366b76c946575bd4b6f907f580f",
        "to": "0x7661764ca12320ce9804440bfd4fbedf16c1a64c",
        "gas": "0x234a0",
        "value": "0x0",
        "input": "0xef099bc60000000000000000000000000000000000000000000000000000000000000040dcef50dd0a4cd2dcc17e45df1676dcb336a11a61c69df7a0299b0150c672d25c0000000000000000000000000000000000000000000000000000000000000004444f474500000000000000000000000000000000000000000000000000000000",
        "nonce": "0x57",
        "chainId": "0x2105"
      },
      "additionalContracts": [],
      "isFixedGasLimit": false
    },
    {
      "hash": "0x861efb478c2be17c50d6b11909e6b9868c4f1ae047fc6d71fa4135e05e4fadd2",
      "transactionType": "CALL",
      "contractName": "PythOracle",
      "contractAddress": "0x7661764ca12320ce9804440bfd4fbedf16c1a64c",
      "function": "addAsset(string,bytes32)",
      "arguments": [
        "ADA",
        "0x2a01deaec9e51a579277b34b122399984d0bbf57e2458a7e42fecd2829867a0d"
      ],
      "transaction": {
        "from": "0xd5011cddbe45a366b76c946575bd4b6f907f580f",
        "to": "0x7661764ca12320ce9804440bfd4fbedf16c1a64c",
        "gas": "0x21531",
        "value": "0x0",
        "input": "0xef099bc600000000000000000000000000000000000000000000000000000000000000402a01deaec9e51a579277b34b122399984d0bbf57e2458a7e42fecd2829867a0d00000000000000000000000000000000000000000000000000000000000000034144410000000000000000000000000000000000000000000000000000000000",
        "nonce": "0x58",
        "chainId": "0x2105"
      },
      "additionalContracts": [],
      "isFixedGasLimit": false
    },
    {
      "hash": "0xe83ce1d30910b03bce304f45954ad0248e96668bdf9b4cff316007139c22e991",
      "transactionType": "CALL",
      "contractName": "PythOracle",
      "contractAddress": "0x7661764ca12320ce9804440bfd4fbedf16c1a64c",
      "function": "addAsset(string,bytes32)",
      "arguments": [
        "AVAX",
        "0x93da3352f9f1d105fdfe4971cfa80e9dd777bfc5d0f683ebb6e1294b92137bb7"
      ],
      "transaction": {
        "from": "0xd5011cddbe45a366b76c946575bd4b6f907f580f",
        "to": "0x7661764ca12320ce9804440bfd4fbedf16c1a64c",
        "gas": "0x234a0",
        "value": "0x0",
        "input": "0xef099bc6000000000000000000000000000000000000000000000000000000000000004093da3352f9f1d105fdfe4971cfa80e9dd777bfc5d0f683ebb6e1294b92137bb700000000000000000000000000000000000000000000000000000000000000044156415800000000000000000000000000000000000000000000000000000000",
        "nonce": "0x59",
        "chainId": "0x2105"
      },
      "additionalContracts": [],
      "isFixedGasLimit": false
    },
    {
      "hash": "0x828980e253757c6273b949dda3f9d33bc822fe7e9080126fe1886f85f3534cab",
      "transactionType": "CALL",
      "contractName": "PythOracle",
      "contractAddress": "0x7661764ca12320ce9804440bfd4fbedf16c1a64c",
      "function": "addAsset(string,bytes32)",
      "arguments": [
        "LINK",
        "0x8ac0c70fff57e9aefdf5edf44b51d62c2d433653cbb2cf5cc06bb115af04d221"
      ],
      "transaction": {
        "from": "0xd5011cddbe45a366b76c946575bd4b6f907f580f",
        "to": "0x7661764ca12320ce9804440bfd4fbedf16c1a64c",
        "gas": "0x234a0",
        "value": "0x0",
        "input": "0xef099bc600000000000000000000000000000000000000000000000000000000000000408ac0c70fff57e9aefdf5edf44b51d62c2d433653cbb2cf5cc06bb115af04d22100000000000000000000000000000000000000000000000000000000000000044c494e4b00000000000000000000000000000000000000000000000000000000",
        "nonce": "0x5a",
        "chainId": "0x2105"
      },
      "additionalContracts": [],
      "isFixedGasLimit": false
    },
    {
      "hash": "0x1aa86703d45505db35ef4a0e92eba553e878abbfa28721099aa134b04aaa9d0b",
      "transactionType": "CALL",
      "contractName": "PythOracle",
      "contractAddress": "0x7661764ca12320ce9804440bfd4fbedf16c1a64c",
      "function": "addAsset(string,bytes32)",
      "arguments": [
        "DOT",
        "0xca3eed9b267293f6595901c734c7525ce8ef49adafe8284606ceb307afa2ca5b"
      ],
      "transaction": {
        "from": "0xd5011cddbe45a366b76c946575bd4b6f907f580f",
        "to": "0x7661764ca12320ce9804440bfd4fbedf16c1a64c",
        "gas": "0x21531",
        "value": "0x0",
        "input": "0xef099bc60000000000000000000000000000000000000000000000000000000000000040ca3eed9b267293f6595901c734c7525ce8ef49adafe8284606ceb307afa2ca5b0000000000000000000000000000000000000000000000000000000000000003444f540000000000000000000000000000000000000000000000000000000000",
        "nonce": "0x5b",
        "chainId": "0x2105"
      },
      "additionalContracts": [],
      "isFixedGasLimit": false
    },
    {
      "hash": "0x3cea44da4566ab2e377f9e3c8d7a27fe013ce63b3d25cafd4c19bbdcf2addcc9",
      "transactionType": "CREATE",
      "contractName": "Vault",
      "contractAddress": "0x11a46523558fe85699548e30e3e0efe82d54850b",
      "function": null,
      "arguments": [
        "0xE5c8628cFb666815dc96Ff19595da4aC4aA48f92",
        "0x7661764CA12320Ce9804440BfD4fBedf16C1A64C",
        "0xD5011cddBE45A366B76C946575BD4B6f907F580F"
      ],
      "transaction": {
        "from": "0xd5011cddbe45a366b76c946575bd4b6f907f580f",
        "gas": "0x24201a",
        "value": "0x0",
        "input": "0x60a0346200014457601f62001fab38819003918201601f19168301916001600160401b03831184841017620001485780849260609460405283398101031262000144576200004d816200015c565b9060406200005e602083016200015c565b916001600160a01b039182916200007691016200015c565b169182156200012c57815f549460018060a01b03199480868816175f558260405197167f8be0079c531659141344cd1fd0a4f28419497f9722a3daafe3b4186f6b6457e05f80a360017f9b779b17422d0df92223018b32b4d1fa46e071723d6817e2486d003becc55f0055166080521690600154161760015542600755611e3990816200017282396080518181816103f30152818161082901528181610a560152818161119a0152818161144601526115ae0152f35b604051631e4fbdf760e01b81525f6004820152602490fd5b5f80fd5b634e487b7160e01b5f52604160045260245ffd5b51906001600160a01b0382168203620001445756fe608080604052600480361015610013575f80fd5b5f91823560e01c908163126082cf146115e657508063164e68de1461155a57806317aa3ba9146114af578063247d571b146114915780632835195f1461147557806342c65ae514611430578063431931d8146114145780634bfdfa6f146113f15780634f1703e0146113d357806350987bd5146113a8578063514ea4bf1461126b57806351c6590a146111565780636545749a1461113a578063715018a6146110e157806374375359146110ae578063789ff0e1146110905780637adbf9731461100d5780637d63e70614610be15780637dc0d1d014610bb85780637ece152314610b935780638047c3a914610b705780638da5cb5b14610b4957806395082d2514610b2a5780639b45ec9714610b0e5780639c8f9f23146109fc578063a3966a2414610990578063a45cbbdb146105b6578063a693600b14610598578063b43bea6e146104f9578063c0d7865514610491578063c8ca245a14610269578063f2fde38b146101e1578063f887ea40146101b55763f92c45b714610195575f80fd5b346101b157816003193601126101b15760209054604051908152f35b5080fd5b82346101de57806003193601126101de576002546040516001600160a01b039091168152602090f35b80fd5b50346101b15760203660031901126101b1576101fb611602565b610203611782565b6001600160a01b0390811691821561025157505f54826001600160601b0360a01b8216175f55167f8be0079c531659141344cd1fd0a4f28419497f9722a3daafe3b4186f6b6457e05f80a380f35b604051631e4fbdf760e01b8152908101849052602490fd5b50346101b157610278366116a2565b6102849492939461193b565b61028c611c58565b6102a18161029b368588611977565b87611c00565b93848752600860205260408720928354968715610480576001546040805163524f388960e01b8152602089820152966001600160a01b0393929091908890851681806102f1602482018a8c61182b565b03915afa968715610475578b97610443575b5061030e8782611d64565b501561043257917f5e67d1d70ca0bca0072133b1524612811bc09d9abd1c0e92dc96c10b08b95fac939160016103bc98979694019687549b61035d60405196879660c0885260c088019161182b565b971515602086015260408501528b606085015260808401523360a084015216930390a2674563918244f40000858110156104245761039f6103a791809761196a565b60035461191a565b600355548254908181101561041d579061196a565b9055825260086020526103d160408320611a2a565b806103ec575b5060015f80516020611de48339815191525580f35b61041790337f00000000000000000000000000000000000000000000000000000000000000006117ad565b5f6103d7565b508061196a565b506103a761039f868061196a565b604051636415f95960e01b81528890fd5b61046691975060403d60401161046e575b61045e818361172b565b8101906119bd565b50955f610303565b503d610454565b6040513d8d823e3d90fd5b604051636ec9be1160e01b81528690fd5b82346101de5760203660031901126101de576104ab611602565b6104b3611782565b600280546001600160a01b0319166001600160a01b039290921691821790557f7aed1d3e8155a07ccf395e44ea3109a0e2d6c9b29bbbe9f142d9790596f4dc808280a280f35b50346101b157602061053b9161050e36611618565b60015460405163d47eed4560e01b81529586946001600160a01b039092169385938493909190840161184b565b03915afa90811561058d578291610558575b602082604051908152f35b90506020813d8211610585575b816105726020938361172b565b810103126101b15760209150515f61054d565b3d9150610565565b6040513d84823e3d90fd5b82346101de57806003193601126101de576020600354604051908152f35b50346101b15760c03660031901126101b1576105d0611602565b60243567ffffffffffffffff811161098c576105ef9036908401611665565b6105f7611693565b926001600160a01b039060a435828116810361098857826002541633036109775761062061193b565b6044356064359161062f611c58565b6106448861063e36898b611977565b86611c00565b808b52600860205260408b208054908115610966579089959493929160408a8e60208c600154169161068f85519c8d958694859463524f388960e01b8652850152602484019161182b565b03915afa96871561095957917fa284b2770faef7bc99cacc3031eb947dc5645724c908d6b62d671e9da604398e9b9a99989795939160209f9795938897610937575b508515801561092d575b610923575b6001015480851161091b575b5084149c81875260088f5260408720610706868883611cd0565b6107108783611ca0565b61071c8160055461191a565b6005558787928b81135f146108a85761074661073e6107569361074d936119d3565b8654906119e6565b809461191a565b9260035461196a565b6003555b818110610899575050879e5b61077187835461196a565b825560018201916107a483548089105f1461088f5761079189809261196a565b85558554908181101561041d579061196a565b845542600582015560065460038201558115610885575b50610854575b5050508b80610823575b50506107e460405198899860e08a5260e08a019161182b565b9915158c8801526040870152606086015260808501528060a085015260c084015216930390a260015f80516020611de483398151915255604051908152f35b61084d917f00000000000000000000000000000000000000000000000000000000000000006117ad565b5f8b6107cb565b548154610869918181101561041d579061196a565b9055855260088d5261087d60408620611a2a565b5f80806107c1565b905054155f6107bb565b610791818061196a565b6108a29161196a565b9e610766565b8b81126108b7575b505061075a565b6108d7929350906108ca6108cf92611a1a565b6119d3565b8354906119e6565b90868211156109155786915b87811061090357506108f98a5b9260035461191a565b600355875f6108b0565b6109106108f9918961196a565b6108f0565b816108e3565b93505f6106ec565b90945084906106e0565b50818610156106db565b61095191975060403d60401161046e5761045e818361172b565b50955f6106d1565b8e604051903d90823e3d90fd5b604051636ec9be1160e01b81528c90fd5b604051639e41bdd760e01b81528790fd5b5f80fd5b8380fd5b50346101b157604060a0926109ba6109b46109aa366116a2565b9391903691611977565b90611c00565b815260086020522090815491600181015491600560ff600284015492840154169201549260405194855260208501526040840152151560608301526080820152f35b50346101b15760203660031901126101b157803590610a19611782565b610a2161193b565b610a2c8215156118da565b60035490610a3b81548361196a565b8311610aba575081610a4c9161196a565b600355610a7a81337f00000000000000000000000000000000000000000000000000000000000000006117ad565b6040519081527fc2c3f06e49b9f15e7b4af9055e183b0d73362e033ad82a07dec9bf984017171960203392a260015f80516020611de48339815191525580f35b60849060206040519162461bcd60e51b8352820152602760248201527f5661756c743a20696e73756666696369656e7420617661696c61626c65206c696044820152667175696469747960c81b6064820152fd5b82346101de57806003193601126101de57602060405160328152f35b82346101de57806003193601126101de5760206040516305f5e1008152f35b82346101de57806003193601126101de57546040516001600160a01b039091168152602090f35b82346101de57806003193601126101de576020604051674563918244f400008152f35b82346101de576020610bb0610ba7366116a2565b92919091611b4b565b604051908152f35b82346101de57806003193601126101de576001546040516001600160a01b039091168152602090f35b5090346101de5760a03660031901126101de57610bfc611602565b67ffffffffffffffff9060243582811161098c57610c1d9036908601611665565b9091610c27611693565b6002549094906001600160a01b0316330361097757610c4461193b565b60643515610ffc57610c54611c58565b610c6985610c63368688611977565b84611c00565b86526008602052604086209660018060a01b03600154169060408051809363524f388960e01b82526020848301528180610ca7602482018b8d61182b565b03915afa918215610ff1578892610fcf575b50600a60643502926064358404600a03610fbc57610cdd612710850460443561196a565b610ced612710860460055461191a565b600555610d00612710860460035461191a565b6003558a5490610d126064358361191a565b60018d0191610d2281845461191a565b936032850285810460321486151715610fa9578311610f985790878f83610d5794155f14610f535750600201555b865461191a565b80865560035410610f42578c5555818a0160ff1981541660ff8a1515161790554260058b01558511610f2f5750610d9160068901546116f3565b601f8111610ef1575b508697601f8511600114610e5e5790612710929185899a7f0c1fb245582e6325c5bb8948d367d06d50b210cae8887a7d67c317f71e1205f1999a91610e53575b508660011b905f198860031b1c19161760068201555b6003600654910155610e0f60405196879660c0885260c088019161182b565b97151560208601526044356040860152606435606086015260808501520460a08301526001600160a01b0316930390a260015f80516020611de48339815191525580f35b90508701355f610dda565b6006810188526020882098885b601f1987168110610ed95750907f0c1fb245582e6325c5bb8948d367d06d50b210cae8887a7d67c317f71e1205f197989961271094939287601f19811610610ec0575b5050600186811b016006820155610df0565b8801355f19600389901b60f8161c191690555f80610eae565b878201358b556001909a019960209182019101610e6b565b610f1f9060068a01895260208920601f870160051c81019160208810610f25575b601f0160051c0190611a04565b5f610d9a565b9091508190610f12565b634e487b7160e01b885260419052602487fd5b604051636bb2792960e01b81528590fd5b91506002610f91910191610f8b610f818c610f7b610f728754866119d3565b916064356119d3565b9061191a565b916064359061191a565b906119e6565b9055610d50565b604051633fe89cb960e11b81528790fd5b634e487b7160e01b8f526011885260248ffd5b634e487b7160e01b895260118252602489fd5b610fe991925060403d60401161046e5761045e818361172b565b50905f610cb9565b6040513d8a823e3d90fd5b604051630ffd11ad60e01b81528790fd5b50346101b15760203660031901126101b157611027611602565b61102f611782565b6001600160a01b031690811561105657506001600160601b0360a01b600154161760015580f35b60649060206040519162461bcd60e51b835282015260136024820152725661756c743a207a65726f206164647265737360681b6044820152fd5b82346101de57806003193601126101de576020600554604051908152f35b50346101b157816003193601126101b157600354905460209291818111156110da57610bb0925061196a565b5050610bb0565b82346101de57806003193601126101de576110fa611782565b5f80546001600160a01b0319811682556001600160a01b03167f8be0079c531659141344cd1fd0a4f28419497f9722a3daafe3b4186f6b6457e08280a380f35b82346101de57806003193601126101de57602060405160018152f35b50346101b15760203660031901126101b15780359061117361193b565b61117e8215156118da565b6040516323b872dd60e01b8452338252306024526044839052907f000000000000000000000000000000000000000000000000000000000000000060208560648180855af1600186511481161561124c575b83604052856060521561122f575050506111ec8160035461191a565b6003556040519081527fc17cea59c2955cb181b03393209566960365771dbba9dc3d510180e7cb31208860203392a260015f80516020611de48339815191525580f35b635274afe760e01b83526001600160a01b03169082015260249150fd5b600181151661126257813b15153d1516166111d0565b833d87823e3d90fd5b50346101b157602090816003193601126113a4576112c89192813581526008845260408120805492600190818301546002840154908860ff6003870154948701541694600660058801549701976040519889928282549d8e6116f3565b928386528686019e83811690815f146113815750600114611342575b505050506112f49250038761172b565b6040519889978852870152604086015260608501521515608084015260a083015260e060c0830152518060e0830152611334816101009485850190611761565b601f01601f19168101030190f35b815285812095935091905b81831061136757508d9450508201016112f45f80806112e4565b8554948301840194909452938301938a939183019161134d565b93505050506112f494925060ff19168c52151560051b8201018b925f80806112e4565b8280fd5b82346101de5760406113c56113bc366116a2565b92919091611a97565b825191151582526020820152f35b82346101de57806003193601126101de576020600654604051908152f35b82346101de57806003193601126101de576020604051670de0b6b3a76400008152f35b82346101de57806003193601126101de57602060405160968152f35b82346101de57806003193601126101de576040517f00000000000000000000000000000000000000000000000000000000000000006001600160a01b03168152602090f35b82346101de57806003193601126101de576020604051600a8152f35b82346101de57806003193601126101de576020600754604051908152f35b506114b936611618565b6002549192916001600160a01b0390811633036115495790849160015416803b156113a457604051631df3cbc560e31b8152948592839182916114fe9188840161184b565b039134905af1801561153e57611512578280f35b67ffffffffffffffff821161152b57506040525f808280f35b634e487b7160e01b835260419052602482fd5b6040513d85823e3d90fd5b604051639e41bdd760e01b81528390fd5b82346101de5760203660031901126101de57611574611602565b61157c611782565b7fc0819c13be868895eb93e40eaceb96de976442fa1d404e5c55f14bb65a8c489a602060055492846005556115d284827f00000000000000000000000000000000000000000000000000000000000000006117ad565b6040519384526001600160a01b031692a280f35b8390346101b157816003193601126101b1578061271060209252f35b600435906001600160a01b038216820361098857565b9060206003198301126109885760043567ffffffffffffffff9283821161098857806023830112156109885781600401359384116109885760248460051b83010111610988576024019190565b9181601f840112156109885782359167ffffffffffffffff8311610988576020838186019501011161098857565b60843590811515820361098857565b906060600319830112610988576004356001600160a01b038116810361098857916024359067ffffffffffffffff8211610988576116e291600401611665565b909160443580151581036109885790565b90600182811c92168015611721575b602083101461170d57565b634e487b7160e01b5f52602260045260245ffd5b91607f1691611702565b90601f8019910116810190811067ffffffffffffffff82111761174d57604052565b634e487b7160e01b5f52604160045260245ffd5b5f5b8381106117725750505f910152565b8181015183820152602001611763565b5f546001600160a01b0316330361179557565b60405163118cdaa760e01b8152336004820152602490fd5b60405163a9059cbb60e01b5f9081526001600160a01b039384166004526024949094529260209060448180855af160015f511481161561180c575b83604052156117f657505050565b635274afe760e01b835216600482015260249150fd5b600181151661182257813b15153d1516166117e8565b833d5f823e3d90fd5b908060209392818452848401375f828201840152601f01601f1916010190565b9160208181850182865252604084019360408360051b82010194845f925b85841061187a575050505050505090565b90919293949596603f198282030184528735601e198436030181121561098857830186810191903567ffffffffffffffff8111610988578036038313610988576118c98892839260019561182b565b990194019401929594939190611869565b156118e157565b60405162461bcd60e51b815260206004820152601160248201527005661756c743a20616d6f756e74203d203607c1b6044820152606490fd5b9190820180921161192757565b634e487b7160e01b5f52601160045260245ffd5b5f80516020611de483398151915260028154146119585760029055565b604051633ee5aeb560e01b8152600490fd5b9190820391821161192757565b92919267ffffffffffffffff821161174d57604051916119a1601f8201601f19166020018461172b565b829481845281830111610988578281602093845f960137010152565b9190826040910312610988576020825192015190565b8181029291811591840414171561192757565b81156119f0570490565b634e487b7160e01b5f52601260045260245ffd5b818110611a0f575050565b5f8155600101611a04565b600160ff1b8114611927575f0390565b60065f9182815582600182015582600282015582600382015582600482015582600582015501611a5a81546116f3565b80611a6457505050565b82601f8211600114611a7557505055565b9091808252611a93601f60208420940160051c840160018501611a04565b5555565b92611aaa919294936109b4368786611977565b925f938452600860205260409182852091825415611b43576001548451632ad286ad60e01b81526020600482015292859284926001600160a01b03169183918291611af991602484019161182b565b03915afa928315611b3a57611b16949593611b1a575b5050611d64565b9091565b611b31929350803d1061046e5761045e818361172b565b50905f80611b0f565b513d86823e3d90fd5b505050508190565b92611b5d9194936109b4368588611977565b5f526008602052604092835f20908154928315611bf7576001548651632ad286ad60e01b8152602060048201529392879285926001600160a01b03169183918291611bac91602484019161182b565b03915afa918215611bed57611bca94955f93611bcd575b5050611cd0565b90565b611be4929350803d1061046e5761045e818361172b565b50905f80611bc3565b85513d5f823e3d90fd5b505f9450505050565b91906035611c529160405193849160208301966001600160601b03199060601b168752611c37815180926020603487019101611761565b820190151560f81b603482015203601581018452018261172b565b51902090565b600754804214611c9d57611c6f610e10914261196a565b0480158015611c7c575050565b818004600114171561192757611c949060065461191a565b60065542600755565b50565b611cb29060036006549101549061196a565b908115611cca5761271091611cc6916119d3565b0490565b50505f90565b6002810154908115611d5c57600401545f9060ff1615611d345750611d0e829382611d1394119483865f14611d2557611d089161196a565b906119d3565b6119e6565b9015611d1c5790565b611bca90611a1a565b90611d2f9161196a565b611d08565b5080821092611d1392611d0e9190838615611d535790611d089161196a565b611d2f9161196a565b505050505f90565b611d718154809383611cd0565b905f808312611daf5750906001611d8992015461191a565b905b6127109182810292818404149015171561192757611da8916119e6565b6064811091565b939291611dbd600191611a1a565b91015480821015611dda57611dd49293945061196a565b90611d8b565b5050506001919056fe9b779b17422d0df92223018b32b4d1fa46e071723d6817e2486d003becc55f00a2646970667358221220845bc004bf17ccc9678adae8282462c65a6c0c33210afa34fdbef92ef1d193bf64736f6c63430008140033000000000000000000000000e5c8628cfb666815dc96ff19595da4ac4aa48f920000000000000000000000007661764ca12320ce9804440bfd4fbedf16c1a64c000000000000000000000000d5011cddbe45a366b76c946575bd4b6f907f580f",
        "nonce": "0x5c",
        "chainId": "0x2105"
      },
      "additionalContracts": [],
      "isFixedGasLimit": false
    },
    {
      "hash": "0x4754796b9783a00ef1e8176377f6f4a08fbdfd198e64e9f7620ef476e20f8fc0",
      "transactionType": "CREATE",
      "contractName": "Router",
      "contractAddress": "0x28c8a517b5d32ae5cdf080ae23d79c8785694986",
      "function": null,
      "arguments": [
        "0xE5c8628cFb666815dc96Ff19595da4aC4aA48f92",
        "0x11a46523558fe85699548e30e3e0EFE82d54850b",
        "0xD5011cddBE45A366B76C946575BD4B6f907F580F"
      ],
      "transaction": {
        "from": "0xd5011cddbe45a366b76c946575bd4b6f907f580f",
        "gas": "0x17ed87",
        "value": "0x0",
        "input": "0x60c03461016e57601f6200158f38819003918201601f19168301916001600160401b038311848410176101725780849260609460405283398101031261016e57604061004a82610186565b9161005760208201610186565b6001600160a01b03929091839161006e9101610186565b16928315610156575f80546001600160a01b03198116861782556040519585939290918416907f8be0079c531659141344cd1fd0a4f28419497f9722a3daafe3b4186f6b6457e09080a360017f9b779b17422d0df92223018b32b4d1fa46e071723d6817e2486d003becc55f0055166080521660a0526113f490816200019b823960805181818161043101528181610a250152610bf6015260a05181818160f50152818161026601528181610401015281816105620152818161061b0152818161073c01528181610812015281816109f401528181610b5a01528181610c9201526111d60152f35b604051631e4fbdf760e01b81525f6004820152602490fd5b5f80fd5b634e487b7160e01b5f52604160045260245ffd5b51906001600160a01b038216820361016e5756fe6040608081526004908136101561001f575b5050361561001d575f80fd5b005b5f91823560e01c9081632616d03614610c635781633bbd64bc14610c2557816342c65ae514610be157816350987bd514610b2357816354619ee9146109c85781636f41036f14610914578163715018a6146108b8578163736d95ac146107bf5781637ece1523146107045781638da5cb5b146106dc578163a3966a24146105de578163b43bea6e1461050e578163ce863e57146103cc578163d1b9e8531461034e578163dabc56cb146101ba578163f2fde38b14610128575063fbfa77cf036100115734610124578160031936011261012457517f00000000000000000000000000000000000000000000000000000000000000006001600160a01b03168152602090f35b5080fd5b9050346101b65760203660031901126101b657610143610dae565b9061014c610ebc565b6001600160a01b039182169283156101a05750505f54826bffffffffffffffffffffffff60a01b8216175f55167f8be0079c531659141344cd1fd0a4f28419497f9722a3daafe3b4186f6b6457e05f80a380f35b51631e4fbdf760e01b8152908101849052602490fd5b8280fd5b919050346101b65760c03660031901126101b6576101d6610dae565b9060243567ffffffffffffffff811161034a576101f69036908501610d2d565b92909360443560643591610208610d5b565b90610211610dc4565b338a52600160205260ff878b2054161561033b579061025183928594878998978c8e61023b61103e565b8d5163a45cbbdb60e01b81529b8c988901611080565b6001600160a01b03979160209187919003818d7f00000000000000000000000000000000000000000000000000000000000000008c165af1948515610331578a956102e5575b50905f8051602061139f833981519152976102bb95949392519788971699876110c2565b0390a260017f9b779b17422d0df92223018b32b4d1fa46e071723d6817e2486d003becc55f005580f35b94509291906020853d8211610329575b8161030260209383610f0f565b810103126103255793519391929091905f8051602061139f833981519152610297565b5f80fd5b3d91506102f5565b81513d8c823e3d90fd5b50855163c60eb33560e01b8152fd5b8480fd5b505034610124578060031936011261012457610368610dae565b60243590811515809203610325577f786c9db967bf0c6b16c7c91adae8a8c554b15a57d373fa2059607300f4616c00916020916103a3610ebc565b6001600160a01b031680865260018352848620805460ff191660ff84161790559351908152a280f35b90506103d736610e5c565b906103e79893949792969861103e565b87156104fe5784156104ee578992916103ff916111be565b7f00000000000000000000000000000000000000000000000000000000000000006001600160a01b03166104558882337f0000000000000000000000000000000000000000000000000000000000000000610fb5565b803b156101b6578583918a838b956104848c8b8b51998a9889978896633eb1f38360e11b885233908801610f51565b03925af180156104e4576104c8575b5050907f25a28f6a15bf50e78ef83e0fdecfdbdbfe804df1a65a5006e6946b23a6ddf42f946102bb9251948594339886610f8a565b6104d490939293610ee7565b6104e05790865f610493565b8680fd5b83513d84823e3d90fd5b83516335e367c160e11b81528390fd5b835163162908e360e11b81528390fd5b83833461012457602092836003193601126101b657803567ffffffffffffffff81116105da57610542859136908401610e2b565b9261055e85519485938493635a1df53760e11b8552840161112f565b03817f00000000000000000000000000000000000000000000000000000000000000006001600160a01b03165afa9283156105cf57926105a0575b5051908152f35b9091508281813d83116105c8575b6105b88183610f0f565b8101031261032557519083610599565b503d6105ae565b8251903d90823e3d90fd5b8380fd5b9050346101b65760a06106116105f336610dda565b87516328e59a8960e21b815296879586959094929392918601611100565b0381600180851b037f0000000000000000000000000000000000000000000000000000000000000000165afa9081156106d05783928490859186938795610673575b5060a0965081519586526020860152840152151560608301526080820152f35b9550509250505060a0823d82116106c8575b8161069260a09383610f0f565b810103126101b65760a092508151602083015192828101519260806106b9606084016110f3565b9201519294939192935f610653565b3d9150610685565b505051903d90823e3d90fd5b505034610124578160031936011261012457905490516001600160a01b039091168152602090f35b919050346101b657602061073861071a36610dda565b8651637ece152360e01b815297889586959094929392918601611100565b03817f00000000000000000000000000000000000000000000000000000000000000006001600160a01b03165afa9182156107b557839261077e575b6020838351908152f35b9091506020813d82116107ad575b8161079960209383610f0f565b810103126101b6576020925051905f610774565b3d915061078c565b81513d85823e3d90fd5b83906107ef60208561080d6107d336610e5c565b9a849a879c879a979598949b9699936107ea61103e565b6111be565b89878751998a96879663a45cbbdb60e01b8852339533908901611080565b03818b7f00000000000000000000000000000000000000000000000000000000000000006001600160a01b03165af19283156108ae57889361086c575b50905f8051602061139f833981519152956102bb9392519586953399876110c2565b9250906020833d82116108a6575b8161088760209383610f0f565b8101031261032557915191905f8051602061139f83398151915261084a565b3d915061087a565b81513d8a823e3d90fd5b83346109115780600319360112610911576108d1610ebc565b5f80546001600160a01b0319811682556001600160a01b03167f8be0079c531659141344cd1fd0a4f28419497f9722a3daafe3b4186f6b6457e08280a380f35b80fd5b905060e03660031901126101b65761092a610dae565b67ffffffffffffffff92906024358481116109c45761094c9036908501610d2d565b939094604435906064359261095f610d5b565b91610968610dc4565b9060c4359081116109c0576109809036908401610e2b565b90338c52600160205260ff898d205416156109b057918487878c8e61023b610251978e9d9c9b9a996107ea61103e565b885163c60eb33560e01b81528490fd5b8a80fd5b8580fd5b83915034610124576109d936610d6a565b93946109e692919261103e565b8115610b15578215610b07577f00000000000000000000000000000000000000000000000000000000000000006001600160a01b031690610a498383337f0000000000000000000000000000000000000000000000000000000000000000610fb5565b813b15610b0357848392888a8094610a798b8f8b9051998a9889978896633eb1f38360e11b885233908801610f51565b03925af18015610af957610abe575b50906102bb917f25a28f6a15bf50e78ef83e0fdecfdbdbfe804df1a65a5006e6946b23a6ddf42f95969751948594339886610f8a565b907f25a28f6a15bf50e78ef83e0fdecfdbdbfe804df1a65a5006e6946b23a6ddf42f9596610aef6102bb9493610ee7565b9695509091610a88565b88513d89823e3d90fd5b8780fd5b87516335e367c160e11b8152fd5b875163162908e360e11b8152fd5b839150346101245782610b56610b3836610dda565b85516350987bd560e01b815296879586959094929392918601611100565b03817f00000000000000000000000000000000000000000000000000000000000000006001600160a01b03165afa9081156104e457828092610ba3575b5050825191151582526020820152f35b915091508282813d8311610bda575b610bbc8183610f0f565b8101031261091157506020610bd0826110f3565b9101518380610b93565b503d610bb2565b505034610124578160031936011261012457517f00000000000000000000000000000000000000000000000000000000000000006001600160a01b03168152602090f35b5050346101245760203660031901126101245760209160ff9082906001600160a01b03610c50610dae565b1681526001855220541690519015158152f35b919050346101b657602090610c8d610c7a36610d6a565b959196909284819689969a6107ef61103e565b03818b7f00000000000000000000000000000000000000000000000000000000000000006001600160a01b03165af19283156108ae578893610ceb5750905f8051602061139f833981519152956102bb9392519586953399876110c2565b9250906020833d8211610d25575b81610d0660209383610f0f565b81010312610b0357915191905f8051602061139f83398151915261084a565b3d9150610cf9565b9181601f840112156103255782359167ffffffffffffffff8311610325576020838186019501011161032557565b60843590811515820361032557565b6080600319820112610325576004359067ffffffffffffffff821161032557610d9591600401610d2d565b9091602435906044359060643580151581036103255790565b600435906001600160a01b038216820361032557565b60a435906001600160a01b038216820361032557565b906060600319830112610325576004356001600160a01b038116810361032557916024359067ffffffffffffffff821161032557610e1a91600401610d2d565b909160443580151581036103255790565b9181601f840112156103255782359167ffffffffffffffff8311610325576020808501948460051b01011161032557565b60a06003198201126103255767ffffffffffffffff916004358381116103255782610e8991600401610d2d565b9390939260243592604435926064358015158103610325579260843591821161032557610eb891600401610e2b565b9091565b5f546001600160a01b03163303610ecf57565b60405163118cdaa760e01b8152336004820152602490fd5b67ffffffffffffffff8111610efb57604052565b634e487b7160e01b5f52604160045260245ffd5b90601f8019910116810190811067ffffffffffffffff821117610efb57604052565b908060209392818452848401375f828201840152601f01601f1916010190565b9491608094979693610f789260018060a01b0316875260a0602088015260a0870191610f31565b95604085015260608401521515910152565b9160609396959491610fa491608085526080850191610f31565b951515602083015260408201520152565b6040516323b872dd60e01b5f9081526001600160a01b03938416600452938316602452604494909452909160209060648180855af160015f511481161561101f575b836040525f6060521561100957505050565b635274afe760e01b835216600482015260249150fd5b600181151661103557813b15153d151616610ff7565b833d5f823e3d90fd5b7f9b779b17422d0df92223018b32b4d1fa46e071723d6817e2486d003becc55f00600281541461106e5760029055565b604051633ee5aeb560e01b8152600490fd5b95916110aa9060a0969295999894600180891b03809716895260c060208a015260c0890191610f31565b97604087015260608601521515608085015216910152565b9296959491608094916110dd9160a0865260a0860191610f31565b9615156020840152604083015260608201520152565b5190811515820361032557565b92916040926111279296959660018060a01b03168552606060208601526060850191610f31565b931515910152565b9160208181850182865252604084019360408360051b82010194845f925b85841061115e575050505050505090565b90919293949596603f198282030184528735601e198436030181121561032557830186810191903567ffffffffffffffff8111610325578036038313610325576111ad88928392600195610f31565b99019401940192959493919061114d565b60408051635a1df53760e11b815260049360209391907f00000000000000000000000000000000000000000000000000000000000000006001600160a01b031685838061120e85888c840161112f565b0381845afa938415611394575f938495611365575b5084341061135557846112fc575b50505090803411611244575b5050505050565b34033481116112e9578180808093335af1903d156112e3573d9067ffffffffffffffff82116112d057835191611283601f8201601f1916870184610f0f565b8252843d92013e5b1561129757808061123d565b5162461bcd60e51b8152918201526015602482015274149bdd5d195c8e881c99599d5b990819985a5b1959605a1b604482015260649150fd5b634e487b7160e01b815260418652602490fd5b5061128b565b634e487b7160e01b825260118552602482fd5b813b156105da5791839161132693868a8951968795869485936317aa3ba960e01b8552840161112f565b03925af1801561134b5761133c575b8080611231565b61134590610ee7565b5f611335565b84513d84823e3d90fd5b8551631f6aa10b60e31b81528890fd5b9094508681813d831161138d575b61137d8183610f0f565b810103126105da5751935f611223565b503d611373565b85513d5f823e3d90fdfe7aee70d22f2501b4c21fa372fadc0e835976335a46cc77fc5bd5d29d01fa2cd6a2646970667358221220982fb3af3f31a238273f2fbbe157e4e12e6dab6f23c9670fff7dca9f1da247b564736f6c63430008140033000000000000000000000000e5c8628cfb666815dc96ff19595da4ac4aa48f9200000000000000000000000011a46523558fe85699548e30e3e0efe82d54850b000000000000000000000000d5011cddbe45a366b76c946575bd4b6f907f580f",
        "nonce": "0x5d",
        "chainId": "0x2105"
      },
      "additionalContracts": [],
      "isFixedGasLimit": false
    },
    {
      "hash": "0x8bc283a6c877ad315f8beb497d3e0551a69bc5e474ef546d786ed624bdb7a39c",
      "transactionType": "CALL",
      "contractName": "Vault",
      "contractAddress": "0x11a46523558fe85699548e30e3e0efe82d54850b",
      "function": "setRouter(address)",
      "arguments": [
        "0x28c8a517b5D32aE5cDF080AE23D79c8785694986"
      ],
      "transaction": {
        "from": "0xd5011cddbe45a366b76c946575bd4b6f907f580f",
        "to": "0x11a46523558fe85699548e30e3e0efe82d54850b",
        "gas": "0x101a2",
        "value": "0x0",
        "input": "0xc0d7865500000000000000000000000028c8a517b5d32ae5cdf080ae23d79c8785694986",
        "nonce": "0x5e",
        "chainId": "0x2105"
      },
      "additionalContracts": [],
      "isFixedGasLimit": false
    },
    {
      "hash": "0xb2f45319eb528a83a33cabf195f745ac506a2c93467beb61bbdd045b537d1bd9",
      "transactionType": "CALL",
      "contractName": "Router",
      "contractAddress": "0x28c8a517b5d32ae5cdf080ae23d79c8785694986",
      "function": "setKeeper(address,bool)",
      "arguments": [
        "0xD5011cddBE45A366B76C946575BD4B6f907F580F",
        "true"
      ],
      "transaction": {
        "from": "0xd5011cddbe45a366b76c946575bd4b6f907f580f",
        "to": "0x28c8a517b5d32ae5cdf080ae23d79c8785694986",
        "gas": "0x111ac",
        "value": "0x0",
        "input": "0xd1b9e853000000000000000000000000d5011cddbe45a366b76c946575bd4b6f907f580f0000000000000000000000000000000000000000000000000000000000000001",
        "nonce": "0x5f",
        "chainId": "0x2105"
      },
      "additionalContracts": [],
      "isFixedGasLimit": false
    },
    {
      "hash": "0x87c7267dc5a51ecc356a4e392e0040fd923d0aba01254f51f0d8d26949bb8f24",
      "transactionType": "CALL",
      "contractName": "eUSD",
      "contractAddress": "0xe5c8628cfb666815dc96ff19595da4ac4aa48f92",
      "function": "approve(address,uint256)",
      "arguments": [
        "0x11a46523558fe85699548e30e3e0EFE82d54850b",
        "500000000000000000000000"
      ],
      "transaction": {
        "from": "0xd5011cddbe45a366b76c946575bd4b6f907f580f",
        "to": "0xe5c8628cfb666815dc96ff19595da4ac4aa48f92",
        "gas": "0xf82d",
        "value": "0x0",
        "input": "0x095ea7b300000000000000000000000011a46523558fe85699548e30e3e0efe82d54850b0000000000000000000000000000000000000000000069e10de76676d0800000",
        "nonce": "0x60",
        "chainId": "0x2105"
      },
      "additionalContracts": [],
      "isFixedGasLimit": false
    },
    {
      "hash": "0xb854a673acae4f1e7cf67e0ee65aa1a5f70607e3dccbe5f8022dd6eaec14c25d",
      "transactionType": "CALL",
      "contractName": "Vault",
      "contractAddress": "0x11a46523558fe85699548e30e3e0efe82d54850b",
      "function": "addLiquidity(uint256)",
      "arguments": [
        "500000000000000000000000"
      ],
      "transaction": {
        "from": "0xd5011cddbe45a366b76c946575bd4b6f907f580f",
        "to": "0x11a46523558fe85699548e30e3e0efe82d54850b",
        "gas": "0x1cd27",
        "value": "0x0",
        "input": "0x51c6590a0000000000000000000000000000000000000000000069e10de76676d0800000",
        "nonce": "0x61",
        "chainId": "0x2105"
      },
      "additionalContracts": [],
      "isFixedGasLimit": false
    }
  ],
  "receipts": [
    {
      "status": "0x1",
      "cumulativeGasUsed": "0x6eb613",
      "logs": [
        {
          "address": "0xe5c8628cfb666815dc96ff19595da4ac4aa48f92",
          "topics": [
            "0x8be0079c531659141344cd1fd0a4f28419497f9722a3daafe3b4186f6b6457e0",
            "0x0000000000000000000000000000000000000000000000000000000000000000",
            "0x000000000000000000000000d5011cddbe45a366b76c946575bd4b6f907f580f"
          ],
          "data": "0x",
          "blockHash": "0x0000000000000000000000000000000000000000000000000000000000000000",
          "blockNumber": "0x2bdd062",
          "blockTimestamp": "0x6a05fda7",
          "transactionHash": "0xd68bc94a98172d47733b9dd6a46d482a55d6b14b5e36127b4aa65a5e366e0d14",
          "transactionIndex": "0x38",
          "logIndex": "0x8f",
          "removed": false
        },
        {
          "address": "0xe5c8628cfb666815dc96ff19595da4ac4aa48f92",
          "topics": [
            "0xddf252ad1be2c89b69c2b068fc378daa952ba7f163c4a11628f55a4df523b3ef",
            "0x0000000000000000000000000000000000000000000000000000000000000000",
            "0x000000000000000000000000d5011cddbe45a366b76c946575bd4b6f907f580f"
          ],
          "data": "0x00000000000000000000000000000000000000000000d3c21bcecceda1000000",
          "blockHash": "0x0000000000000000000000000000000000000000000000000000000000000000",
          "blockNumber": "0x2bdd062",
          "blockTimestamp": "0x6a05fda7",
          "transactionHash": "0xd68bc94a98172d47733b9dd6a46d482a55d6b14b5e36127b4aa65a5e366e0d14",
          "transactionIndex": "0x38",
          "logIndex": "0x90",
          "removed": false
        }
      ],
      "logsBloom": "0x00000000000000000000000000000000000000000000000000800000000000000000000000000000000000000000000000000080000000000000000080000000000000000000000000002008000040000001000000000000000000000000000000000000020000000000000000000840000000000000000000000010000000400000000000000000000000000000000000000000000000000000000000000000000000000000000000000080000000000000000000000000000000000000000000000002000000000000000000000000000000000000000000000000000020000000000000000000000000000000000000000000000000000000000000000000",
      "type": "0x2",
      "transactionHash": "0xd68bc94a98172d47733b9dd6a46d482a55d6b14b5e36127b4aa65a5e366e0d14",
      "transactionIndex": "0x38",
      "blockHash": "0x0000000000000000000000000000000000000000000000000000000000000000",
      "blockNumber": "0x2bdd062",
      "gasUsed": "0xca26a",
      "effectiveGasPrice": "0x4c4b8d",
      "blobGasUsed": "0x5da80",
      "from": "0xd5011cddbe45a366b76c946575bd4b6f907f580f",
      "to": null,
      "contractAddress": "0xe5c8628cfb666815dc96ff19595da4ac4aa48f92",
      "daFootprintGasScalar": "0x94",
      "l1BaseFeeScalar": "0x8dd",
      "l1BlobBaseFee": "0x31b6b9f",
      "l1BlobBaseFeeScalar": "0x101c12",
      "l1Fee": "0xf1170edf3",
      "l1GasPrice": "0x3ab66d3e",
      "l1GasUsed": "0xa206"
    },
    {
      "status": "0x1",
      "cumulativeGasUsed": "0x9350bc",
      "logs": [
        {
          "address": "0x7661764ca12320ce9804440bfd4fbedf16c1a64c",
          "topics": [
            "0x8be0079c531659141344cd1fd0a4f28419497f9722a3daafe3b4186f6b6457e0",
            "0x0000000000000000000000000000000000000000000000000000000000000000",
            "0x000000000000000000000000d5011cddbe45a366b76c946575bd4b6f907f580f"
          ],
          "data": "0x",
          "blockHash": "0x0000000000000000000000000000000000000000000000000000000000000000",
          "blockNumber": "0x2bdd062",
          "blockTimestamp": "0x6a05fda7",
          "transactionHash": "0xc894cdc3a41bd8a3c3c8808db76209c4c846e3965f3d660a26a0fe069ff73c49",
          "transactionIndex": "0x4a",
          "logIndex": "0xa8",
          "removed": false
        }
      ],
      "logsBloom": "0x00000000000000000000000000000000000000000000000000800000000000000000000000000000000000000000000000000000000000000000000080000000000000000000000000000000000000000001000000000000004000000000000000000000020000000000000000000840000000000000000000000000000000400000000000000000000000000000000000000000000000000000000000000000000000000000000000010080000000000000000000000000001000000000000000000000000000000000000000000000000000000000000000000000000020000000000000000000000000000000000000000000000000000000000000000000",
      "type": "0x2",
      "transactionHash": "0xc894cdc3a41bd8a3c3c8808db76209c4c846e3965f3d660a26a0fe069ff73c49",
      "transactionIndex": "0x4a",
      "blockHash": "0x0000000000000000000000000000000000000000000000000000000000000000",
      "blockNumber": "0x2bdd062",
      "gasUsed": "0x1004ac",
      "effectiveGasPrice": "0x4c4b8d",
      "blobGasUsed": "0x6c538",
      "from": "0xd5011cddbe45a366b76c946575bd4b6f907f580f",
      "to": null,
      "contractAddress": "0x7661764ca12320ce9804440bfd4fbedf16c1a64c",
      "daFootprintGasScalar": "0x94",
      "l1BaseFeeScalar": "0x8dd",
      "l1BlobBaseFee": "0x31b6b9f",
      "l1BlobBaseFeeScalar": "0x101c12",
      "l1Fee": "0x21d2fec83",
      "l1GasPrice": "0x3ab66d3e",
      "l1GasUsed": "0xbb61"
    },
    {
      "status": "0x1",
      "cumulativeGasUsed": "0x95158e",
      "logs": [
        {
          "address": "0x7661764ca12320ce9804440bfd4fbedf16c1a64c",
          "topics": [
            "0x7e0f48a71f9495e723ee7cf01b0e8add4111a8c92c86a66e53e73b1683ed10af",
            "0xe98e2830be1a7e4156d656a7505e65d08c67660dc618072422e9c78053c261e9",
            "0xe62df6c8b4a85fe1a67db44dc12de5db330f7ac66b72dc658afedf0f4a415b43"
          ],
          "data": "0x",
          "blockHash": "0x0000000000000000000000000000000000000000000000000000000000000000",
          "blockNumber": "0x2bdd062",
          "blockTimestamp": "0x6a05fda7",
          "transactionHash": "0xa3ee5dc830c9e3057f2a2519b1f79fae7b853eeae9213b7439b320395c30afab",
          "transactionIndex": "0x4b",
          "logIndex": "0xa9",
          "removed": false
        }
      ],
      "logsBloom": "0x00000000800000000000600000000000000000000000000000000000000000000000000000000000002000000000000000000000000000000000000000000000000000000000000000000000000000000000000000000000004000000000000000000000000000000000000000000000000000000000000000000000000000000000000000800000000000000000000000000000004000000000000000000000000000000000000000010000000000000000000000000000001000000000000000000000000000000000000040000000000000000000000000000000000000000000000000000000000100000000000000000000000000000000000000400000",
      "type": "0x2",
      "transactionHash": "0xa3ee5dc830c9e3057f2a2519b1f79fae7b853eeae9213b7439b320395c30afab",
      "transactionIndex": "0x4b",
      "blockHash": "0x0000000000000000000000000000000000000000000000000000000000000000",
      "blockNumber": "0x2bdd062",
      "gasUsed": "0x1c4d2",
      "effectiveGasPrice": "0x4c4b8d",
      "blobGasUsed": "0x39d0",
      "from": "0xd5011cddbe45a366b76c946575bd4b6f907f580f",
      "to": "0x7661764ca12320ce9804440bfd4fbedf16c1a64c",
      "contractAddress": null,
      "daFootprintGasScalar": "0x94",
      "l1BaseFeeScalar": "0x8dd",
      "l1BlobBaseFee": "0x31b6b9f",
      "l1BlobBaseFeeScalar": "0x101c12",
      "l1Fee": "0x21d2fec83",
      "l1GasPrice": "0x3ab66d3e",
      "l1GasUsed": "0x640"
    },
    {
      "status": "0x1",
      "cumulativeGasUsed": "0x969794",
      "logs": [
        {
          "address": "0x7661764ca12320ce9804440bfd4fbedf16c1a64c",
          "topics": [
            "0x7e0f48a71f9495e723ee7cf01b0e8add4111a8c92c86a66e53e73b1683ed10af",
            "0xaaaebeba3810b1e6b70781f14b2d72c1cb89c0b2b320c43bb67ff79f562f5ff4",
            "0xff61491a931112ddf1bd8147cd1b641375f79f5825126d665480874634fd0ace"
          ],
          "data": "0x",
          "blockHash": "0x0000000000000000000000000000000000000000000000000000000000000000",
          "blockNumber": "0x2bdd062",
          "blockTimestamp": "0x6a05fda7",
          "transactionHash": "0x828980e253757c6273b949dda3f9d33bc822fe7e9080126fe1886f85f3534cab",
          "transactionIndex": "0x4c",
          "logIndex": "0xaa",
          "removed": false
        }
      ],
      "logsBloom": "0x00000000800000000000400000000000000000000000000000000000002000000000000000000000000000000000000000010000000000000000000000000000000000000100000000000000000000000000000000000000004000000000000000000000000000000000000000000000000000040000000000000000000000000000000000800000000000008000000000000000000000000000000000000000000000000000000000010000000000000000000000000000001000000000000000000000000000000000000000000000000000000000000000001000000000000000000000000000000000000000000000000000000000000000000000000000",
      "type": "0x2",
      "transactionHash": "0x828980e253757c6273b949dda3f9d33bc822fe7e9080126fe1886f85f3534cab",
      "transactionIndex": "0x4c",
      "blockHash": "0x0000000000000000000000000000000000000000000000000000000000000000",
      "blockNumber": "0x2bdd062",
      "gasUsed": "0x18206",
      "effectiveGasPrice": "0x4c4b8d",
      "blobGasUsed": "0x39d0",
      "from": "0xd5011cddbe45a366b76c946575bd4b6f907f580f",
      "to": "0x7661764ca12320ce9804440bfd4fbedf16c1a64c",
      "contractAddress": null,
      "daFootprintGasScalar": "0x94",
      "l1BaseFeeScalar": "0x8dd",
      "l1BlobBaseFee": "0x31b6b9f",
      "l1BlobBaseFeeScalar": "0x101c12",
      "l1Fee": "0x21d2fec83",
      "l1GasPrice": "0x3ab66d3e",
      "l1GasUsed": "0x640"
    },
    {
      "status": "0x1",
      "cumulativeGasUsed": "0x98199a",
      "logs": [
        {
          "address": "0x7661764ca12320ce9804440bfd4fbedf16c1a64c",
          "topics": [
            "0x7e0f48a71f9495e723ee7cf01b0e8add4111a8c92c86a66e53e73b1683ed10af",
            "0x0a3ec4fc70eaf64faf6eeda4e9b2bd4742a785464053aa23afad8bd24650e86f",
            "0xef0d8b6fda2ceba41da15d4095d1da392a0d2f8ed0c6c7bc0f4cfac8c280b56d"
          ],
          "data": "0x",
          "blockHash": "0x0000000000000000000000000000000000000000000000000000000000000000",
          "blockNumber": "0x2bdd062",
          "blockTimestamp": "0x6a05fda7",
          "transactionHash": "0xd30f1c74bd12aad539546fa9fe78dee34f12d8bbe959d05b6a9435c1ee31adda",
          "transactionIndex": "0x4d",
          "logIndex": "0xab",
          "removed": false
        }
      ],
      "logsBloom": "0x00000000800000000000400000000000000000000000000000000000000000000000000000000002000000000000000000001000000000000000000000000000000000000000000000000000000000000000000000000000004000000000000000000000000000000000000000000000000000000000000000000000000000000000000000800000000000000000000000000000000002000000000000000000000000000000000000010000000000000000000000000000001000000000000000000000004000000000000000000000000008000000000000000000000040000000000000000000000000000000000000000000000000000000000000000000",
      "type": "0x2",
      "transactionHash": "0xd30f1c74bd12aad539546fa9fe78dee34f12d8bbe959d05b6a9435c1ee31adda",
      "transactionIndex": "0x4d",
      "blockHash": "0x0000000000000000000000000000000000000000000000000000000000000000",
      "blockNumber": "0x2bdd062",
      "gasUsed": "0x18206",
      "effectiveGasPrice": "0x4c4b8d",
      "blobGasUsed": "0x39d0",
      "from": "0xd5011cddbe45a366b76c946575bd4b6f907f580f",
      "to": "0x7661764ca12320ce9804440bfd4fbedf16c1a64c",
      "contractAddress": null,
      "daFootprintGasScalar": "0x94",
      "l1BaseFeeScalar": "0x8dd",
      "l1BlobBaseFee": "0x31b6b9f",
      "l1BlobBaseFeeScalar": "0x101c12",
      "l1Fee": "0x21d2fec83",
      "l1GasPrice": "0x3ab66d3e",
      "l1GasUsed": "0x640"
    },
    {
      "status": "0x1",
      "cumulativeGasUsed": "0x999ba0",
      "logs": [
        {
          "address": "0x7661764ca12320ce9804440bfd4fbedf16c1a64c",
          "topics": [
            "0x7e0f48a71f9495e723ee7cf01b0e8add4111a8c92c86a66e53e73b1683ed10af",
            "0x3ed03c38e59dc60c7b69c2a4bf68f9214acd953252b5a90e8f5f59583e9bc3ae",
            "0x2f95862b045670cd22bee3114c39763a4a08beeb663b145d283c31d7d1101c4f"
          ],
          "data": "0x",
          "blockHash": "0x0000000000000000000000000000000000000000000000000000000000000000",
          "blockNumber": "0x2bdd062",
          "blockTimestamp": "0x6a05fda7",
          "transactionHash": "0xb2f45319eb528a83a33cabf195f745ac506a2c93467beb61bbdd045b537d1bd9",
          "transactionIndex": "0x4e",
          "logIndex": "0xac",
          "removed": false
        }
      ],
      "logsBloom": "0x00000000800000000000400000000000000000000000000000000000000000000000000000000000000100000000000000000000000000000000000000000000000000000000000000000000000000000000000000000000004000000000000000000000000000000000000000000000000000000000000000000000000000000020000000800000000000000000000000000000000000000000000000008004000000000000000000010000000004000000000000000000001000000000000000000000000000000000000000000000000000000000000000800000000000000000000000000000000000000000000000000000000000000000000000000000",
      "type": "0x2",
      "transactionHash": "0xb2f45319eb528a83a33cabf195f745ac506a2c93467beb61bbdd045b537d1bd9",
      "transactionIndex": "0x4e",
      "blockHash": "0x0000000000000000000000000000000000000000000000000000000000000000",
      "blockNumber": "0x2bdd062",
      "gasUsed": "0x18206",
      "effectiveGasPrice": "0x4c4b8d",
      "blobGasUsed": "0x39d0",
      "from": "0xd5011cddbe45a366b76c946575bd4b6f907f580f",
      "to": "0x7661764ca12320ce9804440bfd4fbedf16c1a64c",
      "contractAddress": null,
      "daFootprintGasScalar": "0x94",
      "l1BaseFeeScalar": "0x8dd",
      "l1BlobBaseFee": "0x31b6b9f",
      "l1BlobBaseFeeScalar": "0x101c12",
      "l1Fee": "0x21d2fec83",
      "l1GasPrice": "0x3ab66d3e",
      "l1GasUsed": "0x640"
    },
    {
      "status": "0x1",
      "cumulativeGasUsed": "0x9b1da6",
      "logs": [
        {
          "address": "0x7661764ca12320ce9804440bfd4fbedf16c1a64c",
          "topics": [
            "0x7e0f48a71f9495e723ee7cf01b0e8add4111a8c92c86a66e53e73b1683ed10af",
            "0xaeb724422620edb430dcaf22aeeff2e9388a578c02754cd08699652fb76035c7",
            "0xec5d399846a9209f3fe5881d70aae9268c94339ff9817e8d18ff19fa05eea1c8"
          ],
          "data": "0x",
          "blockHash": "0x0000000000000000000000000000000000000000000000000000000000000000",
          "blockNumber": "0x2bdd062",
          "blockTimestamp": "0x6a05fda7",
          "transactionHash": "0xbef2dd3f2c0332b031e91f6f09d0fd73981478aa162dd063da8fec5955848f1a",
          "transactionIndex": "0x4f",
          "logIndex": "0xad",
          "removed": false
        }
      ],
      "logsBloom": "0x00000000800000000000400000000000000000000000000000000000000000000000000000000000000000000000000000000000000000000000000000000000000000000000000000000000000000000000000004000000004000000000000000000000000000000000000000000000000000000000000000000000000000000000000000800000000000000000000000000400000000000000000000000000000000000000000000010000000000000000000000000000001000000000000000000000000000000000000001000000000000000000000000020000000000000000000000000000000000000000000000000000000000001000000000000008",
      "type": "0x2",
      "transactionHash": "0xbef2dd3f2c0332b031e91f6f09d0fd73981478aa162dd063da8fec5955848f1a",
      "transactionIndex": "0x4f",
      "blockHash": "0x0000000000000000000000000000000000000000000000000000000000000000",
      "blockNumber": "0x2bdd062",
      "gasUsed": "0x18206",
      "effectiveGasPrice": "0x4c4b8d",
      "blobGasUsed": "0x39d0",
      "from": "0xd5011cddbe45a366b76c946575bd4b6f907f580f",
      "to": "0x7661764ca12320ce9804440bfd4fbedf16c1a64c",
      "contractAddress": null,
      "daFootprintGasScalar": "0x94",
      "l1BaseFeeScalar": "0x8dd",
      "l1BlobBaseFee": "0x31b6b9f",
      "l1BlobBaseFeeScalar": "0x101c12",
      "l1Fee": "0x21d2fec83",
      "l1GasPrice": "0x3ab66d3e",
      "l1GasUsed": "0x640"
    },
    {
      "status": "0x1",
      "cumulativeGasUsed": "0x9c9fb8",
      "logs": [
        {
          "address": "0x7661764ca12320ce9804440bfd4fbedf16c1a64c",
          "topics": [
            "0x7e0f48a71f9495e723ee7cf01b0e8add4111a8c92c86a66e53e73b1683ed10af",
            "0x9a3f52b1b31ae58da40209f38379e78c3a0756495a0f585d0b3c84a9e9718f9d",
            "0xdcef50dd0a4cd2dcc17e45df1676dcb336a11a61c69df7a0299b0150c672d25c"
          ],
          "data": "0x",
          "blockHash": "0x0000000000000000000000000000000000000000000000000000000000000000",
          "blockNumber": "0x2bdd062",
          "blockTimestamp": "0x6a05fda7",
          "transactionHash": "0x87c7267dc5a51ecc356a4e392e0040fd923d0aba01254f51f0d8d26949bb8f24",
          "transactionIndex": "0x50",
          "logIndex": "0xae",
          "removed": false
        }
      ],
      "logsBloom": "0x00000000800000000000400000000000000000000000040000000000000000000000000000000000000000000000000000000000000000000000000000000000000000000000000000000000000000000000000000000010004000000000000000000000000000000000000000000000000000000000000000000000000000000000000000800000000000000000000000000000000000000000000001000000000000000001000000010000000000000010000000000000001000000000000000000000000000000000000000000800000000000000000000000000000000000000000000000000000000000000000000000000000000000000000000000000",
      "type": "0x2",
      "transactionHash": "0x87c7267dc5a51ecc356a4e392e0040fd923d0aba01254f51f0d8d26949bb8f24",
      "transactionIndex": "0x50",
      "blockHash": "0x0000000000000000000000000000000000000000000000000000000000000000",
      "blockNumber": "0x2bdd062",
      "gasUsed": "0x18212",
      "effectiveGasPrice": "0x4c4b8d",
      "blobGasUsed": "0x39d0",
      "from": "0xd5011cddbe45a366b76c946575bd4b6f907f580f",
      "to": "0x7661764ca12320ce9804440bfd4fbedf16c1a64c",
      "contractAddress": null,
      "daFootprintGasScalar": "0x94",
      "l1BaseFeeScalar": "0x8dd",
      "l1BlobBaseFee": "0x31b6b9f",
      "l1BlobBaseFeeScalar": "0x101c12",
      "l1Fee": "0x21d2fec83",
      "l1GasPrice": "0x3ab66d3e",
      "l1GasUsed": "0x647"
    },
    {
      "status": "0x1",
      "cumulativeGasUsed": "0x9e21be",
      "logs": [
        {
          "address": "0x7661764ca12320ce9804440bfd4fbedf16c1a64c",
          "topics": [
            "0x7e0f48a71f9495e723ee7cf01b0e8add4111a8c92c86a66e53e73b1683ed10af",
            "0x4e1e6d8aa1ff8f43f933718e113229b0ec6b091b699f7a8671bcbd606da36eea",
            "0x2a01deaec9e51a579277b34b122399984d0bbf57e2458a7e42fecd2829867a0d"
          ],
          "data": "0x",
          "blockHash": "0x0000000000000000000000000000000000000000000000000000000000000000",
          "blockNumber": "0x2bdd062",
          "blockTimestamp": "0x6a05fda7",
          "transactionHash": "0x3cea44da4566ab2e377f9e3c8d7a27fe013ce63b3d25cafd4c19bbdcf2addcc9",
          "transactionIndex": "0x51",
          "logIndex": "0xaf",
          "removed": false
        }
      ],
      "logsBloom": "0x00000000800000000000400000000000000000000000000000000000000000800020000000000000000000000000000000000000000000000000000000000000000000000000000000000000000000000000000000000000004000000000000000000000000000000000000000000000000010000000000000000000000000000000000000800000000000400000080000000000000000000000000000020000000000000000000000010000000000000000000000000000001000000000000000000000000000000000000000000000000000000000000000000000000000000000000000000000000000000000000000000000000000000000000000000000",
      "type": "0x2",
      "transactionHash": "0x3cea44da4566ab2e377f9e3c8d7a27fe013ce63b3d25cafd4c19bbdcf2addcc9",
      "transactionIndex": "0x51",
      "blockHash": "0x0000000000000000000000000000000000000000000000000000000000000000",
      "blockNumber": "0x2bdd062",
      "gasUsed": "0x18206",
      "effectiveGasPrice": "0x4c4b8d",
      "blobGasUsed": "0x39d0",
      "from": "0xd5011cddbe45a366b76c946575bd4b6f907f580f",
      "to": "0x7661764ca12320ce9804440bfd4fbedf16c1a64c",
      "contractAddress": null,
      "daFootprintGasScalar": "0x94",
      "l1BaseFeeScalar": "0x8dd",
      "l1BlobBaseFee": "0x31b6b9f",
      "l1BlobBaseFeeScalar": "0x101c12",
      "l1Fee": "0x21d2fec83",
      "l1GasPrice": "0x3ab66d3e",
      "l1GasUsed": "0x640"
    },
    {
      "status": "0x1",
      "cumulativeGasUsed": "0x9fa3d0",
      "logs": [
        {
          "address": "0x7661764ca12320ce9804440bfd4fbedf16c1a64c",
          "topics": [
            "0x7e0f48a71f9495e723ee7cf01b0e8add4111a8c92c86a66e53e73b1683ed10af",
            "0x49f18ed70c3220abb735efdc7fce309e384d008d4bc14c846dcce9e31050e29b",
            "0x93da3352f9f1d105fdfe4971cfa80e9dd777bfc5d0f683ebb6e1294b92137bb7"
          ],
          "data": "0x",
          "blockHash": "0x0000000000000000000000000000000000000000000000000000000000000000",
          "blockNumber": "0x2bdd062",
          "blockTimestamp": "0x6a05fda7",
          "transactionHash": "0x1aa86703d45505db35ef4a0e92eba553e878abbfa28721099aa134b04aaa9d0b",
          "transactionIndex": "0x52",
          "logIndex": "0xb0",
          "removed": false
        }
      ],
      "logsBloom": "0x00000000800000000000400000000000000000000000000000000080000000000000000000000000000000000000000000000000000000000000000000000000000000000000000000000000000000000000000000000000004000000000000000000000000000000000000000000000000000000000000000000000000000000000000000800001000000008000000000000000000000000000000004000000000000000000000000010000000000000000000000000000001000000000000000000000000000000000000000000000000000000000000000000040000000000000000000000000000000000000000000000000000000000000000000400000",
      "type": "0x2",
      "transactionHash": "0x1aa86703d45505db35ef4a0e92eba553e878abbfa28721099aa134b04aaa9d0b",
      "transactionIndex": "0x52",
      "blockHash": "0x0000000000000000000000000000000000000000000000000000000000000000",
      "blockNumber": "0x2bdd062",
      "gasUsed": "0x18212",
      "effectiveGasPrice": "0x4c4b8d",
      "blobGasUsed": "0x39d0",
      "from": "0xd5011cddbe45a366b76c946575bd4b6f907f580f",
      "to": "0x7661764ca12320ce9804440bfd4fbedf16c1a64c",
      "contractAddress": null,
      "daFootprintGasScalar": "0x94",
      "l1BaseFeeScalar": "0x8dd",
      "l1BlobBaseFee": "0x31b6b9f",
      "l1BlobBaseFeeScalar": "0x101c12",
      "l1Fee": "0x21d2fec83",
      "l1GasPrice": "0x3ab66d3e",
      "l1GasUsed": "0x647"
    },
    {
      "status": "0x1",
      "cumulativeGasUsed": "0xa125e2",
      "logs": [
        {
          "address": "0x7661764ca12320ce9804440bfd4fbedf16c1a64c",
          "topics": [
            "0x7e0f48a71f9495e723ee7cf01b0e8add4111a8c92c86a66e53e73b1683ed10af",
            "0x921a3539bcb764c889432630877414523e7fbca00c211bc787aeae69e2e3a779",
            "0x8ac0c70fff57e9aefdf5edf44b51d62c2d433653cbb2cf5cc06bb115af04d221"
          ],
          "data": "0x",
          "blockHash": "0x0000000000000000000000000000000000000000000000000000000000000000",
          "blockNumber": "0x2bdd062",
          "blockTimestamp": "0x6a05fda7",
          "transactionHash": "0xe83ce1d30910b03bce304f45954ad0248e96668bdf9b4cff316007139c22e991",
          "transactionIndex": "0x53",
          "logIndex": "0xb1",
          "removed": false
        }
      ],
      "logsBloom": "0x02000000800000000000400000000000000000000000000000000000000000000000000000000000000000000000000000000000000000000000000000000000000000000000000000000000010000000000000000000000004000000000000000000000000000000000080000000000000000000000000000000000000000000000000000800100000000000000000000000000000000000000000000000000000000000000000000010000000000000000000000000000001000000000200000000000000000000000000000000000000000000000000000000000000000000000000000000000000000000000008000000000000000000000000000000000",
      "type": "0x2",
      "transactionHash": "0xe83ce1d30910b03bce304f45954ad0248e96668bdf9b4cff316007139c22e991",
      "transactionIndex": "0x53",
      "blockHash": "0x0000000000000000000000000000000000000000000000000000000000000000",
      "blockNumber": "0x2bdd062",
      "gasUsed": "0x18212",
      "effectiveGasPrice": "0x4c4b8d",
      "blobGasUsed": "0x39d0",
      "from": "0xd5011cddbe45a366b76c946575bd4b6f907f580f",
      "to": "0x7661764ca12320ce9804440bfd4fbedf16c1a64c",
      "contractAddress": null,
      "daFootprintGasScalar": "0x94",
      "l1BaseFeeScalar": "0x8dd",
      "l1BlobBaseFee": "0x31b6b9f",
      "l1BlobBaseFeeScalar": "0x101c12",
      "l1Fee": "0x21d2fec83",
      "l1GasPrice": "0x3ab66d3e",
      "l1GasUsed": "0x647"
    },
    {
      "status": "0x1",
      "cumulativeGasUsed": "0xa2a7e8",
      "logs": [
        {
          "address": "0x7661764ca12320ce9804440bfd4fbedf16c1a64c",
          "topics": [
            "0x7e0f48a71f9495e723ee7cf01b0e8add4111a8c92c86a66e53e73b1683ed10af",
            "0x9bd00430e53a5999c7c603cfc04cbdaf68bdbc180f300e4a2067937f57a0534f",
            "0xca3eed9b267293f6595901c734c7525ce8ef49adafe8284606ceb307afa2ca5b"
          ],
          "data": "0x",
          "blockHash": "0x0000000000000000000000000000000000000000000000000000000000000000",
          "blockNumber": "0x2bdd062",
          "blockTimestamp": "0x6a05fda7",
          "transactionHash": "0x632ee4baae11e8934f58f1a8b650a727e509603cc58cabe76f3694e496aafc45",
          "transactionIndex": "0x54",
          "logIndex": "0xb2",
          "removed": false
        }
      ],
      "logsBloom": "0x00000000800000000000400000000000000000000000000000000000000000000000000000000000000000000000000000000000000000000000000000000000000000000000000000000000000400000000000000000000004000000000000000000000000000000000000000000000000000000000000000000000000000000000000000800000000000000000000000000000000000000000000040000000000000000000000000010000200000000000000000000000001000000000000000000000080000000000000000000000001000000000000000000000000000000000000000000000000000000000000000000000000000000000000000000004",
      "type": "0x2",
      "transactionHash": "0x632ee4baae11e8934f58f1a8b650a727e509603cc58cabe76f3694e496aafc45",
      "transactionIndex": "0x54",
      "blockHash": "0x0000000000000000000000000000000000000000000000000000000000000000",
      "blockNumber": "0x2bdd062",
      "gasUsed": "0x18206",
      "effectiveGasPrice": "0x4c4b8d",
      "blobGasUsed": "0x39d0",
      "from": "0xd5011cddbe45a366b76c946575bd4b6f907f580f",
      "to": "0x7661764ca12320ce9804440bfd4fbedf16c1a64c",
      "contractAddress": null,
      "daFootprintGasScalar": "0x94",
      "l1BaseFeeScalar": "0x8dd",
      "l1BlobBaseFee": "0x31b6b9f",
      "l1BlobBaseFeeScalar": "0x101c12",
      "l1Fee": "0x21d2fec83",
      "l1GasPrice": "0x3ab66d3e",
      "l1GasUsed": "0x640"
    },
    {
      "status": "0x1",
      "cumulativeGasUsed": "0xd827a3",
      "logs": [
        {
          "address": "0x11a46523558fe85699548e30e3e0efe82d54850b",
          "topics": [
            "0x8be0079c531659141344cd1fd0a4f28419497f9722a3daafe3b4186f6b6457e0",
            "0x0000000000000000000000000000000000000000000000000000000000000000",
            "0x000000000000000000000000d5011cddbe45a366b76c946575bd4b6f907f580f"
          ],
          "data": "0x",
          "blockHash": "0x0000000000000000000000000000000000000000000000000000000000000000",
          "blockNumber": "0x2bdd062",
          "blockTimestamp": "0x6a05fda7",
          "transactionHash": "0x8bc283a6c877ad315f8beb497d3e0551a69bc5e474ef546d786ed624bdb7a39c",
          "transactionIndex": "0x63",
          "logIndex": "0xe3",
          "removed": false
        }
      ],
      "logsBloom": "0x00000000000000000000100000000000000000000000000000800000000000000000000000000000000000000000000000000000000000000000000080000000000000000000000000000000000000000001000000000000000000000000000000000000020000000000000000000840000000000000000000000000000000400000000000000000000000000000000000000000000000000000000000000000000000000000000000000080000000000000000000000000000000000000000000000000000000000000000000000000000000000000000000000000000020000000000000000000000000000000000000000001000000000000000000000000",
      "type": "0x2",
      "transactionHash": "0x8bc283a6c877ad315f8beb497d3e0551a69bc5e474ef546d786ed624bdb7a39c",
      "transactionIndex": "0x63",
      "blockHash": "0x0000000000000000000000000000000000000000000000000000000000000000",
      "blockNumber": "0x2bdd062",
      "gasUsed": "0x1bc9ed",
      "effectiveGasPrice": "0x4c4b8d",
      "blobGasUsed": "0xba314",
      "from": "0xd5011cddbe45a366b76c946575bd4b6f907f580f",
      "to": null,
      "contractAddress": "0x11a46523558fe85699548e30e3e0efe82d54850b",
      "daFootprintGasScalar": "0x94",
      "l1BaseFeeScalar": "0x8dd",
      "l1BlobBaseFee": "0x31b6b9f",
      "l1BlobBaseFeeScalar": "0x101c12",
      "l1Fee": "0x21d2fec83",
      "l1GasPrice": "0x3ab66d3e",
      "l1GasUsed": "0x1421c"
    },
    {
      "status": "0x1",
      "cumulativeGasUsed": "0xea8f95",
      "logs": [
        {
          "address": "0x28c8a517b5d32ae5cdf080ae23d79c8785694986",
          "topics": [
            "0x8be0079c531659141344cd1fd0a4f28419497f9722a3daafe3b4186f6b6457e0",
            "0x0000000000000000000000000000000000000000000000000000000000000000",
            "0x000000000000000000000000d5011cddbe45a366b76c946575bd4b6f907f580f"
          ],
          "data": "0x",
          "blockHash": "0x0000000000000000000000000000000000000000000000000000000000000000",
          "blockNumber": "0x2bdd062",
          "blockTimestamp": "0x6a05fda7",
          "transactionHash": "0x861efb478c2be17c50d6b11909e6b9868c4f1ae047fc6d71fa4135e05e4fadd2",
          "transactionIndex": "0x64",
          "logIndex": "0xe4",
          "removed": false
        }
      ],
      "logsBloom": "0x00000000000000000000000000000000000000000000000000800000000000000000000000000000000000000000000000000000000000000004000080000000000000000000000000000000000000000001000000000000000000000000000000000000020000000000000000000840000000000000000004000000000000400000000000000000000000000000000000000000000000000000000000000000000000000000000000000080000000000000000000000000000000000000000000000000000000000000000000000000000000000000000000000000000020000000000000000000000000000000100000000000000000000000000000000000",
      "type": "0x2",
      "transactionHash": "0x861efb478c2be17c50d6b11909e6b9868c4f1ae047fc6d71fa4135e05e4fadd2",
      "transactionIndex": "0x64",
      "blockHash": "0x0000000000000000000000000000000000000000000000000000000000000000",
      "blockNumber": "0x2bdd062",
      "gasUsed": "0x1267f2",
      "effectiveGasPrice": "0x4c4b8d",
      "blobGasUsed": "0x75a60",
      "from": "0xd5011cddbe45a366b76c946575bd4b6f907f580f",
      "to": null,
      "contractAddress": "0x28c8a517b5d32ae5cdf080ae23d79c8785694986",
      "daFootprintGasScalar": "0x94",
      "l1BaseFeeScalar": "0x8dd",
      "l1BlobBaseFee": "0x31b6b9f",
      "l1BlobBaseFeeScalar": "0x101c12",
      "l1Fee": "0x21d2fec83",
      "l1GasPrice": "0x3ab66d3e",
      "l1GasUsed": "0xcb89"
    },
    {
      "status": "0x1",
      "cumulativeGasUsed": "0xeb4a1b",
      "logs": [
        {
          "address": "0x11a46523558fe85699548e30e3e0efe82d54850b",
          "topics": [
            "0x7aed1d3e8155a07ccf395e44ea3109a0e2d6c9b29bbbe9f142d9790596f4dc80",
            "0x00000000000000000000000028c8a517b5d32ae5cdf080ae23d79c8785694986"
          ],
          "data": "0x",
          "blockHash": "0x0000000000000000000000000000000000000000000000000000000000000000",
          "blockNumber": "0x2bdd062",
          "blockTimestamp": "0x6a05fda7",
          "transactionHash": "0x95b6ac49c682f64635bc6ef933a16ac202fdbce6e0abb1a3d21535112539d495",
          "transactionIndex": "0x65",
          "logIndex": "0xe5",
          "removed": false
        }
      ],
      "logsBloom": "0x00000000000200000000100000000000000000000000000000000000000000000000000000000000000000000000000000000000000000000000000000000000000000000000000000000000000000000000000000000000000000000000000000000000000000000000000000000800000000000000000000000000000000000000000000000000000000000000000000000000400000000000000001000040000000000000000000000000000000000000000000000000000000000000000800000000000000000000000000000000000000000000000000000000000000008000000000000000000000000000000000000001000000000000000000000000",
      "type": "0x2",
      "transactionHash": "0x95b6ac49c682f64635bc6ef933a16ac202fdbce6e0abb1a3d21535112539d495",
      "transactionIndex": "0x65",
      "blockHash": "0x0000000000000000000000000000000000000000000000000000000000000000",
      "blockNumber": "0x2bdd062",
      "gasUsed": "0xba86",
      "effectiveGasPrice": "0x4c4b8d",
      "blobGasUsed": "0x39d0",
      "from": "0xd5011cddbe45a366b76c946575bd4b6f907f580f",
      "to": "0x11a46523558fe85699548e30e3e0efe82d54850b",
      "contractAddress": null,
      "daFootprintGasScalar": "0x94",
      "l1BaseFeeScalar": "0x8dd",
      "l1BlobBaseFee": "0x31b6b9f",
      "l1BlobBaseFeeScalar": "0x101c12",
      "l1Fee": "0x21d2fec83",
      "l1GasPrice": "0x3ab66d3e",
      "l1GasUsed": "0x640"
    },
    {
      "status": "0x1",
      "cumulativeGasUsed": "0xec053c",
      "logs": [
        {
          "address": "0x28c8a517b5d32ae5cdf080ae23d79c8785694986",
          "topics": [
            "0x786c9db967bf0c6b16c7c91adae8a8c554b15a57d373fa2059607300f4616c00",
            "0x000000000000000000000000d5011cddbe45a366b76c946575bd4b6f907f580f"
          ],
          "data": "0x0000000000000000000000000000000000000000000000000000000000000001",
          "blockHash": "0x0000000000000000000000000000000000000000000000000000000000000000",
          "blockNumber": "0x2bdd062",
          "blockTimestamp": "0x6a05fda7",
          "transactionHash": "0x4754796b9783a00ef1e8176377f6f4a08fbdfd198e64e9f7620ef476e20f8fc0",
          "transactionIndex": "0x66",
          "logIndex": "0xe6",
          "removed": false
        }
      ],
      "logsBloom": "0x00000000000000000000000000000000000000000000000000000000000000000000000000000000000000000000000000000000000000000004000080010000000000000000000000000000000000000000000000000000000000000000000000000000000000000000000400000040000000000000040004000000000000000000000000000000000000000000000000000000000000000000000000000000000000000000000000000080000000000000000000000000000000000000000000000000000000000000000000000000000000000000000000000000000000000000000000000000000000000000100000000000000000000000000000000000",
      "type": "0x2",
      "transactionHash": "0x4754796b9783a00ef1e8176377f6f4a08fbdfd198e64e9f7620ef476e20f8fc0",
      "transactionIndex": "0x66",
      "blockHash": "0x0000000000000000000000000000000000000000000000000000000000000000",
      "blockNumber": "0x2bdd062",
      "gasUsed": "0xbb21",
      "effectiveGasPrice": "0x4c4b8d",
      "blobGasUsed": "0x39d0",
      "from": "0xd5011cddbe45a366b76c946575bd4b6f907f580f",
      "to": "0x28c8a517b5d32ae5cdf080ae23d79c8785694986",
      "contractAddress": null,
      "daFootprintGasScalar": "0x94",
      "l1BaseFeeScalar": "0x8dd",
      "l1BlobBaseFee": "0x31b6b9f",
      "l1BlobBaseFeeScalar": "0x101c12",
      "l1Fee": "0x21d2fec83",
      "l1GasPrice": "0x3ab66d3e",
      "l1GasUsed": "0x640"
    },
    {
      "status": "0x1",
      "cumulativeGasUsed": "0xecb8ea",
      "logs": [
        {
          "address": "0xe5c8628cfb666815dc96ff19595da4ac4aa48f92",
          "topics": [
            "0x8c5be1e5ebec7d5bd14f71427d1e84f3dd0314c0f7b2291e5b200ac8c7c3b925",
            "0x000000000000000000000000d5011cddbe45a366b76c946575bd4b6f907f580f",
            "0x00000000000000000000000011a46523558fe85699548e30e3e0efe82d54850b"
          ],
          "data": "0x0000000000000000000000000000000000000000000069e10de76676d0800000",
          "blockHash": "0x0000000000000000000000000000000000000000000000000000000000000000",
          "blockNumber": "0x2bdd062",
          "blockTimestamp": "0x6a05fda7",
          "transactionHash": "0xb854a673acae4f1e7cf67e0ee65aa1a5f70607e3dccbe5f8022dd6eaec14c25d",
          "transactionIndex": "0x67",
          "logIndex": "0xe7",
          "removed": false
        }
      ],
      "logsBloom": "0x00000000000000000000000000000000000000000000000000000000800000000000000000000000000000000000000000000080000000000000000080200000000000000000000000002000000040000000000002000000000000000000000000000000000000000000000000000040000000000000000000000000000000000000000000000000000000000000000000000000000000000000000000000000020000000000000000000080000000000000000000000000000000000000000000000000000000000000000000000000000000000000000004000000000000000010000000000000000000000000000000000000000000000000000000000000",
      "type": "0x2",
      "transactionHash": "0xb854a673acae4f1e7cf67e0ee65aa1a5f70607e3dccbe5f8022dd6eaec14c25d",
      "transactionIndex": "0x67",
      "blockHash": "0x0000000000000000000000000000000000000000000000000000000000000000",
      "blockNumber": "0x2bdd062",
      "gasUsed": "0xb3ae",
      "effectiveGasPrice": "0x4c4b8d",
      "blobGasUsed": "0x39d0",
      "from": "0xd5011cddbe45a366b76c946575bd4b6f907f580f",
      "to": "0xe5c8628cfb666815dc96ff19595da4ac4aa48f92",
      "contractAddress": null,
      "daFootprintGasScalar": "0x94",
      "l1BaseFeeScalar": "0x8dd",
      "l1BlobBaseFee": "0x31b6b9f",
      "l1BlobBaseFeeScalar": "0x101c12",
      "l1Fee": "0x21d2fec83",
      "l1GasPrice": "0x3ab66d3e",
      "l1GasUsed": "0x640"
    },
    {
      "status": "0x1",
      "cumulativeGasUsed": "0xedf43c",
      "logs": [
        {
          "address": "0xe5c8628cfb666815dc96ff19595da4ac4aa48f92",
          "topics": [
            "0xddf252ad1be2c89b69c2b068fc378daa952ba7f163c4a11628f55a4df523b3ef",
            "0x000000000000000000000000d5011cddbe45a366b76c946575bd4b6f907f580f",
            "0x00000000000000000000000011a46523558fe85699548e30e3e0efe82d54850b"
          ],
          "data": "0x0000000000000000000000000000000000000000000069e10de76676d0800000",
          "blockHash": "0x0000000000000000000000000000000000000000000000000000000000000000",
          "blockNumber": "0x2bdd062",
          "blockTimestamp": "0x6a05fda7",
          "transactionHash": "0xbdbfac9f170a33a862610d5306bac69d86150c413aa1f93caaa0aca04b268087",
          "transactionIndex": "0x68",
          "logIndex": "0xe8",
          "removed": false
        },
        {
          "address": "0x11a46523558fe85699548e30e3e0efe82d54850b",
          "topics": [
            "0xc17cea59c2955cb181b03393209566960365771dbba9dc3d510180e7cb312088",
            "0x000000000000000000000000d5011cddbe45a366b76c946575bd4b6f907f580f"
          ],
          "data": "0x0000000000000000000000000000000000000000000069e10de76676d0800000",
          "blockHash": "0x0000000000000000000000000000000000000000000000000000000000000000",
          "blockNumber": "0x2bdd062",
          "blockTimestamp": "0x6a05fda7",
          "transactionHash": "0xbdbfac9f170a33a862610d5306bac69d86150c413aa1f93caaa0aca04b268087",
          "transactionIndex": "0x68",
          "logIndex": "0xe9",
          "removed": false
        }
      ],
      "logsBloom": "0x00000000000000000000100000000000000000000000000000000000800000000000000000002000000000000000000000000080000000000000000080000000000002000000000000002008000040000000000002000000000000000000000000000000000000000000000000000840000000000000000000000010000000000000000000000000000200000000000000000000000000000000000000000000000000000000000000000080000000000000000000000000000000000000000000000002000000000000000000000000000000000000000004000000000000000000000000000000000000000000000000000001000000000000000000000000",
      "type": "0x2",
      "transactionHash": "0xbdbfac9f170a33a862610d5306bac69d86150c413aa1f93caaa0aca04b268087",
      "transactionIndex": "0x68",
      "blockHash": "0x0000000000000000000000000000000000000000000000000000000000000000",
      "blockNumber": "0x2bdd062",
      "gasUsed": "0x13b52",
      "effectiveGasPrice": "0x4c4b8d",
      "blobGasUsed": "0x39d0",
      "from": "0xd5011cddbe45a366b76c946575bd4b6f907f580f",
      "to": "0x11a46523558fe85699548e30e3e0efe82d54850b",
      "contractAddress": null,
      "daFootprintGasScalar": "0x94",
      "l1BaseFeeScalar": "0x8dd",
      "l1BlobBaseFee": "0x31b6b9f",
      "l1BlobBaseFeeScalar": "0x101c12",
      "l1Fee": "0x21d2fec83",
      "l1GasPrice": "0x3ab66d3e",
      "l1GasUsed": "0x640"
    }
  ],
  "libraries": [],
  "pending": [],
  "returns": {},
  "timestamp": 1778777590150,
  "chain": 8453,
  "commit": null
}